{
  "contractName": "eShop",
  "abi": [
    {
      "constant": true,
      "inputs": [],
      "name": "taskCount",
      "outputs": [
        {
          "name": "",
          "type": "uint256"
        }
      ],
      "payable": false,
      "stateMutability": "view",
      "type": "function"
    }
  ],
  "bytecode": "0x608060405260008055348015601357600080fd5b50607b806100226000396000f3fe6080604052348015600f57600080fd5b506004361060285760003560e01c8063b6cb58a514602d575b600080fd5b60336049565b6040518082815260200191505060405180910390f35b6000548156fea165627a7a72305820f8a38a45b451d73bb3b75c893b5fcbd4d63d4b0bc35183a94aee8721103684770029",
  "source": "pragma solidity ^0.5.3;\n\ncontract eShop {\n   // function eShop(){\n    uint public taskCount = 0;\n   // }\n}\n",
  "sourcePath": "/home/geopapadopoulos/BlockChainTestsAndProjects/eshopBlockchain/src/contracts/eShop.sol",
  "compiler": {
    "name": "solc",
    "version": "0.5.8+commit.23d335f2.Emscripten.clang"
  },
  "schemaVersion": "3.0.16",
  "updatedAt": "2019-12-08T17:37:19.895Z",
  "devdoc": {
    "methods": {}
  },
  "userdoc": {
    "methods": {}
  }
}