{
  "contractName": "eShop",
  "abi": [
    {
      "inputs": [],
      "stateMutability": "payable",
      "type": "constructor",
      "payable": true
    },
    {
      "anonymous": false,
      "inputs": [],
      "name": "Aborted",
      "type": "event"
    },
    {
      "anonymous": false,
      "inputs": [
        {
          "indexed": false,
          "internalType": "address",
          "name": "winner",
          "type": "address"
        },
        {
          "indexed": false,
          "internalType": "uint256",
          "name": "highestBid",
          "type": "uint256"
        }
      ],
      "name": "AuctionEnded",
      "type": "event"
    },
    {
      "anonymous": false,
      "inputs": [],
      "name": "DidNotMeetRequireYet",
      "type": "event"
    },
    {
      "anonymous": false,
      "inputs": [],
      "name": "IWillReturnTrue",
      "type": "event"
    },
    {
      "anonymous": false,
      "inputs": [],
      "name": "ItemReceived",
      "type": "event"
    },
    {
      "anonymous": false,
      "inputs": [],
      "name": "NewAuctionBegins",
      "type": "event"
    },
    {
      "anonymous": false,
      "inputs": [
        {
          "indexed": false,
          "internalType": "address",
          "name": "refunded",
          "type": "address"
        }
      ],
      "name": "NotRevealedYet",
      "type": "event"
    },
    {
      "anonymous": false,
      "inputs": [
        {
          "indexed": false,
          "internalType": "uint256",
          "name": "id",
          "type": "uint256"
        },
        {
          "indexed": false,
          "internalType": "string",
          "name": "name",
          "type": "string"
        },
        {
          "indexed": false,
          "internalType": "uint256",
          "name": "price",
          "type": "uint256"
        },
        {
          "indexed": false,
          "internalType": "address payable",
          "name": "owner",
          "type": "address"
        },
        {
          "indexed": false,
          "internalType": "bool",
          "name": "purchased",
          "type": "bool"
        },
        {
          "indexed": false,
          "internalType": "enum eShop.State",
          "name": "state",
          "type": "uint8"
        }
      ],
      "name": "ProductCreated",
      "type": "event"
    },
    {
      "anonymous": false,
      "inputs": [
        {
          "indexed": false,
          "internalType": "uint256",
          "name": "id",
          "type": "uint256"
        },
        {
          "indexed": false,
          "internalType": "string",
          "name": "name",
          "type": "string"
        },
        {
          "indexed": false,
          "internalType": "uint256",
          "name": "price",
          "type": "uint256"
        },
        {
          "indexed": false,
          "internalType": "address payable",
          "name": "owner",
          "type": "address"
        },
        {
          "indexed": false,
          "internalType": "bool",
          "name": "purchased",
          "type": "bool"
        }
      ],
      "name": "ProductPurchased",
      "type": "event"
    },
    {
      "anonymous": false,
      "inputs": [],
      "name": "PurchaseConfirmed",
      "type": "event"
    },
    {
      "anonymous": false,
      "inputs": [
        {
          "indexed": false,
          "internalType": "address",
          "name": "refunded",
          "type": "address"
        }
      ],
      "name": "Revealed",
      "type": "event"
    },
    {
      "anonymous": false,
      "inputs": [],
      "name": "SellerRefunded",
      "type": "event"
    },
    {
      "anonymous": false,
      "inputs": [
        {
          "indexed": false,
          "internalType": "uint256",
          "name": "value",
          "type": "uint256"
        }
      ],
      "name": "deposit",
      "type": "event"
    },
    {
      "anonymous": false,
      "inputs": [
        {
          "indexed": false,
          "internalType": "uint256",
          "name": "value",
          "type": "uint256"
        }
      ],
      "name": "depositValue",
      "type": "event"
    },
    {
      "anonymous": false,
      "inputs": [
        {
          "indexed": false,
          "internalType": "bool",
          "name": "flag",
          "type": "bool"
        }
      ],
      "name": "isFalse",
      "type": "event"
    },
    {
      "anonymous": false,
      "inputs": [
        {
          "indexed": false,
          "internalType": "bool",
          "name": "flag",
          "type": "bool"
        }
      ],
      "name": "isTrue",
      "type": "event"
    },
    {
      "inputs": [],
      "name": "beneficiary",
      "outputs": [
        {
          "internalType": "address payable",
          "name": "",
          "type": "address"
        }
      ],
      "stateMutability": "view",
      "type": "function",
      "constant": true
    },
    {
      "inputs": [],
      "name": "buyer",
      "outputs": [
        {
          "internalType": "address payable",
          "name": "",
          "type": "address"
        }
      ],
      "stateMutability": "view",
      "type": "function",
      "constant": true
    },
    {
      "inputs": [],
      "name": "globalBidsCount",
      "outputs": [
        {
          "internalType": "uint256",
          "name": "",
          "type": "uint256"
        }
      ],
      "stateMutability": "view",
      "type": "function",
      "constant": true
    },
    {
      "inputs": [
        {
          "internalType": "uint256",
          "name": "",
          "type": "uint256"
        }
      ],
      "name": "internalProducts",
      "outputs": [
        {
          "internalType": "uint256",
          "name": "id",
          "type": "uint256"
        },
        {
          "internalType": "string",
          "name": "name",
          "type": "string"
        },
        {
          "internalType": "uint256",
          "name": "price",
          "type": "uint256"
        },
        {
          "internalType": "address payable",
          "name": "owner",
          "type": "address"
        },
        {
          "internalType": "address payable",
          "name": "beneficiary",
          "type": "address"
        },
        {
          "internalType": "bool",
          "name": "purchased",
          "type": "bool"
        },
        {
          "internalType": "uint256",
          "name": "bidsCount",
          "type": "uint256"
        },
        {
          "internalType": "bool",
          "name": "ended",
          "type": "bool"
        },
        {
          "internalType": "uint256",
          "name": "biddingEnd",
          "type": "uint256"
        },
        {
          "internalType": "uint256",
          "name": "revealEnd",
          "type": "uint256"
        },
        {
          "internalType": "address",
          "name": "highestBidder",
          "type": "address"
        },
        {
          "internalType": "uint256",
          "name": "highestBid",
          "type": "uint256"
        }
      ],
      "stateMutability": "view",
      "type": "function",
      "constant": true
    },
    {
      "inputs": [],
      "name": "name",
      "outputs": [
        {
          "internalType": "string",
          "name": "",
          "type": "string"
        }
      ],
      "stateMutability": "view",
      "type": "function",
      "constant": true
    },
    {
      "inputs": [],
      "name": "productCount",
      "outputs": [
        {
          "internalType": "uint256",
          "name": "",
          "type": "uint256"
        }
      ],
      "stateMutability": "view",
      "type": "function",
      "constant": true
    },
    {
      "inputs": [],
      "name": "seller",
      "outputs": [
        {
          "internalType": "address payable",
          "name": "",
          "type": "address"
        }
      ],
      "stateMutability": "view",
      "type": "function",
      "constant": true
    },
    {
      "inputs": [],
      "name": "state",
      "outputs": [
        {
          "internalType": "enum eShop.State",
          "name": "",
          "type": "uint8"
        }
      ],
      "stateMutability": "view",
      "type": "function",
      "constant": true
    },
    {
      "inputs": [
        {
          "internalType": "uint256",
          "name": "_id",
          "type": "uint256"
        },
        {
          "internalType": "bytes32",
          "name": "_blindedBid",
          "type": "bytes32"
        },
        {
          "internalType": "uint256",
          "name": "_values",
          "type": "uint256"
        },
        {
          "internalType": "bool",
          "name": "_fake",
          "type": "bool"
        },
        {
          "internalType": "string",
          "name": "_secret",
          "type": "string"
        }
      ],
      "name": "checkBidding",
      "outputs": [],
      "stateMutability": "payable",
      "type": "function",
      "payable": true
    },
    {
      "inputs": [
        {
          "internalType": "bytes32",
          "name": "_blindedBid",
          "type": "bytes32"
        },
        {
          "internalType": "uint256",
          "name": "id",
          "type": "uint256"
        }
      ],
      "name": "bid",
      "outputs": [],
      "stateMutability": "payable",
      "type": "function",
      "payable": true
    },
    {
      "inputs": [
        {
          "internalType": "uint256",
          "name": "_values",
          "type": "uint256"
        },
        {
          "internalType": "bool",
          "name": "_fake",
          "type": "bool"
        },
        {
          "internalType": "string",
          "name": "_secret",
          "type": "string"
        },
        {
          "internalType": "uint256",
          "name": "id",
          "type": "uint256"
        }
      ],
      "name": "pushNakedBids",
      "outputs": [],
      "stateMutability": "payable",
      "type": "function",
      "payable": true
    },
    {
      "inputs": [
        {
          "internalType": "uint256[]",
          "name": "_values",
          "type": "uint256[]"
        },
        {
          "internalType": "bool[]",
          "name": "_fake",
          "type": "bool[]"
        },
        {
          "internalType": "string[]",
          "name": "_secret",
          "type": "string[]"
        },
        {
          "internalType": "uint256",
          "name": "_id",
          "type": "uint256"
        }
      ],
      "name": "revealInternal",
      "outputs": [],
      "stateMutability": "payable",
      "type": "function",
      "payable": true
    },
    {
      "inputs": [
        {
          "internalType": "uint256",
          "name": "_id",
          "type": "uint256"
        }
      ],
      "name": "withdraw",
      "outputs": [],
      "stateMutability": "payable",
      "type": "function",
      "payable": true
    },
    {
      "inputs": [
        {
          "internalType": "uint256",
          "name": "_id",
          "type": "uint256"
        }
      ],
      "name": "auctionEnd",
      "outputs": [],
      "stateMutability": "payable",
      "type": "function",
      "payable": true
    },
    {
      "inputs": [
        {
          "internalType": "string",
          "name": "_name",
          "type": "string"
        },
        {
          "internalType": "uint256",
          "name": "_price",
          "type": "uint256"
        }
      ],
      "name": "createProduct",
      "outputs": [],
      "stateMutability": "nonpayable",
      "type": "function"
    },
    {
      "inputs": [
        {
          "internalType": "uint256",
          "name": "_id",
          "type": "uint256"
        }
      ],
      "name": "purchaseProduct",
      "outputs": [],
      "stateMutability": "payable",
      "type": "function",
      "payable": true
    },
    {
      "inputs": [
        {
          "internalType": "uint256",
          "name": "_id",
          "type": "uint256"
        },
        {
          "internalType": "uint256",
          "name": "key",
          "type": "uint256"
        }
      ],
      "name": "getNakedBids",
      "outputs": [
        {
          "components": [
            {
              "internalType": "uint256",
              "name": "values",
              "type": "uint256"
            },
            {
              "internalType": "bool",
              "name": "fake",
              "type": "bool"
            },
            {
              "internalType": "string",
              "name": "secret",
              "type": "string"
            }
          ],
          "internalType": "struct eShop.SecretBids",
          "name": "",
          "type": "tuple"
        }
      ],
      "stateMutability": "view",
      "type": "function",
      "constant": true
    },
    {
      "inputs": [
        {
          "internalType": "uint256",
          "name": "_id",
          "type": "uint256"
        }
      ],
      "name": "reveal",
      "outputs": [],
      "stateMutability": "payable",
      "type": "function",
      "payable": true
    }
  ],
  "bytecode": "0x6080604052600060015560006006556040518060400160405280600a81526020017f44617070206553686f7000000000000000000000000000000000000000000000815250600090805190602001906200005b929190620000e4565b5033600260006101000a81548173ffffffffffffffffffffffffffffffffffffffff021916908373ffffffffffffffffffffffffffffffffffffffff16021790555033600460006101000a81548173ffffffffffffffffffffffffffffffffffffffff021916908373ffffffffffffffffffffffffffffffffffffffff1602179055506200019a565b828054600181600116156101000203166002900490600052602060002090601f0160209004810192826200011c576000855562000168565b82601f106200013757805160ff191683800117855562000168565b8280016001018555821562000168579182015b82811115620001675782518255916020019190600101906200014a565b5b5090506200017791906200017b565b5090565b5b80821115620001965760008160009055506001016200017c565b5090565b61250780620001aa6000396000f3fe6080604052600436106101095760003560e01c8063b63204bc11610095578063df50cc1611610064578063df50cc1614610300578063e0f6ef871461033d578063e5e336b814610368578063e9300c6c14610384578063fa50abc6146103ad57610109565b8063b63204bc14610281578063c19d93fb1461029d578063c2ca0ac5146102c8578063cd772f5c146102e457610109565b806332246e9f116100dc57806332246e9f146101c857806338af3eed146101e457806338e76a031461020f5780637150d8ae1461022b5780639fb42aa71461025657610109565b806306fdde031461010e57806308551a53146101395780631b6b47f8146101645780632e1a7d4d146101ac575b600080fd5b34801561011a57600080fd5b506101236103c9565b6040516101309190612015565b60405180910390f35b34801561014557600080fd5b5061014e610467565b60405161015b9190611f9b565b60405180910390f35b34801561017057600080fd5b5061018b60048036038101906101869190611bb0565b61048d565b6040516101a39c9b9a99989796959493929190612074565b60405180910390f35b6101c660048036038101906101c19190611bb0565b6105ff565b005b6101e260048036038101906101dd9190611bb0565b6106f9565b005b3480156101f057600080fd5b506101f961081b565b6040516102069190611f9b565b60405180910390f35b61022960048036038101906102249190611bb0565b610841565b005b34801561023757600080fd5b50610240610a08565b60405161024d9190611f9b565b60405180910390f35b34801561026257600080fd5b5061026b610a2e565b6040516102789190612059565b60405180910390f35b61029b60048036038101906102969190611bd9565b610a34565b005b3480156102a957600080fd5b506102b2610b22565b6040516102bf9190611ffa565b60405180910390f35b6102e260048036038101906102dd9190611bb0565b610b35565b005b6102fe60048036038101906102f99190611b20565b610e74565b005b34801561030c57600080fd5b5061032760048036038101906103229190611ce3565b610f37565b6040516103349190612037565b60405180910390f35b34801561034957600080fd5b5061035261108b565b60405161035f9190612059565b60405180910390f35b610382600480360381019061037d9190611a75565b611091565b005b34801561039057600080fd5b506103ab60048036038101906103a69190611b5c565b61140b565b005b6103c760048036038101906103c29190611c54565b61156a565b005b60008054600181600116156101000203166002900480601f01602080910402602001604051908101604052809291908181526020018280546001816001161561010002031660029004801561045f5780601f106104345761010080835404028352916020019161045f565b820191906000526020600020905b81548152906001019060200180831161044257829003601f168201915b505050505081565b600260009054906101000a900473ffffffffffffffffffffffffffffffffffffffff1681565b6005602052806000526040600020600091509050806000015490806001018054600181600116156101000203166002900480601f01602080910402602001604051908101604052809291908181526020018280546001816001161561010002031660029004801561053f5780601f106105145761010080835404028352916020019161053f565b820191906000526020600020905b81548152906001019060200180831161052257829003601f168201915b5050505050908060020154908060030160009054906101000a900473ffffffffffffffffffffffffffffffffffffffff16908060040160009054906101000a900473ffffffffffffffffffffffffffffffffffffffff16908060040160149054906101000a900460ff16908060080154908060090160009054906101000a900460ff169080600a01549080600b01549080600c0160009054906101000a900473ffffffffffffffffffffffffffffffffffffffff169080600d015490508c565b600060056000838152602001908152602001600020905060008160070160003373ffffffffffffffffffffffffffffffffffffffff1673ffffffffffffffffffffffffffffffffffffffff16815260200190815260200160002054905060008111156106f45760008260070160003373ffffffffffffffffffffffffffffffffffffffff1673ffffffffffffffffffffffffffffffffffffffff168152602001908152602001600020819055503373ffffffffffffffffffffffffffffffffffffffff166108fc829081150290604051600060405180830381858888f193505050501580156106f2573d6000803e3d6000fd5b505b505050565b60006005600083815260200190815260200160002090508060090160009054906101000a900460ff161561072c57600080fd5b7fdaec4582d5d9595688c8c98545fdd1c696d41c6aeaeb636737e84ed2f5c00eda81600c0160009054906101000a900473ffffffffffffffffffffffffffffffffffffffff1682600d0154604051610785929190611fb6565b60405180910390a160018160090160006101000a81548160ff021916908315150217905550600460009054906101000a900473ffffffffffffffffffffffffffffffffffffffff1673ffffffffffffffffffffffffffffffffffffffff166108fc82600d01549081150290604051600060405180830381858888f19350505050158015610816573d6000803e3d6000fd5b505050565b600460009054906101000a900473ffffffffffffffffffffffffffffffffffffffff1681565b600060056000838152602001908152602001600020905060008160030160009054906101000a900473ffffffffffffffffffffffffffffffffffffffff1690506000826000015411801561089b5750600154826000015411155b6108a457600080fd5b81600201543410156108b557600080fd5b8160040160149054906101000a900460ff16156108d157600080fd5b3373ffffffffffffffffffffffffffffffffffffffff168173ffffffffffffffffffffffffffffffffffffffff16141561090a57600080fd5b338260030160006101000a81548173ffffffffffffffffffffffffffffffffffffffff021916908373ffffffffffffffffffffffffffffffffffffffff16021790555060018260040160146101000a81548160ff0219169083151502179055508073ffffffffffffffffffffffffffffffffffffffff166108fc349081150290604051600060405180830381858888f193505050501580156109b0573d6000803e3d6000fd5b507f79558d0d7d4d900e2f15c4cc0a665f1acdbe415e44de900ecdd1e5bf12b56f4e6001548360010184600201543360016040516109f295949392919061219d565b60405180910390a1610a03826115c0565b505050565b600360009054906101000a900473ffffffffffffffffffffffffffffffffffffffff1681565b60065481565b60006005600083815260200190815260200160002090508060060160003373ffffffffffffffffffffffffffffffffffffffff1673ffffffffffffffffffffffffffffffffffffffff168152602001908152602001600020604051806060016040528087815260200186151581526020018581525090806001815401808255809150506001900390600052602060002090600302016000909190919091506000820151816000015560208201518160010160006101000a81548160ff0219169083151502179055506040820151816002019080519060200190610b1892919061179a565b5050505050505050565b600760009054906101000a900460ff1681565b600060056000838152602001908152602001600020905060008160080154905060608167ffffffffffffffff81118015610b6e57600080fd5b50604051908082528060200260200182016040528015610b9d5781602001602082028036833780820191505090505b50905060608267ffffffffffffffff81118015610bb957600080fd5b50604051908082528060200260200182016040528015610be85781602001602082028036833780820191505090505b50905060608367ffffffffffffffff81118015610c0457600080fd5b50604051908082528060200260200182016040528015610c3857816020015b6060815260200190600190039081610c235790505b50905060005b84811015610e5f578560060160003373ffffffffffffffffffffffffffffffffffffffff1673ffffffffffffffffffffffffffffffffffffffff1681526020019081526020016000208181548110610c9257fe5b906000526020600020906003020160000154848281518110610cb057fe5b6020026020010181815250508560060160003373ffffffffffffffffffffffffffffffffffffffff1673ffffffffffffffffffffffffffffffffffffffff1681526020019081526020016000208181548110610d0857fe5b906000526020600020906003020160010160009054906101000a900460ff16838281518110610d3357fe5b6020026020010190151590811515815250508560060160003373ffffffffffffffffffffffffffffffffffffffff1673ffffffffffffffffffffffffffffffffffffffff1681526020019081526020016000208181548110610d9157fe5b90600052602060002090600302016002018054600181600116156101000203166002900480601f016020809104026020016040519081016040528092919081815260200182805460018160011615610100020316600290048015610e365780601f10610e0b57610100808354040283529160200191610e36565b820191906000526020600020905b815481529060010190602001808311610e1957829003601f168201915b5050505050828281518110610e4757fe5b60200260200101819052508080600101915050610c3e565b50610e6c83838389611091565b505050505050565b60006005600083815260200190815260200160002090508060050160003373ffffffffffffffffffffffffffffffffffffffff1673ffffffffffffffffffffffffffffffffffffffff168152602001908152602001600020604051806040016040528085815260200134815250908060018154018082558091505060019003906000526020600020906002020160009091909190915060008201518160000155602082015181600101555050600660008154809291906001019190505550505050565b610f3f611828565b60006005600085815260200190815260200160002090508060060160003373ffffffffffffffffffffffffffffffffffffffff1673ffffffffffffffffffffffffffffffffffffffff1681526020019081526020016000208381548110610fa257fe5b9060005260206000209060030201604051806060016040529081600082015481526020016001820160009054906101000a900460ff16151515158152602001600282018054600181600116156101000203166002900480601f0160208091040260200160405190810160405280929190818152602001828054600181600116156101000203166002900480156110795780601f1061104e57610100808354040283529160200191611079565b820191906000526020600020905b81548152906001019060200180831161105c57829003601f168201915b50505050508152505091505092915050565b60015481565b600060056000838152602001908152602001600020905060008160050160003373ffffffffffffffffffffffffffffffffffffffff1673ffffffffffffffffffffffffffffffffffffffff168152602001908152602001600020805490509050808651146110fe57600080fd5b8085511461110b57600080fd5b8084511461111857600080fd5b600080600090505b828110156113835760008460050160003373ffffffffffffffffffffffffffffffffffffffff1673ffffffffffffffffffffffffffffffffffffffff168152602001908152602001600020828154811061117657fe5b9060005260206000209060020201905060008060608b858151811061119757fe5b60200260200101518b86815181106111ab57fe5b60200260200101518b87815181106111bf57fe5b60200260200101519250925092508282826040516020016111e293929190611f47565b60405160208183030381529060405280519060200120846000015414611242577fdc55530f366a0bfc087ce251b8843eee7544b992be75e4c32c645d058a1e21a1336040516112319190611f80565b60405180910390a150505050611376565b836001015486019550811561128d577f74f13070e50416a85df7e6bfe7f48888d7c026a9cf531e4f13b84555a81441e0826040516112809190611fdf565b60405180910390a1611337565b7f410dbb8b54fa191201458b3e13b2d5743fbe5036056cd0f228131db2c12500bd826040516112bc9190611fdf565b60405180910390a17fb6b55f256c3eb337f96418d59e773db6e805074f5e574a2bebb7d7139404361984600101546040516112f79190612059565b60405180910390a17fe396c2fbbfcfe7f0e7a1f8d391c3c9f1b689c22f2227255be527e20b9404c1308360405161132e9190612059565b60405180910390a15b81158015611349575082846001015410155b156113655761135933848b6115cc565b156113645782860395505b5b6000801b8460000181905550505050505b8080600101915050611120565b503373ffffffffffffffffffffffffffffffffffffffff166108fc829081150290604051600060405180830381858888f193505050501580156113ca573d6000803e3d6000fd5b507fb43a48f4b5fe1b13780390dc7b039206c4f81535c0fda507c687d7e921eb18bb336040516113fa9190611f80565b60405180910390a150505050505050565b600082511161141957600080fd5b6000811161142657600080fd5b6001600081548092919060010191905055506000600560006001548152602001908152602001600020905060015481600001819055508281600101908051906020019061147492919061179a565b50818160020181905550338160030160006101000a81548173ffffffffffffffffffffffffffffffffffffffff021916908373ffffffffffffffffffffffffffffffffffffffff160217905550338160040160006101000a81548173ffffffffffffffffffffffffffffffffffffffff021916908373ffffffffffffffffffffffffffffffffffffffff16021790555060008160040160146101000a81548160ff0219169083151502179055507f181e50d5e9f602d3b5eaa51bec386c6ed248eda88ff15dd9c37c212376b7783860015484843360008060405161155d96959493929190612135565b60405180910390a1505050565b600060056000878152602001908152602001600020905080600a01544210156115b8576115978587610e74565b6115a384848489610a34565b80600801600081548092919060010191905055505b505050505050565b6115c98161174e565b50565b60008060056000848152602001908152602001600020905080600d015484116115f9576000915050611747565b600073ffffffffffffffffffffffffffffffffffffffff1681600c0160009054906101000a900473ffffffffffffffffffffffffffffffffffffffff1673ffffffffffffffffffffffffffffffffffffffff16146116c95780600d015481600701600083600c0160009054906101000a900473ffffffffffffffffffffffffffffffffffffffff1673ffffffffffffffffffffffffffffffffffffffff1673ffffffffffffffffffffffffffffffffffffffff168152602001908152602001600020600082825401925050819055505b8381600d01819055508481600c0160006101000a81548173ffffffffffffffffffffffffffffffffffffffff021916908373ffffffffffffffffffffffffffffffffffffffff1602179055507f94674a4ea63aea74100725e775ace66ffec6cfe9af2cd1da16a431ba5ce6860a60405160405180910390a160019150505b9392505050565b600081905060008160090160006101000a81548160ff021916908315150217905550600081600801819055506028420181600a0181905550603c81600a01540181600b01819055505050565b828054600181600116156101000203166002900490600052602060002090601f0160209004810192826117d05760008555611817565b82601f106117e957805160ff1916838001178555611817565b82800160010185558215611817579182015b828111156118165782518255916020019190600101906117fb565b5b509050611824919061184b565b5090565b604051806060016040528060008152602001600015158152602001606081525090565b5b8082111561186457600081600090555060010161184c565b5090565b600082601f83011261187957600080fd5b813561188c61188782612228565b6121f7565b915081818352602084019350602081019050838560208402820111156118b157600080fd5b60005b838110156118e157816118c788826119e2565b8452602084019350602083019250506001810190506118b4565b5050505092915050565b600082601f8301126118fc57600080fd5b813561190f61190a82612254565b6121f7565b9150818183526020840193506020810190508360005b83811015611955578135860161193b8882611a0c565b845260208401935060208301925050600181019050611925565b5050505092915050565b600082601f83011261197057600080fd5b813561198361197e82612280565b6121f7565b915081818352602084019350602081019050838560208402820111156119a857600080fd5b60005b838110156119d857816119be8882611a60565b8452602084019350602083019250506001810190506119ab565b5050505092915050565b6000813590506119f18161248c565b92915050565b600081359050611a06816124a3565b92915050565b600082601f830112611a1d57600080fd5b8135611a30611a2b826122ac565b6121f7565b91508082526020830160208301858383011115611a4c57600080fd5b611a578382846123e8565b50505092915050565b600081359050611a6f816124ba565b92915050565b60008060008060808587031215611a8b57600080fd5b600085013567ffffffffffffffff811115611aa557600080fd5b611ab18782880161195f565b945050602085013567ffffffffffffffff811115611ace57600080fd5b611ada87828801611868565b935050604085013567ffffffffffffffff811115611af757600080fd5b611b03878288016118eb565b9250506060611b1487828801611a60565b91505092959194509250565b60008060408385031215611b3357600080fd5b6000611b41858286016119f7565b9250506020611b5285828601611a60565b9150509250929050565b60008060408385031215611b6f57600080fd5b600083013567ffffffffffffffff811115611b8957600080fd5b611b9585828601611a0c565b9250506020611ba685828601611a60565b9150509250929050565b600060208284031215611bc257600080fd5b6000611bd084828501611a60565b91505092915050565b60008060008060808587031215611bef57600080fd5b6000611bfd87828801611a60565b9450506020611c0e878288016119e2565b935050604085013567ffffffffffffffff811115611c2b57600080fd5b611c3787828801611a0c565b9250506060611c4887828801611a60565b91505092959194509250565b600080600080600060a08688031215611c6c57600080fd5b6000611c7a88828901611a60565b9550506020611c8b888289016119f7565b9450506040611c9c88828901611a60565b9350506060611cad888289016119e2565b925050608086013567ffffffffffffffff811115611cca57600080fd5b611cd688828901611a0c565b9150509295509295909350565b60008060408385031215611cf657600080fd5b6000611d0485828601611a60565b9250506020611d1585828601611a60565b9150509250929050565b611d28816123a0565b82525050565b611d378161233b565b82525050565b611d4681612329565b82525050565b611d558161234d565b82525050565b611d648161234d565b82525050565b611d7b611d768261234d565b61242a565b82525050565b611d8a816123b2565b82525050565b6000611d9b826122f1565b611da581856122fc565b9350611db58185602086016123f7565b611dbe8161245a565b840191505092915050565b6000611dd4826122f1565b611dde818561230d565b9350611dee8185602086016123f7565b611df78161245a565b840191505092915050565b6000611e0d826122f1565b611e17818561231e565b9350611e278185602086016123f7565b80840191505092915050565b600081546001811660008114611e505760018114611e7657611eba565b607f6002830416611e61818761230d565b955060ff198316865260208601935050611eba565b60028204611e84818761230d565b9550611e8f856122dc565b60005b82811015611eb157815481890152600182019150602081019050611e92565b80880195505050505b505092915050565b6000606083016000830151611eda6000860182611f12565b506020830151611eed6020860182611d4c565b5060408301518482036040860152611f058282611d90565b9150508091505092915050565b611f1b81612396565b82525050565b611f2a81612396565b82525050565b611f41611f3c82612396565b61243c565b82525050565b6000611f538286611f30565b602082019150611f638285611d6a565b600182019150611f738284611e02565b9150819050949350505050565b6000602082019050611f956000830184611d1f565b92915050565b6000602082019050611fb06000830184611d2e565b92915050565b6000604082019050611fcb6000830185611d3d565b611fd86020830184611f21565b9392505050565b6000602082019050611ff46000830184611d5b565b92915050565b600060208201905061200f6000830184611d81565b92915050565b6000602082019050818103600083015261202f8184611dc9565b905092915050565b600060208201905081810360008301526120518184611ec2565b905092915050565b600060208201905061206e6000830184611f21565b92915050565b60006101808201905061208a600083018f611f21565b818103602083015261209c818e611dc9565b90506120ab604083018d611f21565b6120b8606083018c611d2e565b6120c5608083018b611d2e565b6120d260a083018a611d5b565b6120df60c0830189611f21565b6120ec60e0830188611d5b565b6120fa610100830187611f21565b612108610120830186611f21565b612116610140830185611d3d565b612124610160830184611f21565b9d9c50505050505050505050505050565b600060c08201905061214a6000830189611f21565b818103602083015261215c8188611dc9565b905061216b6040830187611f21565b6121786060830186611d2e565b6121856080830185611d5b565b61219260a0830184611d81565b979650505050505050565b600060a0820190506121b26000830188611f21565b81810360208301526121c48187611e33565b90506121d36040830186611f21565b6121e06060830185611d2e565b6121ed6080830184611d5b565b9695505050505050565b6000604051905081810181811067ffffffffffffffff8211171561221e5761221d612458565b5b8060405250919050565b600067ffffffffffffffff82111561224357612242612458565b5b602082029050602081019050919050565b600067ffffffffffffffff82111561226f5761226e612458565b5b602082029050602081019050919050565b600067ffffffffffffffff82111561229b5761229a612458565b5b602082029050602081019050919050565b600067ffffffffffffffff8211156122c7576122c6612458565b5b601f19601f8301169050602081019050919050565b60008190508160005260206000209050919050565b600081519050919050565b600082825260208201905092915050565b600082825260208201905092915050565b600081905092915050565b600061233482612376565b9050919050565b600061234682612376565b9050919050565b60008115159050919050565b6000819050919050565b600081905061237182612478565b919050565b600073ffffffffffffffffffffffffffffffffffffffff82169050919050565b6000819050919050565b60006123ab826123c4565b9050919050565b60006123bd82612363565b9050919050565b60006123cf826123d6565b9050919050565b60006123e182612376565b9050919050565b82818337600083830152505050565b60005b838110156124155780820151818401526020810190506123fa565b83811115612424576000848401525b50505050565b600061243582612446565b9050919050565b6000819050919050565b60006124518261246b565b9050919050565bfe5b6000601f19601f8301169050919050565b60008160f81b9050919050565b6004811061248957612488612458565b5b50565b6124958161234d565b81146124a057600080fd5b50565b6124ac81612359565b81146124b757600080fd5b50565b6124c381612396565b81146124ce57600080fd5b5056fea264697066735822122021def3503de54ece778ac02f6873e8d4b3808739a4ec818ec5589d48a7ee39f164736f6c63430007040033",
  "immutableReferences": {},
  "source": "// SPDX-License-Identifier: GL2PS License\npragma solidity 0.7.4;\npragma experimental ABIEncoderV2;\n/*\n * The above statement is mandatory\n * as it enables support for two levels\n * of dynamic arrays .\n */\n\n\ncontract eShop {\n    string public name;\n    uint public productCount = 0;\n    //uint value;//value == price\n\n    //Safely Remote\n    address payable public seller;\n    address payable public buyer;\n\n    //BlindAuction\n    address payable public beneficiary;//seller\n\n    mapping(uint => ProductWithBids) public internalProducts;\n\n    //mapping(address => Bid[]) public bids;\n    //mapping(address => SecretBids[]) public nakedBids;\n    uint public globalBidsCount = 0;\n\n    // Allowed withdrawals of previous bids\n    //mapping(address => uint) pendingReturns;\n\n    enum State {Created, Locked, Release, Inactive}\n    // The state variable has a default value of the first member(Created)\n    State public state;\n\n    modifier onlyBefore(uint _time) {require(block.timestamp < _time);\n        _;}\n    modifier onlyAfter(uint _time) {require(block.timestamp > _time);\n        _;}\n    //modified modifiers TODO\n    //    modifier onlyBefore(uint _time) {require(block.timestamp < _time);\n    //        _;}\n    //    modifier onlyAfter(uint _time) {require(block.timestamp > _time);\n    //        _;}\n\n    modifier condition(bool _condition) {\n        require(_condition);\n        _;\n    }\n\n    modifier onlyBuyer() {\n        require(\n            msg.sender == buyer,\n            \"Only buyer can call this.\"\n        );\n        _;\n    }\n\n    modifier onlySeller() {\n        require(\n            msg.sender == seller,\n            \"Only seller can call this.\"\n        );\n        _;\n    }\n\n    modifier inState(State _state) {\n        require(\n            state == _state,\n            \"Invalid state.\"\n        );\n        _;\n    }\n\n    struct Bid {\n        bytes32 blindedBid;\n        uint deposit;\n    }\n\n    struct SecretBids {\n        uint values;\n        bool fake;\n        string secret;\n    }\n\n    struct ProductWithBids {\n        uint id;\n        string name;\n        uint price;\n        address payable owner;\n        address payable beneficiary;\n        bool purchased;\n\n        mapping(address => Bid[]) bids;\n        mapping(address => SecretBids[]) nakedBids;\n        // Allowed withdrawals of previous bids\n        mapping(address => uint) pendingReturns;\n\n        uint bidsCount;\n\n        bool ended;\n        uint biddingEnd;\n        uint revealEnd;\n\n        address highestBidder;\n        uint highestBid;\n    }\n\n\n    event ProductCreated(\n        uint id,\n        string name,\n        uint price,\n        address payable owner,\n        bool purchased,\n        State state\n    );\n\n    event ProductPurchased(\n        uint id,\n        string name,\n        uint price,\n        address payable owner,\n        bool purchased\n    );\n\n    //Events for enforcing the safety\n    event Aborted();\n    event PurchaseConfirmed();\n    event ItemReceived();\n    event SellerRefunded();\n\n    event isTrue(bool flag);\n    event isFalse(bool flag);\n    event deposit(uint value);\n    event depositValue(uint value);\n    event IWillReturnTrue();\n    event DidNotMeetRequireYet();\n    event NotRevealedYet(address refunded);\n    event AuctionEnded(address winner, uint highestBid);\n    event NewAuctionBegins();\n    event Revealed(address refunded);\n\n    // Ensure that `msg.value` is an even number.\n    // Division will truncate if it is an odd number.\n    // Check via multiplication that it wasn't an odd number\n    constructor() payable {\n        name = \"Dapp eShop\";\n        seller = msg.sender;\n        beneficiary = msg.sender;\n    }\n\n    function checkBidding(\n        uint _id,\n        bytes32 _blindedBid,\n        uint _values,\n        bool _fake,\n        string memory _secret\n    )\n    public\n    payable {\n        ProductWithBids storage newProduct = internalProducts[_id];\n        //onlyBefore\n        if (block.timestamp < newProduct.biddingEnd) {\n            bid(_blindedBid, _id);\n            pushNakedBids(\n                _values,\n                _fake,\n                _secret,\n                _id\n            );\n            newProduct.bidsCount++;\n        }\n    }\n\n    function setAuctionVars(ProductWithBids storage product) internal {\n        // We cannot use \"campaigns[campaignID] = Campaign(beneficiary, goal, 0, 0)\"\n        // because the RHS creates a memory-struct \"Campaign\" that contains a mapping.\n        // productWithBidsCount++;\n        ProductWithBids storage newProduct = product;\n\n        newProduct.ended = false;\n        newProduct.bidsCount = 0;\n        newProduct.biddingEnd = block.timestamp + 40;\n        newProduct.revealEnd = newProduct.biddingEnd + 60;\n        //        bidsCount = 0;\n    }\n\n    /// Place a blinded bid with `_blindedBid` =\n    /// keccak256(abi.encodePacked(value, fake, secret)).\n    /// The sent ether is only refunded if the bid is correctly\n    /// revealed in the revealing phase. The bid is valid if the\n    /// ether sent together with the bid is at least \"value\" and\n    /// \"fake\" is not true. Setting \"fake\" to true and sending\n    /// not the exact amount are ways to hide the real bid but\n    /// still make the required deposit. The same address can\n    /// place multiple bids.\n    function bid(bytes32 _blindedBid, uint id)\n    public\n    payable\n        //onlyBefore(biddingEnd) TODO\n    {\n        ProductWithBids storage newProduct = internalProducts[id];\n\n        newProduct.bids[msg.sender].push(Bid({\n        blindedBid : _blindedBid,\n        deposit : msg.value\n        }));\n\n        globalBidsCount++;\n    }\n\n    function pushNakedBids(\n        uint _values,\n        bool _fake,\n        string memory _secret,\n        uint id\n    )\n    public\n    payable\n    {\n        ProductWithBids storage newProduct = internalProducts[id];\n\n        newProduct.nakedBids[msg.sender].push(SecretBids({\n        values : _values,\n        fake : _fake,\n        secret : _secret\n        }));\n    }\n\n    ///secret is just the required string for the matching encoding\n    /// Reveal your blinded bids. You will get a refund for all\n    /// correctly blinded invalid bids and for all bids except for\n    /// the totally highest.\n    function revealInternal(\n        uint[] memory _values,\n        bool[] memory _fake,\n        string[] memory _secret,\n        uint _id\n    )\n    public\n    payable\n        //onlyAfter(biddingEnd) TODO Uncomment it\n        //onlyBefore(revealEnd) TODO Uncomment it\n    {\n        ProductWithBids storage newProduct = internalProducts[_id];\n\n        uint length = newProduct.bids[msg.sender].length;\n        require(_values.length == length);\n        require(_fake.length == length);\n        require(_secret.length == length);\n\n        uint refund;\n        for (uint i = 0; i < length; i++) {\n            Bid storage bidToCheck = newProduct.bids[msg.sender][i];\n            (uint value, bool fake, string memory secret) =\n            (_values[i], _fake[i], _secret[i]);\n            if (bidToCheck.blindedBid != keccak256(abi.encodePacked(value, fake, secret))) {\n                // Bid was not actually revealed.\n                // Do not refund deposit.\n                emit NotRevealedYet(msg.sender);\n                continue;\n            }\n            refund += bidToCheck.deposit;\n            //TODO never goes in if, Investigate\n            if (fake) {\n                emit isTrue(fake);//TODO isTrue\n            } else {\n                emit isFalse(fake);\n                emit deposit(bidToCheck.deposit);\n                emit depositValue(value);\n            }\n            if (!fake && bidToCheck.deposit >= value) {\n                if (placeBid(msg.sender, value, _id))\n                    refund -= value;\n            }\n            // Make it impossible for the sender to re-claim\n            // the same deposit.\n            bidToCheck.blindedBid = bytes32(0);\n        }\n        msg.sender.transfer(refund);\n        //emit event\n        emit Revealed(msg.sender);\n    }\n\n    /// Withdraw a bid that was overbid.\n    //This cant be called by js?3\n    function withdraw(uint _id) public payable {\n        ProductWithBids storage newProduct = internalProducts[_id];\n        uint amount = newProduct.pendingReturns[msg.sender];\n        if (amount > 0) {\n            // It is important to set this to zero because the recipient\n            // can call this function again as part of the receiving call\n            // before `transfer` returns (see the remark above about\n            // conditions -> effects -> interaction).\n            newProduct.pendingReturns[msg.sender] = 0;\n\n            msg.sender.transfer(amount);\n        }\n    }\n\n    /// End the auction and send the highest bid\n    /// to the beneficiary.\n    function auctionEnd(uint _id)\n    public\n    payable\n        //onlyAfter(revealEnd)\n    {\n        ProductWithBids storage currentProduct = internalProducts[_id];\n\n        require(!currentProduct.ended);\n        emit AuctionEnded(\n            currentProduct.highestBidder,\n            currentProduct.highestBid\n        );\n        currentProduct.ended = true;\n        beneficiary.transfer(currentProduct.highestBid);\n    }\n\n    // This is an \"internal\" function which means that it\n    // can only be called from the contract itself (or from\n    // derived contracts).\n    function placeBid(address bidder, uint value, uint id) internal\n    returns (bool success)\n    {\n        ProductWithBids storage newProduct = internalProducts[id];\n\n        if (value <= newProduct.highestBid) {\n            return false;\n        }\n        if (newProduct.highestBidder != address(0)) {\n            // Refund the previously highest bidder.\n            newProduct.pendingReturns[newProduct.highestBidder] += newProduct.highestBid;\n        }\n        newProduct.highestBid = value;\n        newProduct.highestBidder = bidder;\n        emit IWillReturnTrue();\n        return true;\n    }\n    //End of BlindAuction\n\n\n    function createProduct(string memory _name, uint _price) public {\n        //Require a names\n        require(bytes(_name).length > 0);\n        //Require a valid price\n        require(_price > 0);\n        //increase product productCount\n        productCount ++;\n        /*\n         * Note how in all the functions, a struct type is assigned to\n         * a local variable with data location storage. This does not copy\n         * the struct but only stores a reference so that assignments\n         * to members of the local variable actually write to the state.\n        */\n        ProductWithBids storage newProduct = internalProducts[productCount];\n        //create the product\n        newProduct.id = productCount;\n        newProduct.name = _name;\n        newProduct.price = _price;\n        newProduct.owner = msg.sender;\n        newProduct.beneficiary = msg.sender;\n        newProduct.purchased = false;\n        //newProduct.state = State.Created;\n        //trigger an event\n        emit ProductCreated(productCount, _name, _price, msg.sender, false, State.Created);\n    }\n\n    function beginAuction(ProductWithBids storage product) internal {\n        // We cannot use \"campaigns[campaignID] = Campaign(beneficiary, goal, 0, 0)\"\n        // because the RHS creates a memory-struct \"Campaign\" that contains a mapping.\n        // productWithBidsCount++;\n        //ProductWithBids storage newProduct = product;\n\n        //TODO modify it so it can support multiple auctions at the same time.\n\n        setAuctionVars(product);\n    }\n\n    function purchaseProduct(uint _id) public payable {\n        //Fetch the Product\n        ProductWithBids storage _product = internalProducts[_id];\n        //Fetch the owner\n        address payable _seller = _product.owner;\n        //Make sure the product has valid id\n        require(_product.id > 0 && _product.id <= productCount);\n        //Require that there is enough Ether in the transaction\n        require(msg.value >= _product.price);\n        //Require that the product has not been purchased already\n        require(!_product.purchased);\n        //Require that the buyer is not the _seller\n        require(_seller != msg.sender);\n        //Transfer ownership to the buyer\n        _product.owner = msg.sender;\n        //Mark as purchasedProduct\n        _product.purchased = true;\n        //Pay the seller by sending them Ether\n        _seller.transfer(msg.value);\n        //trigger an event\n        emit ProductPurchased(productCount, _product.name, _product.price, msg.sender, true);\n        //..beginAuction\n        beginAuction(_product);\n    }\n\n    /*\n     * Bulk access/returns to lists/arrays/etc in\n     * solidity is not supported at this moment.\n     */\n    //public getter\n    //TODO\n    function getNakedBids(uint _id, uint key)\n    public\n    view\n    returns (SecretBids memory) {\n        ProductWithBids storage selectedProduct = internalProducts[_id];\n        return selectedProduct.nakedBids[msg.sender][key];\n    }\n\n    /*\n     * main function responsible for revealing\n     * the bids.\n     */\n    function reveal(\n        uint _id\n    )\n    public\n    payable\n        //onlyAfter(biddingEnd) TODO Uncomment it\n        //onlyBefore(revealEnd) TODO Uncomment it\n    {\n        //TODO retrieve nakedBids\n        ProductWithBids storage selectedProduct = internalProducts[_id];\n        uint count = selectedProduct.bidsCount;\n\n        uint[] memory values = new uint[](count);\n        bool[] memory fake = new bool[](count);\n        string[] memory secret = new string[](count);\n\n        for (uint i = 0; i < count; i++) {\n            //            usersBids[i] = getNakedBids(_id, i);TODO throws error\n            values[i] = selectedProduct.nakedBids[msg.sender][i].values;\n            fake[i] = selectedProduct.nakedBids[msg.sender][i].fake;\n            secret[i] = selectedProduct.nakedBids[msg.sender][i].secret;\n        }\n\n        //TODO call revealInternal\n        revealInternal(\n            values,\n            fake,\n            secret,\n            _id\n        );\n    }\n\n\n}\n\n\n\n\n\n\n\n\n\n\n\n\n\n\n\n\n\n\n\n\n\n\n",
  "sourcePath": "/home/flexyusr/workspaces/GeorgePap-719/Blockchain/BlockChainEshop/src/contracts/eShop.sol",
  "compiler": {
    "name": "solc",
    "version": "0.7.4+commit.3f05b770.Emscripten.clang"
  },
  "schemaVersion": "3.3.4",
  "updatedAt": "2021-03-23T09:42:14.036Z",
  "networkType": "ethereum",
  "devdoc": {
    "kind": "dev",
    "methods": {},
    "version": 1
  },
  "userdoc": {
    "kind": "user",
    "methods": {
      "auctionEnd(uint256)": {
        "notice": "End the auction and send the highest bid to the beneficiary."
      },
      "bid(bytes32,uint256)": {
        "notice": "Place a blinded bid with `_blindedBid` = keccak256(abi.encodePacked(value, fake, secret)). The sent ether is only refunded if the bid is correctly revealed in the revealing phase. The bid is valid if the ether sent together with the bid is at least \"value\" and \"fake\" is not true. Setting \"fake\" to true and sending not the exact amount are ways to hide the real bid but still make the required deposit. The same address can place multiple bids."
      },
      "revealInternal(uint256[],bool[],string[],uint256)": {
        "notice": "secret is just the required string for the matching encoding Reveal your blinded bids. You will get a refund for all correctly blinded invalid bids and for all bids except for the totally highest."
      },
      "withdraw(uint256)": {
        "notice": "Withdraw a bid that was overbid."
      }
    },
    "version": 1
  }
}