{
  "contractName": "eShop",
  "abi": [
    {
      "inputs": [],
      "stateMutability": "payable",
      "type": "constructor",
      "payable": true
    },
    {
      "anonymous": false,
      "inputs": [],
      "name": "Aborted",
      "type": "event"
    },
    {
      "anonymous": false,
      "inputs": [
        {
          "indexed": false,
          "internalType": "address",
          "name": "winner",
          "type": "address"
        },
        {
          "indexed": false,
          "internalType": "uint256",
          "name": "highestBid",
          "type": "uint256"
        }
      ],
      "name": "AuctionEnded",
      "type": "event"
    },
    {
      "anonymous": false,
      "inputs": [],
      "name": "ItemReceived",
      "type": "event"
    },
    {
      "anonymous": false,
      "inputs": [],
      "name": "NewAuctionBegins",
      "type": "event"
    },
    {
      "anonymous": false,
      "inputs": [
        {
          "indexed": false,
          "internalType": "uint256",
          "name": "id",
          "type": "uint256"
        },
        {
          "indexed": false,
          "internalType": "string",
          "name": "name",
          "type": "string"
        },
        {
          "indexed": false,
          "internalType": "uint256",
          "name": "price",
          "type": "uint256"
        },
        {
          "indexed": false,
          "internalType": "address payable",
          "name": "owner",
          "type": "address"
        },
        {
          "indexed": false,
          "internalType": "bool",
          "name": "purchased",
          "type": "bool"
        },
        {
          "indexed": false,
          "internalType": "enum eShop.State",
          "name": "state",
          "type": "uint8"
        }
      ],
      "name": "ProductCreated",
      "type": "event"
    },
    {
      "anonymous": false,
      "inputs": [
        {
          "indexed": false,
          "internalType": "uint256",
          "name": "id",
          "type": "uint256"
        },
        {
          "indexed": false,
          "internalType": "string",
          "name": "name",
          "type": "string"
        },
        {
          "indexed": false,
          "internalType": "uint256",
          "name": "price",
          "type": "uint256"
        },
        {
          "indexed": false,
          "internalType": "address payable",
          "name": "owner",
          "type": "address"
        },
        {
          "indexed": false,
          "internalType": "bool",
          "name": "purchased",
          "type": "bool"
        }
      ],
      "name": "ProductPurchased",
      "type": "event"
    },
    {
      "anonymous": false,
      "inputs": [],
      "name": "PurchaseConfirmed",
      "type": "event"
    },
    {
      "anonymous": false,
      "inputs": [],
      "name": "SellerRefunded",
      "type": "event"
    },
    {
      "inputs": [],
      "name": "beneficiary",
      "outputs": [
        {
          "internalType": "address payable",
          "name": "",
          "type": "address"
        }
      ],
      "stateMutability": "view",
      "type": "function",
      "constant": true
    },
    {
      "inputs": [],
      "name": "biddingEnd",
      "outputs": [
        {
          "internalType": "uint256",
          "name": "",
          "type": "uint256"
        }
      ],
      "stateMutability": "view",
      "type": "function",
      "constant": true
    },
    {
      "inputs": [
        {
          "internalType": "address",
          "name": "",
          "type": "address"
        },
        {
          "internalType": "uint256",
          "name": "",
          "type": "uint256"
        }
      ],
      "name": "bids",
      "outputs": [
        {
          "internalType": "bytes32",
          "name": "blindedBid",
          "type": "bytes32"
        },
        {
          "internalType": "uint256",
          "name": "deposit",
          "type": "uint256"
        }
      ],
      "stateMutability": "view",
      "type": "function",
      "constant": true
    },
    {
      "inputs": [],
      "name": "buyer",
      "outputs": [
        {
          "internalType": "address payable",
          "name": "",
          "type": "address"
        }
      ],
      "stateMutability": "view",
      "type": "function",
      "constant": true
    },
    {
      "inputs": [],
      "name": "ended",
      "outputs": [
        {
          "internalType": "bool",
          "name": "",
          "type": "bool"
        }
      ],
      "stateMutability": "view",
      "type": "function",
      "constant": true
    },
    {
      "inputs": [],
      "name": "highestBid",
      "outputs": [
        {
          "internalType": "uint256",
          "name": "",
          "type": "uint256"
        }
      ],
      "stateMutability": "view",
      "type": "function",
      "constant": true
    },
    {
      "inputs": [],
      "name": "highestBidder",
      "outputs": [
        {
          "internalType": "address",
          "name": "",
          "type": "address"
        }
      ],
      "stateMutability": "view",
      "type": "function",
      "constant": true
    },
    {
      "inputs": [
        {
          "internalType": "uint256",
          "name": "",
          "type": "uint256"
        }
      ],
      "name": "internalProducts",
      "outputs": [
        {
          "internalType": "uint256",
          "name": "id",
          "type": "uint256"
        },
        {
          "internalType": "string",
          "name": "name",
          "type": "string"
        },
        {
          "internalType": "uint256",
          "name": "price",
          "type": "uint256"
        },
        {
          "internalType": "address payable",
          "name": "owner",
          "type": "address"
        },
        {
          "internalType": "address payable",
          "name": "beneficiary",
          "type": "address"
        },
        {
          "internalType": "bool",
          "name": "purchased",
          "type": "bool"
        },
        {
          "internalType": "enum eShop.State",
          "name": "state",
          "type": "uint8"
        },
        {
          "internalType": "uint256",
          "name": "biddingEnd",
          "type": "uint256"
        },
        {
          "internalType": "uint256",
          "name": "revealEnd",
          "type": "uint256"
        },
        {
          "internalType": "bool",
          "name": "ended",
          "type": "bool"
        },
        {
          "internalType": "bool",
          "name": "biddingTime",
          "type": "bool"
        },
        {
          "internalType": "bool",
          "name": "revealTime",
          "type": "bool"
        }
      ],
      "stateMutability": "view",
      "type": "function",
      "constant": true
    },
    {
      "inputs": [],
      "name": "name",
      "outputs": [
        {
          "internalType": "string",
          "name": "",
          "type": "string"
        }
      ],
      "stateMutability": "view",
      "type": "function",
      "constant": true
    },
    {
      "inputs": [],
      "name": "productCount",
      "outputs": [
        {
          "internalType": "uint256",
          "name": "",
          "type": "uint256"
        }
      ],
      "stateMutability": "view",
      "type": "function",
      "constant": true
    },
    {
      "inputs": [
        {
          "internalType": "uint256",
          "name": "",
          "type": "uint256"
        }
      ],
      "name": "products",
      "outputs": [
        {
          "internalType": "uint256",
          "name": "id",
          "type": "uint256"
        },
        {
          "internalType": "string",
          "name": "name",
          "type": "string"
        },
        {
          "internalType": "uint256",
          "name": "price",
          "type": "uint256"
        },
        {
          "internalType": "address payable",
          "name": "owner",
          "type": "address"
        },
        {
          "internalType": "bool",
          "name": "purchased",
          "type": "bool"
        },
        {
          "internalType": "enum eShop.State",
          "name": "state",
          "type": "uint8"
        },
        {
          "internalType": "uint256",
          "name": "biddingTime",
          "type": "uint256"
        },
        {
          "internalType": "uint256",
          "name": "revealTime",
          "type": "uint256"
        }
      ],
      "stateMutability": "view",
      "type": "function",
      "constant": true
    },
    {
      "inputs": [],
      "name": "revealEnd",
      "outputs": [
        {
          "internalType": "uint256",
          "name": "",
          "type": "uint256"
        }
      ],
      "stateMutability": "view",
      "type": "function",
      "constant": true
    },
    {
      "inputs": [],
      "name": "seller",
      "outputs": [
        {
          "internalType": "address payable",
          "name": "",
          "type": "address"
        }
      ],
      "stateMutability": "view",
      "type": "function",
      "constant": true
    },
    {
      "inputs": [],
      "name": "state",
      "outputs": [
        {
          "internalType": "enum eShop.State",
          "name": "",
          "type": "uint8"
        }
      ],
      "stateMutability": "view",
      "type": "function",
      "constant": true
    },
    {
      "inputs": [
        {
          "internalType": "uint256",
          "name": "_biddingTime",
          "type": "uint256"
        },
        {
          "internalType": "uint256",
          "name": "_revealTime",
          "type": "uint256"
        }
      ],
      "name": "newAuction",
      "outputs": [],
      "stateMutability": "nonpayable",
      "type": "function"
    },
    {
      "inputs": [
        {
          "internalType": "bytes32",
          "name": "_blindedBid",
          "type": "bytes32"
        }
      ],
      "name": "bid",
      "outputs": [],
      "stateMutability": "payable",
      "type": "function",
      "payable": true
    },
    {
      "inputs": [
        {
          "internalType": "uint256[]",
          "name": "_values",
          "type": "uint256[]"
        },
        {
          "internalType": "bool[]",
          "name": "_fake",
          "type": "bool[]"
        },
        {
          "internalType": "bytes32[]",
          "name": "_secret",
          "type": "bytes32[]"
        }
      ],
      "name": "reveal",
      "outputs": [],
      "stateMutability": "nonpayable",
      "type": "function"
    },
    {
      "inputs": [],
      "name": "withdraw",
      "outputs": [],
      "stateMutability": "nonpayable",
      "type": "function"
    },
    {
      "inputs": [],
      "name": "auctionEnd",
      "outputs": [],
      "stateMutability": "nonpayable",
      "type": "function"
    },
    {
      "inputs": [
        {
          "internalType": "string",
          "name": "_name",
          "type": "string"
        },
        {
          "internalType": "uint256",
          "name": "_price",
          "type": "uint256"
        }
      ],
      "name": "createProduct",
      "outputs": [],
      "stateMutability": "nonpayable",
      "type": "function"
    },
    {
      "inputs": [
        {
          "internalType": "uint256",
          "name": "_id",
          "type": "uint256"
        }
      ],
      "name": "purchaseProduct",
      "outputs": [],
      "stateMutability": "payable",
      "type": "function",
      "payable": true
    },
    {
      "inputs": [
        {
          "internalType": "uint256",
          "name": "_id",
          "type": "uint256"
        },
        {
          "internalType": "uint256",
          "name": "_biddingEnd",
          "type": "uint256"
        }
      ],
      "name": "updateBiddingEnd",
      "outputs": [],
      "stateMutability": "nonpayable",
      "type": "function"
    }
  ],
  "bytecode": "0x608060405260006001556040518060400160405280600a81526020017f44617070206553686f700000000000000000000000000000000000000000000081525060009080519060200190620000569291906200016c565b5033600460006101000a81548173ffffffffffffffffffffffffffffffffffffffff021916908373ffffffffffffffffffffffffffffffffffffffff16021790555033600660006101000a81548173ffffffffffffffffffffffffffffffffffffffff021916908373ffffffffffffffffffffffffffffffffffffffff16021790555060023481620000e457fe5b04600381905550346003546002021462000166576040517f08c379a00000000000000000000000000000000000000000000000000000000081526004018080602001828103825260158152602001807f56616c75652068617320746f206265206576656e2e000000000000000000000081525060200191505060405180910390fd5b62000222565b828054600181600116156101000203166002900490600052602060002090601f016020900481019282620001a45760008555620001f0565b82601f10620001bf57805160ff1916838001178555620001f0565b82800160010185558215620001f0579182015b82811115620001ef578251825591602001919060010190620001d2565b5b509050620001ff919062000203565b5090565b5b808211156200021e57600081600090555060010162000204565b5090565b611aed80620002326000396000f3fe6080604052600436106101355760003560e01c8063791c8256116100ab5780639645bae51161006f5780639645bae5146108a0578063a6e66477146108e5578063c19d93fb14610910578063d57bde7914610946578063e0f6ef8714610971578063e9300c6c1461099c57610135565b8063791c8256146104f75780637acc0b201461053c578063900f080a1461064457806391f9015714610831578063957bb1e01461087257610135565b80632a24f46c116100fd5780632a24f46c146103ee57806338af3eed1461040557806338e76a03146104465780633ccfd60b14610474578063423b217f1461048b5780637150d8ae146104b657610135565b806301495c1c1461013a57806306fdde03146101b057806308551a531461024057806312fa6feb146102815780631b6b47f8146102ae575b600080fd5b34801561014657600080fd5b506101936004803603604081101561015d57600080fd5b81019080803573ffffffffffffffffffffffffffffffffffffffff16906020019092919080359060200190929190505050610a6e565b604051808381526020018281526020019250505060405180910390f35b3480156101bc57600080fd5b506101c5610aaf565b6040518080602001828103825283818151815260200191508051906020019080838360005b838110156102055780820151818401526020810190506101ea565b50505050905090810190601f1680156102325780820380516001836020036101000a031916815260200191505b509250505060405180910390f35b34801561024c57600080fd5b50610255610b4d565b604051808273ffffffffffffffffffffffffffffffffffffffff16815260200191505060405180910390f35b34801561028d57600080fd5b50610296610b73565b60405180821515815260200191505060405180910390f35b3480156102ba57600080fd5b506102e7600480360360208110156102d157600080fd5b8101908080359060200190929190505050610b86565b604051808d8152602001806020018c81526020018b73ffffffffffffffffffffffffffffffffffffffff1681526020018a73ffffffffffffffffffffffffffffffffffffffff168152602001891515815260200188600381111561034757fe5b815260200187815260200186815260200185151581526020018415158152602001831515815260200182810382528d818151815260200191508051906020019080838360005b838110156103a857808201518184015260208101905061038d565b50505050905090810190601f1680156103d55780820380516001836020036101000a031916815260200191505b509d505050505050505050505050505060405180910390f35b3480156103fa57600080fd5b50610403610cff565b005b34801561041157600080fd5b5061041a610e2a565b604051808273ffffffffffffffffffffffffffffffffffffffff16815260200191505060405180910390f35b6104726004803603602081101561045c57600080fd5b8101908080359060200190929190505050610e50565b005b34801561048057600080fd5b506104896110c9565b005b34801561049757600080fd5b506104a06111a6565b6040518082815260200191505060405180910390f35b3480156104c257600080fd5b506104cb6111ac565b604051808273ffffffffffffffffffffffffffffffffffffffff16815260200191505060405180910390f35b34801561050357600080fd5b5061053a6004803603604081101561051a57600080fd5b8101908080359060200190929190803590602001909291905050506111d2565b005b34801561054857600080fd5b506105756004803603602081101561055f57600080fd5b81019080803590602001909291905050506111f7565b60405180898152602001806020018881526020018773ffffffffffffffffffffffffffffffffffffffff16815260200186151581526020018560038111156105b957fe5b8152602001848152602001838152602001828103825289818151815260200191508051906020019080838360005b838110156106025780820151818401526020810190506105e7565b50505050905090810190601f16801561062f5780820380516001836020036101000a031916815260200191505b50995050505050505050505060405180910390f35b34801561065057600080fd5b5061082f6004803603606081101561066757600080fd5b810190808035906020019064010000000081111561068457600080fd5b82018360208201111561069657600080fd5b803590602001918460208302840111640100000000831117156106b857600080fd5b919080806020026020016040519081016040528093929190818152602001838360200280828437600081840152601f19601f8201169050808301925050505050505091929192908035906020019064010000000081111561071857600080fd5b82018360208201111561072a57600080fd5b8035906020019184602083028401116401000000008311171561074c57600080fd5b919080806020026020016040519081016040528093929190818152602001838360200280828437600081840152601f19601f820116905080830192505050505050509192919290803590602001906401000000008111156107ac57600080fd5b8201836020820111156107be57600080fd5b803590602001918460208302840111640100000000831117156107e057600080fd5b919080806020026020016040519081016040528093929190818152602001838360200280828437600081840152601f19601f820116905080830192505050505050509192919290505050611311565b005b34801561083d57600080fd5b50610846611544565b604051808273ffffffffffffffffffffffffffffffffffffffff16815260200191505060405180910390f35b61089e6004803603602081101561088857600080fd5b810190808035906020019092919050505061156a565b005b3480156108ac57600080fd5b506108e3600480360360408110156108c357600080fd5b810190808035906020019092919080359060200190929190505050611610565b005b3480156108f157600080fd5b506108fa611654565b6040518082815260200191505060405180910390f35b34801561091c57600080fd5b5061092561165a565b6040518082600381111561093557fe5b815260200191505060405180910390f35b34801561095257600080fd5b5061095b61166d565b6040518082815260200191505060405180910390f35b34801561097d57600080fd5b50610986611673565b6040518082815260200191505060405180910390f35b3480156109a857600080fd5b50610a6c600480360360408110156109bf57600080fd5b81019080803590602001906401000000008111156109dc57600080fd5b8201836020820111156109ee57600080fd5b80359060200191846001830284011164010000000083111715610a1057600080fd5b91908080601f016020809104026020016040519081016040528093929190818152602001838380828437600081840152601f19601f82011690508083019250505050505050919291929080359060200190929190505050611679565b005b600b6020528160005260406000208181548110610a8a57600080fd5b9060005260206000209060020201600091509150508060000154908060010154905082565b60008054600181600116156101000203166002900480601f016020809104026020016040519081016040528092919081815260200182805460018160011615610100020316600290048015610b455780601f10610b1a57610100808354040283529160200191610b45565b820191906000526020600020905b815481529060010190602001808311610b2857829003601f168201915b505050505081565b600460009054906101000a900473ffffffffffffffffffffffffffffffffffffffff1681565b600960009054906101000a900460ff1681565b600a602052806000526040600020600091509050806000015490806001018054600181600116156101000203166002900480601f016020809104026020016040519081016040528092919081815260200182805460018160011615610100020316600290048015610c385780601f10610c0d57610100808354040283529160200191610c38565b820191906000526020600020905b815481529060010190602001808311610c1b57829003601f168201915b5050505050908060020154908060030160009054906101000a900473ffffffffffffffffffffffffffffffffffffffff16908060040160009054906101000a900473ffffffffffffffffffffffffffffffffffffffff16908060040160149054906101000a900460ff16908060040160159054906101000a900460ff16908060060154908060070154908060080160009054906101000a900460ff16908060080160019054906101000a900460ff16908060080160029054906101000a900460ff1690508c565b600854804211610d0e57600080fd5b600960009054906101000a900460ff1615610d2857600080fd5b7fdaec4582d5d9595688c8c98545fdd1c696d41c6aeaeb636737e84ed2f5c00eda600c60009054906101000a900473ffffffffffffffffffffffffffffffffffffffff16600d54604051808373ffffffffffffffffffffffffffffffffffffffff1681526020018281526020019250505060405180910390a16001600960006101000a81548160ff021916908315150217905550600660009054906101000a900473ffffffffffffffffffffffffffffffffffffffff1673ffffffffffffffffffffffffffffffffffffffff166108fc600d549081150290604051600060405180830381858888f19350505050158015610e26573d6000803e3d6000fd5b5050565b600660009054906101000a900473ffffffffffffffffffffffffffffffffffffffff1681565b6000600a6000838152602001908152602001600020905060008160030160009054906101000a900473ffffffffffffffffffffffffffffffffffffffff16905060008260000154118015610eaa5750600154826000015411155b610eb357600080fd5b8160020154341015610ec457600080fd5b8160040160149054906101000a900460ff1615610ee057600080fd5b3373ffffffffffffffffffffffffffffffffffffffff168173ffffffffffffffffffffffffffffffffffffffff161415610f1957600080fd5b338260030160006101000a81548173ffffffffffffffffffffffffffffffffffffffff021916908373ffffffffffffffffffffffffffffffffffffffff16021790555060018260040160146101000a81548160ff0219169083151502179055508073ffffffffffffffffffffffffffffffffffffffff166108fc349081150290604051600060405180830381858888f19350505050158015610fbf573d6000803e3d6000fd5b507f79558d0d7d4d900e2f15c4cc0a665f1acdbe415e44de900ecdd1e5bf12b56f4e60015483600101846002015433600160405180868152602001806020018581526020018473ffffffffffffffffffffffffffffffffffffffff16815260200183151581526020018281038252868181546001816001161561010002031660029004815260200191508054600181600116156101000203166002900480156110a95780601f1061107e576101008083540402835291602001916110a9565b820191906000526020600020905b81548152906001019060200180831161108c57829003601f168201915b5050965050505050505060405180910390a16110c4826118a4565b505050565b6000600e60003373ffffffffffffffffffffffffffffffffffffffff1673ffffffffffffffffffffffffffffffffffffffff16815260200190815260200160002054905060008111156111a3576000600e60003373ffffffffffffffffffffffffffffffffffffffff1673ffffffffffffffffffffffffffffffffffffffff168152602001908152602001600020819055503373ffffffffffffffffffffffffffffffffffffffff166108fc829081150290604051600060405180830381858888f193505050501580156111a1573d6000803e3d6000fd5b505b50565b60075481565b600560009054906101000a900473ffffffffffffffffffffffffffffffffffffffff1681565b6000600a60008481526020019081526020016000209050818160060181905550505050565b6002602052806000526040600020600091509050806000015490806001018054600181600116156101000203166002900480601f0160208091040260200160405190810160405280929190818152602001828054600181600116156101000203166002900480156112a95780601f1061127e576101008083540402835291602001916112a9565b820191906000526020600020905b81548152906001019060200180831161128c57829003601f168201915b5050505050908060020154908060030160009054906101000a900473ffffffffffffffffffffffffffffffffffffffff16908060030160149054906101000a900460ff16908060030160159054906101000a900460ff16908060040154908060050154905088565b60075480421161132057600080fd5b60085480421061132f57600080fd5b6000600b60003373ffffffffffffffffffffffffffffffffffffffff1673ffffffffffffffffffffffffffffffffffffffff1681526020019081526020016000208054905090508086511461138357600080fd5b8085511461139057600080fd5b8084511461139d57600080fd5b600080600090505b828110156114f3576000600b60003373ffffffffffffffffffffffffffffffffffffffff1673ffffffffffffffffffffffffffffffffffffffff16815260200190815260200160002082815481106113f957fe5b9060005260206000209060020201905060008060008b858151811061141a57fe5b60200260200101518b868151811061142e57fe5b60200260200101518b878151811061144257fe5b60200260200101519250925092508282826040516020018084815260200183151560f81b815260010182815260200193505050506040516020818303038152906040528051906020012084600001541461149f57505050506114e6565b836001015486019550811580156114ba575082846001015410155b156114d5576114c933846118dd565b156114d45782860395505b5b6000801b8460000181905550505050505b80806001019150506113a5565b503373ffffffffffffffffffffffffffffffffffffffff166108fc829081150290604051600060405180830381858888f1935050505015801561153a573d6000803e3d6000fd5b5050505050505050565b600c60009054906101000a900473ffffffffffffffffffffffffffffffffffffffff1681565b60075480421061157957600080fd5b600b60003373ffffffffffffffffffffffffffffffffffffffff1673ffffffffffffffffffffffffffffffffffffffff1681526020019081526020016000206040518060400160405280848152602001348152509080600181540180825580915050600190039060005260206000209060020201600090919091909150600082015181600001556020820151816001015550505050565b7f01abca8b1fa21a00a7628a46e1e2c7bd9929c014a47741d62554e4e0088eb5be60405160405180910390a181420160078190555080600754016008819055505050565b60085481565b600f60009054906101000a900460ff1681565b600d5481565b60015481565b600082511161168757600080fd5b6000811161169457600080fd5b6001600081548092919060010191905055506000600a6000600154815260200190815260200160002090506001548160000181905550828160010190805190602001906116e2929190611a0c565b50818160020181905550338160030160006101000a81548173ffffffffffffffffffffffffffffffffffffffff021916908373ffffffffffffffffffffffffffffffffffffffff160217905550338160040160006101000a81548173ffffffffffffffffffffffffffffffffffffffff021916908373ffffffffffffffffffffffffffffffffffffffff16021790555060008160040160146101000a81548160ff02191690831515021790555060008160040160156101000a81548160ff021916908360038111156117b057fe5b02179055507f181e50d5e9f602d3b5eaa51bec386c6ed248eda88ff15dd9c37c212376b7783860015484843360008060405180878152602001806020018681526020018573ffffffffffffffffffffffffffffffffffffffff168152602001841515815260200183600381111561182357fe5b8152602001828103825287818151815260200191508051906020019080838360005b83811015611860578082015181840152602081019050611845565b50505050905090810190601f16801561188d5780820380516001836020036101000a031916815260200191505b5097505050505050505060405180910390a1505050565b6000819050603c8160060181905550603c8160060154018160070181905550806006015460078190555080600701546008819055505050565b6000600d5482116118f15760009050611a06565b600073ffffffffffffffffffffffffffffffffffffffff16600c60009054906101000a900473ffffffffffffffffffffffffffffffffffffffff1673ffffffffffffffffffffffffffffffffffffffff16146119b957600d54600e6000600c60009054906101000a900473ffffffffffffffffffffffffffffffffffffffff1673ffffffffffffffffffffffffffffffffffffffff1673ffffffffffffffffffffffffffffffffffffffff168152602001908152602001600020600082825401925050819055505b81600d8190555082600c60006101000a81548173ffffffffffffffffffffffffffffffffffffffff021916908373ffffffffffffffffffffffffffffffffffffffff160217905550600190505b92915050565b828054600181600116156101000203166002900490600052602060002090601f016020900481019282611a425760008555611a89565b82601f10611a5b57805160ff1916838001178555611a89565b82800160010185558215611a89579182015b82811115611a88578251825591602001919060010190611a6d565b5b509050611a969190611a9a565b5090565b5b80821115611ab3576000816000905550600101611a9b565b509056fea264697066735822122091ce012602e206a51d631c86e8f683913006f8fe5ddd68a0f773abd359b9d0cf64736f6c63430007040033",
  "immutableReferences": {},
  "source": "// SPDX-License-Identifier: GL2PS License\n\npragma solidity 0.7.4;\n\n//import \"./BlindAuction.sol\";\n\ncontract eShop {\n    string public name;\n    uint public productCount = 0;\n    mapping(uint => Product) public products;\n    uint value;//value == price\n\n    //Safely Remote\n    address payable public seller;\n    address payable public buyer;\n    //Check if its preferable to transfer\n    //the safety mechanism in another contract TODO\n\n    //BlindAuction\n    address payable public beneficiary;//seller\n    uint public biddingEnd;\n    uint public revealEnd;\n    bool public ended;\n    // uint public productWithBidsCount = 0;\n    mapping(uint => ProductWithBids) public internalProducts;\n\n    mapping(address => Bid[]) public bids;\n\n    address public highestBidder;\n    uint public highestBid;\n\n    // Allowed withdrawals of previous bids\n    mapping(address => uint) pendingReturns;\n\n    enum State {Created, Locked, Release, Inactive}\n    // The state variable has a default value of the first member(Created)\n    State public state;\n\n    modifier onlyBefore(uint _time) {require(block.timestamp < _time);\n        _;}\n    modifier onlyAfter(uint _time) {require(block.timestamp > _time);\n        _;}\n    //modified modifiers TODO\n    //    modifier onlyBefore(uint _time) {require(block.timestamp < _time);\n    //        _;}\n    //    modifier onlyAfter(uint _time) {require(block.timestamp > _time);\n    //        _;}\n\n    modifier condition(bool _condition) {\n        require(_condition);\n        _;\n    }\n\n    modifier onlyBuyer() {\n        require(\n            msg.sender == buyer,\n            \"Only buyer can call this.\"\n        );\n        _;\n    }\n\n    modifier onlySeller() {\n        require(\n            msg.sender == seller,\n            \"Only seller can call this.\"\n        );\n        _;\n    }\n\n    modifier inState(State _state) {\n        require(\n            state == _state,\n            \"Invalid state.\"\n        );\n        _;\n    }\n\n    struct Bid {\n        bytes32 blindedBid;\n        uint deposit;\n    }\n\n    struct Product {\n        uint id;\n        string name;\n        uint price;\n        address payable owner;\n        bool purchased;\n        State state;\n        uint biddingTime;\n        uint revealTime;\n    }\n\n    struct ProductWithBids {\n        uint id;\n        string name;\n        uint price;\n        address payable owner;\n        address payable beneficiary;\n        bool purchased;\n        State state;\n        mapping(address => Bid[]) bids;\n        uint biddingEnd;\n        uint revealEnd;\n        bool ended;\n        bool biddingTime;\n        bool revealTime;\n    }\n\n\n    event ProductCreated(\n        uint id,\n        string name,\n        uint price,\n        address payable owner,\n        bool purchased,\n        State state\n    );\n\n    event ProductPurchased(\n        uint id,\n        string name,\n        uint price,\n        address payable owner,\n        bool purchased\n    );\n\n    //Events for enforcing the safety\n    event Aborted();\n    event PurchaseConfirmed();\n    event ItemReceived();\n    event SellerRefunded();\n\n    event AuctionEnded(address winner, uint highestBid);\n    event NewAuctionBegins();\n\n    // Ensure that `msg.value` is an even number.\n    // Division will truncate if it is an odd number.\n    // Check via multiplication that it wasn't an odd number\n    constructor() payable {\n        name = \"Dapp eShop\";\n        seller = msg.sender;\n        beneficiary = msg.sender;\n        value = msg.value / 2;\n        require((2 * value) == msg.value, \"Value has to be even.\");\n    }\n\n    //BlindAuction Contract\n    function newAuction(\n        uint _biddingTime,\n        uint _revealTime\n    //        address payable _beneficiary\n    )\n    public\n    {\n        emit NewAuctionBegins();\n        //        beneficiary = _beneficiary;\n        biddingEnd = block.timestamp + _biddingTime;\n        revealEnd = biddingEnd + _revealTime;\n    }\n\n    /// Place a blinded bid with `_blindedBid` =\n    /// keccak256(abi.encodePacked(value, fake, secret)).\n    /// The sent ether is only refunded if the bid is correctly\n    /// revealed in the revealing phase. The bid is valid if the\n    /// ether sent together with the bid is at least \"value\" and\n    /// \"fake\" is not true. Setting \"fake\" to true and sending\n    /// not the exact amount are ways to hide the real bid but\n    /// still make the required deposit. The same address can\n    /// place multiple bids.\n    function bid(bytes32 _blindedBid)\n    public\n    payable\n    onlyBefore(biddingEnd)\n    {\n        bids[msg.sender].push(Bid({\n            blindedBid : _blindedBid,\n            deposit : msg.value\n            }));\n    }\n\n    /// Reveal your blinded bids. You will get a refund for all\n    /// correctly blinded invalid bids and for all bids except for\n    /// the totally highest.\n    function reveal(\n        uint[] memory _values,\n        bool[] memory _fake,\n        bytes32[] memory _secret\n    )\n    public\n    onlyAfter(biddingEnd)\n    onlyBefore(revealEnd)\n    {\n        uint length = bids[msg.sender].length;\n        require(_values.length == length);\n        require(_fake.length == length);\n        require(_secret.length == length);\n\n        uint refund;\n        for (uint i = 0; i < length; i++) {\n            Bid storage bidToCheck = bids[msg.sender][i];\n            (uint value, bool fake, bytes32 secret) =\n            (_values[i], _fake[i], _secret[i]);\n            if (bidToCheck.blindedBid != keccak256(abi.encodePacked(value, fake, secret))) {\n                // Bid was not actually revealed.\n                // Do not refund deposit.\n                continue;\n            }\n            refund += bidToCheck.deposit;\n            if (!fake && bidToCheck.deposit >= value) {\n                if (placeBid(msg.sender, value))\n                    refund -= value;\n            }\n            // Make it impossible for the sender to re-claim\n            // the same deposit.\n            bidToCheck.blindedBid = bytes32(0);\n        }\n        msg.sender.transfer(refund);\n    }\n\n    /// Withdraw a bid that was overbid.\n    //This cant be called by js?\n    function withdraw() public {\n        uint amount = pendingReturns[msg.sender];\n        if (amount > 0) {\n            // It is important to set this to zero because the recipient\n            // can call this function again as part of the receiving call\n            // before `transfer` returns (see the remark above about\n            // conditions -> effects -> interaction).\n            pendingReturns[msg.sender] = 0;\n\n            msg.sender.transfer(amount);\n        }\n    }\n\n    /// End the auction and send the highest bid\n    /// to the beneficiary.\n    // Maybe only the seller can call this?\n    // TODO\n    //Or let the js call this\n    function auctionEnd()\n    public\n    onlyAfter(revealEnd)\n    {\n        require(!ended);\n        emit AuctionEnded(highestBidder, highestBid);\n        ended = true;\n        beneficiary.transfer(highestBid);\n    }\n\n    // This is an \"internal\" function which means that it\n    // can only be called from the contract itself (or from\n    // derived contracts).\n    function placeBid(address bidder, uint value) internal\n    returns (bool success)\n    {\n        if (value <= highestBid) {\n            return false;\n        }\n        if (highestBidder != address(0)) {\n            // Refund the previously highest bidder.\n            pendingReturns[highestBidder] += highestBid;\n        }\n        highestBid = value;\n        highestBidder = bidder;\n        return true;\n    }\n\n    //End of BlindAuction\n\n    /// Abort the purchase and reclaim the ether.\n    /// Can only be called by the seller before\n    /// the contract is locked.\n//    function abort()\n//    public\n//    onlySeller\n//    inState(State.Created)\n//    {\n//        emit Aborted();\n//        state = State.Inactive;\n//        // We use transfer here directly. It is\n//        // repentantly-safe, because it is the\n//        // last call in this function and we\n//        // already changed the state.\n//        seller.transfer(address(this).balance);\n//    }\n\n//    //Internal function so we can set the auction for the new\n//    //Item\n//    //TODO unused argument\n//    function newAuctionInit(address payable _beneficiary) internal {\n//        //        uint _biddingTime = 60;\n//        //        uint _revealTime = 15;\n//        //        //Call the BlindAuction contract method TODO\n//        //        // newAuction(_biddingTime, _revealTime, _beneficiary)\n//        //        BlindAuction blindAuction = new BlindAuction();\n//        //        blindAuction.newAuction(\n//        //            _biddingTime,\n//        //            _revealTime\n//        //        //            _beneficiary\n//        //        );\n//\n//    }\n\n//    /// Confirm the purchase as buyer.\n//    /// Transaction has to include `2 * value` ether.\n//    /// The ether will be locked until confirmReceived\n//    /// is called.\n//    //Note: i will change this , to be able to be called\n//    //by both parties , so the buyer can have some avtual\n//    //time to change his time and abort the transaction\n//    function confirmPurchase(uint _id)\n//    public\n//    inState(State.Created)\n//    condition(msg.value == (2 * value))\n//    payable\n//    {\n//        emit PurchaseConfirmed();\n//        buyer = msg.sender;\n//        state = State.Locked;\n//    }\n\n//    /// Confirm that you (the buyer) received the item.\n//    /// This will release the locked ether.\n//    function confirmReceived()\n//    public\n//    onlyBuyer\n//    inState(State.Locked)\n//    {\n//        emit ItemReceived();\n//        // It is important to change the state first because\n//        // otherwise, the contracts called using `send` below\n//        // can call in again here.\n//        state = State.Release;\n//\n//        buyer.transfer(value);\n//    }\n\n//    /// This function refunds the seller, i.e.\n//    /// pays back the locked funds of the seller.\n//    function refundSeller()\n//    public\n//    onlySeller\n//    inState(State.Release)\n//    {\n//        emit SellerRefunded();\n//        // It is important to change the state first because\n//        // otherwise, the contracts called using `send` below\n//        // can call in again here.\n//        state = State.Inactive;\n//\n//        seller.transfer(3 * value);\n//    }\n\n    function createProduct(string memory _name, uint _price) public {\n        //Require a names\n        require(bytes(_name).length > 0);\n        //Require a valid price\n        require(_price > 0);\n        //increase product productCount\n        productCount ++;\n        //create the product\n        //        products[productCount] = Product(\n        //            productCount,\n        //            _name,\n        //            _price,\n        //            msg.sender,\n        //            false,\n        //            State.Created);\n\n\n        /*\n         * Note how in all the functions, a struct type is assigned to\n         * a local variable with data location storage. This does not copy\n         * the struct but only stores a reference so that assignments\n         * to members of the local variable actually write to the state.\n        */\n\n        ProductWithBids storage newProduct = internalProducts[productCount];\n        //create the product\n        newProduct.id = productCount;\n        newProduct.name = _name;\n        newProduct.price = _price;\n        newProduct.owner = msg.sender;\n        newProduct.beneficiary = msg.sender;\n        newProduct.purchased = false;\n        newProduct.state = State.Created;\n\n        //trigger an event\n        emit ProductCreated(productCount, _name, _price, msg.sender, false, State.Created);\n\n        //Seller must also pay 2*value of the product he lists. TODO\n    }\n\n    function beginAuction(ProductWithBids storage product) internal {\n        //\n        // We cannot use \"campaigns[campaignID] = Campaign(beneficiary, goal, 0, 0)\"\n        // because the RHS creates a memory-struct \"Campaign\" that contains a mapping.\n        // productWithBidsCount++;\n        ProductWithBids storage newProduct = product;\n\n        //init new Auction\n        newProduct.biddingEnd =  60; //block.timestamp + 60\n        newProduct.revealEnd = newProduct.biddingEnd + 60;\n\n        //TODO modify it so it can support multiple auctions at the same time.\n        biddingEnd = newProduct.biddingEnd;\n        revealEnd = newProduct.revealEnd;\n\n\n    }\n\n    function purchaseProduct(uint _id) public payable {\n        //Fetch the Product\n        ProductWithBids storage _product = internalProducts[_id];\n        //Fetch the owner\n        address payable _seller = _product.owner;\n        //Make sure the product has valid id\n        require(_product.id > 0 && _product.id <= productCount);\n        //Require that there is enough Ether in the transaction\n        require(msg.value >= _product.price);\n        //Require that the product has not been purchased already\n        require(!_product.purchased);\n        //Require that the buyer is not the _seller\n        require(_seller != msg.sender);\n        //Transfer ownership to the buyer\n        _product.owner = msg.sender;\n        //Mark as purchasedProduct\n        _product.purchased = true;\n        //update the product maybe we dont need it anymore cause of storage type\n        //internalProducts[_id] = _product;\n        //Pay the seller by sending them Ether\n        _seller.transfer(msg.value);\n        //trigger an event\n        emit ProductPurchased(productCount, _product.name, _product.price, msg.sender, true);\n\n        //..beginAuction\n        beginAuction(_product);\n\n    }\n\n    //Public setter\n    function updateBiddingEnd(uint _id, uint _biddingEnd) public {\n        //Fetch the Product\n        ProductWithBids storage product = internalProducts[_id];\n        //updateTheBidding\n        product.biddingEnd = _biddingEnd;\n    }\n\n\n\n\n\n\n\n\n}\n\n// TODO eshop\n",
  "sourcePath": "/home/geopapadopoulos/BlockChainTestsAndProjects/eshopBlockchain/src/contracts/eShop.sol",
  "compiler": {
    "name": "solc",
    "version": "0.7.4+commit.3f05b770.Emscripten.clang"
  },
  "schemaVersion": "3.3.2",
  "updatedAt": "2020-11-17T13:01:39.322Z",
  "networkType": "ethereum",
  "devdoc": {
    "kind": "dev",
    "methods": {},
    "version": 1
  },
  "userdoc": {
    "kind": "user",
    "methods": {
      "auctionEnd()": {
        "notice": "End the auction and send the highest bid to the beneficiary."
      },
      "bid(bytes32)": {
        "notice": "Place a blinded bid with `_blindedBid` = keccak256(abi.encodePacked(value, fake, secret)). The sent ether is only refunded if the bid is correctly revealed in the revealing phase. The bid is valid if the ether sent together with the bid is at least \"value\" and \"fake\" is not true. Setting \"fake\" to true and sending not the exact amount are ways to hide the real bid but still make the required deposit. The same address can place multiple bids."
      },
      "createProduct(string,uint256)": {
        "notice": "Abort the purchase and reclaim the ether. Can only be called by the seller before the contract is locked."
      },
      "reveal(uint256[],bool[],bytes32[])": {
        "notice": "Reveal your blinded bids. You will get a refund for all correctly blinded invalid bids and for all bids except for the totally highest."
      },
      "withdraw()": {
        "notice": "Withdraw a bid that was overbid."
      }
    },
    "version": 1
  }
}