{
  "contractName": "eShop",
  "abi": [
    {
      "inputs": [],
      "stateMutability": "payable",
      "type": "constructor",
      "payable": true
    },
    {
      "anonymous": false,
      "inputs": [
        {
          "indexed": false,
          "internalType": "address",
          "name": "winner",
          "type": "address"
        },
        {
          "indexed": false,
          "internalType": "uint256",
          "name": "highestBid",
          "type": "uint256"
        }
      ],
      "name": "AuctionEnded",
      "type": "event"
    },
    {
      "anonymous": false,
      "inputs": [],
      "name": "DidNotMeetRequireYet",
      "type": "event"
    },
    {
      "anonymous": false,
      "inputs": [],
      "name": "IWillReturnTrue",
      "type": "event"
    },
    {
      "anonymous": false,
      "inputs": [],
      "name": "NewAuctionBegins",
      "type": "event"
    },
    {
      "anonymous": false,
      "inputs": [
        {
          "indexed": false,
          "internalType": "address",
          "name": "refunded",
          "type": "address"
        }
      ],
      "name": "NotRevealedYet",
      "type": "event"
    },
    {
      "anonymous": false,
      "inputs": [
        {
          "indexed": false,
          "internalType": "uint256",
          "name": "id",
          "type": "uint256"
        },
        {
          "indexed": false,
          "internalType": "string",
          "name": "name",
          "type": "string"
        },
        {
          "indexed": false,
          "internalType": "uint256",
          "name": "price",
          "type": "uint256"
        },
        {
          "indexed": false,
          "internalType": "address payable",
          "name": "owner",
          "type": "address"
        },
        {
          "indexed": false,
          "internalType": "bool",
          "name": "purchased",
          "type": "bool"
        }
      ],
      "name": "ProductCreated",
      "type": "event"
    },
    {
      "anonymous": false,
      "inputs": [
        {
          "indexed": false,
          "internalType": "uint256",
          "name": "id",
          "type": "uint256"
        },
        {
          "indexed": false,
          "internalType": "string",
          "name": "name",
          "type": "string"
        },
        {
          "indexed": false,
          "internalType": "uint256",
          "name": "price",
          "type": "uint256"
        },
        {
          "indexed": false,
          "internalType": "address payable",
          "name": "owner",
          "type": "address"
        },
        {
          "indexed": false,
          "internalType": "bool",
          "name": "purchased",
          "type": "bool"
        }
      ],
      "name": "ProductPurchased",
      "type": "event"
    },
    {
      "anonymous": false,
      "inputs": [
        {
          "indexed": false,
          "internalType": "address",
          "name": "refunded",
          "type": "address"
        }
      ],
      "name": "Revealed",
      "type": "event"
    },
    {
      "anonymous": false,
      "inputs": [
        {
          "indexed": false,
          "internalType": "uint256",
          "name": "value",
          "type": "uint256"
        }
      ],
      "name": "deposit",
      "type": "event"
    },
    {
      "anonymous": false,
      "inputs": [
        {
          "indexed": false,
          "internalType": "uint256",
          "name": "value",
          "type": "uint256"
        }
      ],
      "name": "depositValue",
      "type": "event"
    },
    {
      "anonymous": false,
      "inputs": [
        {
          "indexed": false,
          "internalType": "bool",
          "name": "flag",
          "type": "bool"
        }
      ],
      "name": "isFalse",
      "type": "event"
    },
    {
      "anonymous": false,
      "inputs": [
        {
          "indexed": false,
          "internalType": "bool",
          "name": "flag",
          "type": "bool"
        }
      ],
      "name": "isTrue",
      "type": "event"
    },
    {
      "inputs": [],
      "name": "beneficiary",
      "outputs": [
        {
          "internalType": "address payable",
          "name": "",
          "type": "address"
        }
      ],
      "stateMutability": "view",
      "type": "function",
      "constant": true
    },
    {
      "inputs": [],
      "name": "globalBidsCount",
      "outputs": [
        {
          "internalType": "uint256",
          "name": "",
          "type": "uint256"
        }
      ],
      "stateMutability": "view",
      "type": "function",
      "constant": true
    },
    {
      "inputs": [
        {
          "internalType": "uint256",
          "name": "",
          "type": "uint256"
        }
      ],
      "name": "internalProducts",
      "outputs": [
        {
          "internalType": "uint256",
          "name": "id",
          "type": "uint256"
        },
        {
          "internalType": "string",
          "name": "name",
          "type": "string"
        },
        {
          "internalType": "uint256",
          "name": "price",
          "type": "uint256"
        },
        {
          "internalType": "address payable",
          "name": "owner",
          "type": "address"
        },
        {
          "internalType": "address payable",
          "name": "beneficiary",
          "type": "address"
        },
        {
          "internalType": "bool",
          "name": "purchased",
          "type": "bool"
        },
        {
          "internalType": "uint256",
          "name": "bidsCount",
          "type": "uint256"
        },
        {
          "internalType": "bool",
          "name": "ended",
          "type": "bool"
        },
        {
          "internalType": "uint256",
          "name": "biddingEnd",
          "type": "uint256"
        },
        {
          "internalType": "uint256",
          "name": "revealEnd",
          "type": "uint256"
        },
        {
          "internalType": "address payable",
          "name": "lowestBidder",
          "type": "address"
        },
        {
          "internalType": "uint256",
          "name": "lowestBid",
          "type": "uint256"
        }
      ],
      "stateMutability": "view",
      "type": "function",
      "constant": true
    },
    {
      "inputs": [],
      "name": "name",
      "outputs": [
        {
          "internalType": "string",
          "name": "",
          "type": "string"
        }
      ],
      "stateMutability": "view",
      "type": "function",
      "constant": true
    },
    {
      "inputs": [],
      "name": "productCount",
      "outputs": [
        {
          "internalType": "uint256",
          "name": "",
          "type": "uint256"
        }
      ],
      "stateMutability": "view",
      "type": "function",
      "constant": true
    },
    {
      "inputs": [
        {
          "internalType": "uint256",
          "name": "",
          "type": "uint256"
        }
      ],
      "name": "transportDeposit",
      "outputs": [
        {
          "internalType": "uint256",
          "name": "",
          "type": "uint256"
        }
      ],
      "stateMutability": "view",
      "type": "function",
      "constant": true
    },
    {
      "inputs": [
        {
          "internalType": "string",
          "name": "_name",
          "type": "string"
        },
        {
          "internalType": "uint256",
          "name": "_price",
          "type": "uint256"
        }
      ],
      "name": "createProduct",
      "outputs": [],
      "stateMutability": "payable",
      "type": "function",
      "payable": true
    },
    {
      "inputs": [
        {
          "internalType": "uint256",
          "name": "_id",
          "type": "uint256"
        }
      ],
      "name": "purchaseProduct",
      "outputs": [],
      "stateMutability": "payable",
      "type": "function",
      "payable": true
    },
    {
      "inputs": [
        {
          "internalType": "uint256",
          "name": "_id",
          "type": "uint256"
        },
        {
          "internalType": "bytes32",
          "name": "_blindedBid",
          "type": "bytes32"
        },
        {
          "internalType": "uint256",
          "name": "_values",
          "type": "uint256"
        },
        {
          "internalType": "bool",
          "name": "_fake",
          "type": "bool"
        },
        {
          "internalType": "string",
          "name": "_secret",
          "type": "string"
        }
      ],
      "name": "checkBidding",
      "outputs": [],
      "stateMutability": "payable",
      "type": "function",
      "payable": true
    },
    {
      "inputs": [
        {
          "internalType": "bytes32",
          "name": "_blindedBid",
          "type": "bytes32"
        },
        {
          "internalType": "uint256",
          "name": "id",
          "type": "uint256"
        }
      ],
      "name": "bid",
      "outputs": [],
      "stateMutability": "payable",
      "type": "function",
      "payable": true
    },
    {
      "inputs": [
        {
          "internalType": "uint256",
          "name": "_values",
          "type": "uint256"
        },
        {
          "internalType": "bool",
          "name": "_fake",
          "type": "bool"
        },
        {
          "internalType": "string",
          "name": "_secret",
          "type": "string"
        },
        {
          "internalType": "uint256",
          "name": "id",
          "type": "uint256"
        }
      ],
      "name": "pushNakedBids",
      "outputs": [],
      "stateMutability": "payable",
      "type": "function",
      "payable": true
    },
    {
      "inputs": [
        {
          "internalType": "uint256[]",
          "name": "_values",
          "type": "uint256[]"
        },
        {
          "internalType": "bool[]",
          "name": "_fake",
          "type": "bool[]"
        },
        {
          "internalType": "string[]",
          "name": "_secret",
          "type": "string[]"
        },
        {
          "internalType": "uint256",
          "name": "_id",
          "type": "uint256"
        }
      ],
      "name": "revealInternal",
      "outputs": [],
      "stateMutability": "payable",
      "type": "function",
      "payable": true
    },
    {
      "inputs": [
        {
          "internalType": "uint256",
          "name": "_id",
          "type": "uint256"
        }
      ],
      "name": "withdraw",
      "outputs": [],
      "stateMutability": "payable",
      "type": "function",
      "payable": true
    },
    {
      "inputs": [
        {
          "internalType": "uint256",
          "name": "_id",
          "type": "uint256"
        }
      ],
      "name": "auctionEnd",
      "outputs": [],
      "stateMutability": "payable",
      "type": "function",
      "payable": true
    },
    {
      "inputs": [
        {
          "internalType": "uint256",
          "name": "_id",
          "type": "uint256"
        }
      ],
      "name": "reveal",
      "outputs": [],
      "stateMutability": "payable",
      "type": "function",
      "payable": true
    },
    {
      "inputs": [
        {
          "internalType": "address payable",
          "name": "_seller",
          "type": "address"
        },
        {
          "internalType": "uint256",
          "name": "_id",
          "type": "uint256"
        }
      ],
      "name": "refundSeller",
      "outputs": [],
      "stateMutability": "payable",
      "type": "function",
      "payable": true
    }
  ],
  "bytecode": "0x6080604052600060015560006006556040518060400160405280600a81526020017f44617070206553686f7000000000000000000000000000000000000000000000815250600090805190602001906200005b92919062000062565b5062000118565b828054600181600116156101000203166002900490600052602060002090601f0160209004810192826200009a5760008555620000e6565b82601f10620000b557805160ff1916838001178555620000e6565b82800160010185558215620000e6579182015b82811115620000e5578251825591602001919060010190620000c8565b5b509050620000f59190620000f9565b5090565b5b8082111562000114576000816000905550600101620000fa565b5090565b61260580620001286000396000f3fe6080604052600436106100f35760003560e01c80639fb42aa71161008a578063e0f6ef8711610059578063e0f6ef87146102c2578063e5e336b8146102ed578063e9300c6c14610309578063fa50abc614610325576100f3565b80639fb42aa714610243578063b63204bc1461026e578063c2ca0ac51461028a578063cd772f5c146102a6576100f3565b806332246e9f116100c657806332246e9f146101a357806338af3eed146101bf57806338e76a03146101ea57806398262d3b14610206576100f3565b806306fdde03146100f85780631b6b47f8146101235780632e1a7d4d1461016b5780632e7d821d14610187575b600080fd5b34801561010457600080fd5b5061010d610341565b60405161011a9190612128565b60405180910390f35b34801561012f57600080fd5b5061014a60048036038101906101459190611cf9565b6103df565b6040516101629c9b9a999897969594939291906121c5565b60405180910390f35b61018560048036038101906101809190611cf9565b610551565b005b6101a1600480360381019061019c9190611b82565b61064b565b005b6101bd60048036038101906101b89190611cf9565b6106d7565b005b3480156101cb57600080fd5b506101d46108a3565b6040516101e191906120c9565b60405180910390f35b61020460048036038101906101ff9190611cf9565b6108c9565b005b34801561021257600080fd5b5061022d60048036038101906102289190611cf9565b610a90565b60405161023a91906121aa565b60405180910390f35b34801561024f57600080fd5b50610258610aa8565b60405161026591906121aa565b60405180910390f35b61028860048036038101906102839190611d22565b610aae565b005b6102a4600480360381019061029f9190611cf9565b610b9c565b005b6102c060048036038101906102bb9190611c69565b610f67565b005b3480156102ce57600080fd5b506102d761102a565b6040516102e491906121aa565b60405180910390f35b61030760048036038101906103029190611bbe565b611030565b005b610323600480360381019061031e9190611ca5565b6113ca565b005b61033f600480360381019061033a9190611d9d565b611566565b005b60008054600181600116156101000203166002900480601f0160208091040260200160405190810160405280929190818152602001828054600181600116156101000203166002900480156103d75780601f106103ac576101008083540402835291602001916103d7565b820191906000526020600020905b8154815290600101906020018083116103ba57829003601f168201915b505050505081565b6004602052806000526040600020600091509050806000015490806001018054600181600116156101000203166002900480601f0160208091040260200160405190810160405280929190818152602001828054600181600116156101000203166002900480156104915780601f1061046657610100808354040283529160200191610491565b820191906000526020600020905b81548152906001019060200180831161047457829003601f168201915b5050505050908060020154908060030160009054906101000a900473ffffffffffffffffffffffffffffffffffffffff16908060040160009054906101000a900473ffffffffffffffffffffffffffffffffffffffff16908060040160149054906101000a900460ff16908060080154908060090160009054906101000a900460ff169080600a01549080600b01549080600c0160009054906101000a900473ffffffffffffffffffffffffffffffffffffffff169080600d015490508c565b600060046000838152602001908152602001600020905060008160070160003373ffffffffffffffffffffffffffffffffffffffff1673ffffffffffffffffffffffffffffffffffffffff16815260200190815260200160002054905060008111156106465760008260070160003373ffffffffffffffffffffffffffffffffffffffff1673ffffffffffffffffffffffffffffffffffffffff168152602001908152602001600020819055503373ffffffffffffffffffffffffffffffffffffffff166108fc829081150290604051600060405180830381858888f19350505050158015610644573d6000803e3d6000fd5b505b505050565b60006003600083815260200190815260200160002054905060008111156106d1578273ffffffffffffffffffffffffffffffffffffffff166108fc829081150290604051600060405180830381858888f193505050501580156106b2573d6000803e3d6000fd5b50600060036000848152602001908152602001600020819055506106d2565b5b505050565b600060046000838152602001908152602001600020905080600b015442116106fe57600080fd5b8060090160009054906101000a900460ff161561071a57600080fd5b7fdaec4582d5d9595688c8c98545fdd1c696d41c6aeaeb636737e84ed2f5c00eda81600c0160009054906101000a900473ffffffffffffffffffffffffffffffffffffffff1682600d01546040516107739291906120e4565b60405180910390a1600081600d0154600360008581526020019081526020016000205403101580156107b457508060090160009054906101000a900460ff16155b156108545780600c0160009054906101000a900473ffffffffffffffffffffffffffffffffffffffff1673ffffffffffffffffffffffffffffffffffffffff166108fc82600d015483600d0154019081150290604051600060405180830381858888f1935050505015801561082d573d6000803e3d6000fd5b5080600d015460036000848152602001908152602001600020600082825403925050819055505b6108828160040160009054906101000a900473ffffffffffffffffffffffffffffffffffffffff168361064b565b60018160090160006101000a81548160ff0219169083151502179055505050565b600260009054906101000a900473ffffffffffffffffffffffffffffffffffffffff1681565b600060046000838152602001908152602001600020905060008160030160009054906101000a900473ffffffffffffffffffffffffffffffffffffffff169050600082600001541180156109235750600154826000015411155b61092c57600080fd5b816002015434101561093d57600080fd5b8160040160149054906101000a900460ff161561095957600080fd5b3373ffffffffffffffffffffffffffffffffffffffff168173ffffffffffffffffffffffffffffffffffffffff16141561099257600080fd5b338260030160006101000a81548173ffffffffffffffffffffffffffffffffffffffff021916908373ffffffffffffffffffffffffffffffffffffffff16021790555060018260040160146101000a81548160ff0219169083151502179055508073ffffffffffffffffffffffffffffffffffffffff166108fc349081150290604051600060405180830381858888f19350505050158015610a38573d6000803e3d6000fd5b507f79558d0d7d4d900e2f15c4cc0a665f1acdbe415e44de900ecdd1e5bf12b56f4e600154836001018460020154336001604051610a7a9594939291906122e0565b60405180910390a1610a8b83611617565b505050565b60036020528060005260406000206000915090505481565b60065481565b60006004600083815260200190815260200160002090508060060160003373ffffffffffffffffffffffffffffffffffffffff1673ffffffffffffffffffffffffffffffffffffffff168152602001908152602001600020604051806060016040528087815260200186151581526020018581525090806001815401808255809150506001900390600052602060002090600302016000909190919091506000820151816000015560208201518160010160006101000a81548160ff0219169083151502179055506040820151816002019080519060200190610b929291906118b5565b5050505050505050565b600060046000838152602001908152602001600020905080600a01544211610bf9576040517f08c379a0000000000000000000000000000000000000000000000000000000008152600401610bf09061214a565b60405180910390fd5b80600b01544210610c3f576040517f08c379a0000000000000000000000000000000000000000000000000000000008152600401610c369061216a565b60405180910390fd5b60008160080154905060608167ffffffffffffffff81118015610c6157600080fd5b50604051908082528060200260200182016040528015610c905781602001602082028036833780820191505090505b50905060608267ffffffffffffffff81118015610cac57600080fd5b50604051908082528060200260200182016040528015610cdb5781602001602082028036833780820191505090505b50905060608367ffffffffffffffff81118015610cf757600080fd5b50604051908082528060200260200182016040528015610d2b57816020015b6060815260200190600190039081610d165790505b50905060005b84811015610f52578560060160003373ffffffffffffffffffffffffffffffffffffffff1673ffffffffffffffffffffffffffffffffffffffff1681526020019081526020016000208181548110610d8557fe5b906000526020600020906003020160000154848281518110610da357fe5b6020026020010181815250508560060160003373ffffffffffffffffffffffffffffffffffffffff1673ffffffffffffffffffffffffffffffffffffffff1681526020019081526020016000208181548110610dfb57fe5b906000526020600020906003020160010160009054906101000a900460ff16838281518110610e2657fe5b6020026020010190151590811515815250508560060160003373ffffffffffffffffffffffffffffffffffffffff1673ffffffffffffffffffffffffffffffffffffffff1681526020019081526020016000208181548110610e8457fe5b90600052602060002090600302016002018054600181600116156101000203166002900480601f016020809104026020016040519081016040528092919081815260200182805460018160011615610100020316600290048015610f295780601f10610efe57610100808354040283529160200191610f29565b820191906000526020600020905b815481529060010190602001808311610f0c57829003601f168201915b5050505050828281518110610f3a57fe5b60200260200101819052508080600101915050610d31565b50610f5f83838389611030565b505050505050565b60006004600083815260200190815260200160002090508060050160003373ffffffffffffffffffffffffffffffffffffffff1673ffffffffffffffffffffffffffffffffffffffff168152602001908152602001600020604051806040016040528085815260200134815250908060018154018082558091505060019003906000526020600020906002020160009091909190915060008201518160000155602082015181600101555050600660008154809291906001019190505550505050565b60015481565b600060046000838152602001908152602001600020905080600a0154421161105757600080fd5b80600b0154421061106757600080fd5b60008160050160003373ffffffffffffffffffffffffffffffffffffffff1673ffffffffffffffffffffffffffffffffffffffff168152602001908152602001600020805490509050808651146110bd57600080fd5b808551146110ca57600080fd5b808451146110d757600080fd5b600080600090505b828110156113425760008460050160003373ffffffffffffffffffffffffffffffffffffffff1673ffffffffffffffffffffffffffffffffffffffff168152602001908152602001600020828154811061113557fe5b9060005260206000209060020201905060008060608b858151811061115657fe5b60200260200101518b868151811061116a57fe5b60200260200101518b878151811061117e57fe5b60200260200101519250925092508282826040516020016111a193929190612075565b60405160208183030381529060405280519060200120846000015414611201577fdc55530f366a0bfc087ce251b8843eee7544b992be75e4c32c645d058a1e21a1336040516111f091906120ae565b60405180910390a150505050611335565b836001015486019550811561124c577f74f13070e50416a85df7e6bfe7f48888d7c026a9cf531e4f13b84555a81441e08260405161123f919061210d565b60405180910390a16112f6565b7f410dbb8b54fa191201458b3e13b2d5743fbe5036056cd0f228131db2c12500bd8260405161127b919061210d565b60405180910390a17fb6b55f256c3eb337f96418d59e773db6e805074f5e574a2bebb7d7139404361984600101546040516112b691906121aa565b60405180910390a17fe396c2fbbfcfe7f0e7a1f8d391c3c9f1b689c22f2227255be527e20b9404c130836040516112ed91906121aa565b60405180910390a15b81158015611308575082846001015410155b156113245761131833848b6116e0565b156113235782860395505b5b6000801b8460000181905550505050505b80806001019150506110df565b503373ffffffffffffffffffffffffffffffffffffffff166108fc829081150290604051600060405180830381858888f19350505050158015611389573d6000803e3d6000fd5b507fb43a48f4b5fe1b13780390dc7b039206c4f81535c0fda507c687d7e921eb18bb336040516113b991906120ae565b60405180910390a150505050505050565b60008251116113d857600080fd5b600081116113e557600080fd5b600160008154809291906001019190505550600060046000600154815260200190815260200160002090506000600560006001548152602001908152602001600020905060015481600001819055506001548260000181905550838260010190805190602001906114579291906118b5565b50828260020181905550338260030160006101000a81548173ffffffffffffffffffffffffffffffffffffffff021916908373ffffffffffffffffffffffffffffffffffffffff160217905550338260040160006101000a81548173ffffffffffffffffffffffffffffffffffffffff021916908373ffffffffffffffffffffffffffffffffffffffff16021790555060008260040160146101000a81548160ff02191690831515021790555034600360006001548152602001908152602001600020819055507fbc59c0c8165864dcceb377dd07d8f431d4303f8e501cb0a0374a10cc68d718366001548585336000604051611558959493929190612286565b60405180910390a150505050565b8460036000828152602001908152602001600020543411156115bd576040517f08c379a00000000000000000000000000000000000000000000000000000000081526004016115b49061218a565b60405180910390fd5b600060046000888152602001908152602001600020905080600a015442106115e457600080fd5b6115ee8688610f67565b6115fa8585858a610aae565b806008016000815480929190600101919050555050505050505050565b6000600460008381526020019081526020016000209050600060056000848152602001908152602001600020905060018160010160006101000a81548160ff021916908315150217905550600082600d018190555060008260090160006101000a81548160ff021916908315150217905550600082600801819055506028420182600a0181905550603c82600a01540182600b01819055507f01abca8b1fa21a00a7628a46e1e2c7bd9929c014a47741d62554e4e0088eb5be60405160405180910390a1505050565b600080600460008481526020019081526020016000209050600060056000858152602001908152602001600020905081600d0154851015801561173257508060010160009054906101000a900460ff16155b15611742576000925050506118ae565b60008160010160006101000a81548160ff021916908315150217905550600073ffffffffffffffffffffffffffffffffffffffff1682600c0160009054906101000a900473ffffffffffffffffffffffffffffffffffffffff1673ffffffffffffffffffffffffffffffffffffffff161461182f5781600d015482600701600084600c0160009054906101000a900473ffffffffffffffffffffffffffffffffffffffff1673ffffffffffffffffffffffffffffffffffffffff1673ffffffffffffffffffffffffffffffffffffffff168152602001908152602001600020600082825401925050819055505b8482600d01819055508582600c0160006101000a81548173ffffffffffffffffffffffffffffffffffffffff021916908373ffffffffffffffffffffffffffffffffffffffff1602179055507f94674a4ea63aea74100725e775ace66ffec6cfe9af2cd1da16a431ba5ce6860a60405160405180910390a16001925050505b9392505050565b828054600181600116156101000203166002900490600052602060002090601f0160209004810192826118eb5760008555611932565b82601f1061190457805160ff1916838001178555611932565b82800160010185558215611932579182015b82811115611931578251825591602001919060010190611916565b5b50905061193f9190611943565b5090565b5b8082111561195c576000816000905550600101611944565b5090565b60008135905061196f81612573565b92915050565b600082601f83011261198657600080fd5b81356119996119948261236b565b61233a565b915081818352602084019350602081019050838560208402820111156119be57600080fd5b60005b838110156119ee57816119d48882611aef565b8452602084019350602083019250506001810190506119c1565b5050505092915050565b600082601f830112611a0957600080fd5b8135611a1c611a1782612397565b61233a565b9150818183526020840193506020810190508360005b83811015611a625781358601611a488882611b19565b845260208401935060208301925050600181019050611a32565b5050505092915050565b600082601f830112611a7d57600080fd5b8135611a90611a8b826123c3565b61233a565b91508181835260208401935060208101905083856020840282011115611ab557600080fd5b60005b83811015611ae55781611acb8882611b6d565b845260208401935060208301925050600181019050611ab8565b5050505092915050565b600081359050611afe8161258a565b92915050565b600081359050611b13816125a1565b92915050565b600082601f830112611b2a57600080fd5b8135611b3d611b38826123ef565b61233a565b91508082526020830160208301858383011115611b5957600080fd5b611b648382846124e3565b50505092915050565b600081359050611b7c816125b8565b92915050565b60008060408385031215611b9557600080fd5b6000611ba385828601611960565b9250506020611bb485828601611b6d565b9150509250929050565b60008060008060808587031215611bd457600080fd5b600085013567ffffffffffffffff811115611bee57600080fd5b611bfa87828801611a6c565b945050602085013567ffffffffffffffff811115611c1757600080fd5b611c2387828801611975565b935050604085013567ffffffffffffffff811115611c4057600080fd5b611c4c878288016119f8565b9250506060611c5d87828801611b6d565b91505092959194509250565b60008060408385031215611c7c57600080fd5b6000611c8a85828601611b04565b9250506020611c9b85828601611b6d565b9150509250929050565b60008060408385031215611cb857600080fd5b600083013567ffffffffffffffff811115611cd257600080fd5b611cde85828601611b19565b9250506020611cef85828601611b6d565b9150509250929050565b600060208284031215611d0b57600080fd5b6000611d1984828501611b6d565b91505092915050565b60008060008060808587031215611d3857600080fd5b6000611d4687828801611b6d565b9450506020611d5787828801611aef565b935050604085013567ffffffffffffffff811115611d7457600080fd5b611d8087828801611b19565b9250506060611d9187828801611b6d565b91505092959194509250565b600080600080600060a08688031215611db557600080fd5b6000611dc388828901611b6d565b9550506020611dd488828901611b04565b9450506040611de588828901611b6d565b9350506060611df688828901611aef565b925050608086013567ffffffffffffffff811115611e1357600080fd5b611e1f88828901611b19565b9150509295509295909350565b611e35816124ad565b82525050565b611e448161245b565b82525050565b611e538161246d565b82525050565b611e6a611e658261246d565b612525565b82525050565b6000611e7b82612434565b611e85818561243f565b9350611e958185602086016124f2565b611e9e81612555565b840191505092915050565b6000611eb482612434565b611ebe8185612450565b9350611ece8185602086016124f2565b80840191505092915050565b600081546001811660008114611ef75760018114611f1d57611f61565b607f6002830416611f08818761243f565b955060ff198316865260208601935050611f61565b60028204611f2b818761243f565b9550611f368561241f565b60005b82811015611f5857815481890152600182019150602081019050611f39565b80880195505050505b505092915050565b6000611f7660148361243f565b91507f6f6e6c7941667465722062696464696e67456e640000000000000000000000006000830152602082019050919050565b6000611fb660148361243f565b91507f6f6e6c794265666f72652072657665616c456e640000000000000000000000006000830152602082019050919050565b6000611ff660258361243f565b91507f4269642063616e206e6f74206265206d6f7265207468616e206974656d27732060008301527f70726963650000000000000000000000000000000000000000000000000000006020830152604082019050919050565b612058816124a3565b82525050565b61206f61206a826124a3565b612537565b82525050565b6000612081828661205e565b6020820191506120918285611e59565b6001820191506120a18284611ea9565b9150819050949350505050565b60006020820190506120c36000830184611e2c565b92915050565b60006020820190506120de6000830184611e3b565b92915050565b60006040820190506120f96000830185611e2c565b612106602083018461204f565b9392505050565b60006020820190506121226000830184611e4a565b92915050565b600060208201905081810360008301526121428184611e70565b905092915050565b6000602082019050818103600083015261216381611f69565b9050919050565b6000602082019050818103600083015261218381611fa9565b9050919050565b600060208201905081810360008301526121a381611fe9565b9050919050565b60006020820190506121bf600083018461204f565b92915050565b6000610180820190506121db600083018f61204f565b81810360208301526121ed818e611e70565b90506121fc604083018d61204f565b612209606083018c611e3b565b612216608083018b611e3b565b61222360a083018a611e4a565b61223060c083018961204f565b61223d60e0830188611e4a565b61224b61010083018761204f565b61225961012083018661204f565b612267610140830185611e3b565b61227561016083018461204f565b9d9c50505050505050505050505050565b600060a08201905061229b600083018861204f565b81810360208301526122ad8187611e70565b90506122bc604083018661204f565b6122c96060830185611e3b565b6122d66080830184611e4a565b9695505050505050565b600060a0820190506122f5600083018861204f565b81810360208301526123078187611eda565b9050612316604083018661204f565b6123236060830185611e3b565b6123306080830184611e4a565b9695505050505050565b6000604051905081810181811067ffffffffffffffff8211171561236157612360612553565b5b8060405250919050565b600067ffffffffffffffff82111561238657612385612553565b5b602082029050602081019050919050565b600067ffffffffffffffff8211156123b2576123b1612553565b5b602082029050602081019050919050565b600067ffffffffffffffff8211156123de576123dd612553565b5b602082029050602081019050919050565b600067ffffffffffffffff82111561240a57612409612553565b5b601f19601f8301169050602081019050919050565b60008190508160005260206000209050919050565b600081519050919050565b600082825260208201905092915050565b600081905092915050565b600061246682612483565b9050919050565b60008115159050919050565b6000819050919050565b600073ffffffffffffffffffffffffffffffffffffffff82169050919050565b6000819050919050565b60006124b8826124bf565b9050919050565b60006124ca826124d1565b9050919050565b60006124dc82612483565b9050919050565b82818337600083830152505050565b60005b838110156125105780820151818401526020810190506124f5565b8381111561251f576000848401525b50505050565b600061253082612541565b9050919050565b6000819050919050565b600061254c82612566565b9050919050565bfe5b6000601f19601f8301169050919050565b60008160f81b9050919050565b61257c8161245b565b811461258757600080fd5b50565b6125938161246d565b811461259e57600080fd5b50565b6125aa81612479565b81146125b557600080fd5b50565b6125c1816124a3565b81146125cc57600080fd5b5056fea2646970667358221220961ba5dabca2b882c4f93a5f7b70269f36d32094b1f52f08eb04dafeeeab9c7164736f6c63430007040033",
  "immutableReferences": {},
  "source": "// SPDX-License-Identifier: GL2PS License\npragma solidity 0.7.4;\npragma experimental ABIEncoderV2;\n/*\n * The above statement is mandatory\n * as it enables support for two levels\n * of dynamic arrays .\n */\n\ncontract eShop {\n    string public name;\n    uint public productCount = 0;\n    //BlindAuction\n    address payable public beneficiary;//seller\n    //Money for paying the transporter(winner of the auction),\n    //can not be more than the item's price.\n    mapping(uint => uint) public transportDeposit;\n\n    mapping(uint => ProductWithBids) public internalProducts;\n    /*\n     * this struct serves only for storing extra\n     * variables since solidity structs can not handle\n     * more than 16 entries in the struct otherwise we\n     * will get error:\n     * Stack too deep when compiling inline assembly.\n     */\n    mapping(uint => AdditionalVars) private extraProductVars;\n    uint public globalBidsCount = 0;\n\n    modifier maxValue(uint id) {\n        require(\n            msg.value <= transportDeposit[id],\n            \"Bid can not be more than item's price\"\n        );\n        _;\n    }\n\n    // Not used at the moment.\n    //    modifier onlyBefore(uint _time) {require(block.timestamp < _time);\n    //        _;}\n    //    modifier onlyAfter(uint _time) {require(block.timestamp > _time);\n    //    _;}\n\n    struct Bid {\n        bytes32 blindedBid;\n        uint deposit;\n    }\n\n    struct SecretBids {\n        uint values;\n        bool fake;\n        string secret;\n    }\n\n    struct ProductWithBids {\n        uint id;\n        string name;\n        uint price;\n        address payable owner;\n        address payable beneficiary;\n        bool purchased;\n\n        mapping(address => Bid[]) bids;\n        mapping(address => SecretBids[]) nakedBids;\n        // Allowed withdrawals of previous bids\n        mapping(address => uint) pendingReturns;\n\n        uint bidsCount;\n        bool ended;\n        uint biddingEnd;\n        uint revealEnd;\n        address payable lowestBidder;\n        uint lowestBid;\n    }\n\n    struct AdditionalVars {\n        uint id;\n        bool firstTime;\n    }\n\n\n    event ProductCreated(\n        uint id,\n        string name,\n        uint price,\n        address payable owner,\n        bool purchased\n    );\n\n    event ProductPurchased(\n        uint id,\n        string name,\n        uint price,\n        address payable owner,\n        bool purchased\n    );\n\n    //Delete them after merge with master\n    //these events are meant only for DEVs\n    event isTrue(bool flag);\n    event isFalse(bool flag);\n    event deposit(uint value);\n    event depositValue(uint value);\n    event IWillReturnTrue();\n    event DidNotMeetRequireYet();\n    event NotRevealedYet(address refunded);\n    //End event DEVs\n\n    event NewAuctionBegins();\n    event AuctionEnded(address winner, uint highestBid);\n    event Revealed(address refunded);\n\n    /// Ensure that `msg.value` is an even number.\n    /// Division will truncate if it is an odd number.\n    /// Check via multiplication that it wasn't an odd number\n    constructor() payable {\n        name = \"Dapp eShop\";\n    }\n\n    //noinspection UnprotectedFunction\n    function createProduct(\n        string memory _name,\n        uint _price\n    )\n    public\n    payable\n    {\n        //Require a names\n        require(bytes(_name).length > 0);\n        //Require a valid price\n        require(_price > 0);\n        //increase product productCount\n        productCount ++;\n        /*\n         * Note how in all the functions, a struct type is assigned to\n         * a local variable with data location storage. This does not copy\n         * the struct but only stores a reference so that assignments\n         * to members of the local variable actually write to the state.\n         *\n         * Also We cannot use \"internalProducts[productCount] = ProductWithBids(id, name, price , etc)\"\n         * because the RHS creates a memory-struct \"ProductWithBids\" that contains a mapping.\n         */\n        //create the product\n        ProductWithBids storage newProduct = internalProducts[productCount];\n        AdditionalVars storage extraVars = extraProductVars[productCount];\n        //TODO Impl transportDeposit mechanism.\n        extraVars.id = productCount;\n        newProduct.id = productCount;\n        newProduct.name = _name;\n        newProduct.price = _price;\n        newProduct.owner = msg.sender;\n        newProduct.beneficiary = msg.sender;\n        newProduct.purchased = false;\n        transportDeposit[productCount] = msg.value;\n        //trigger an event\n        emit ProductCreated(productCount, _name, _price, msg.sender, false);\n    }\n\n    function purchaseProduct(uint _id) public payable {\n        //Fetch the Product\n        ProductWithBids storage _product = internalProducts[_id];\n        //Fetch the owner\n        address payable _seller = _product.owner;\n        //Make sure the product has valid id\n        require(_product.id > 0 && _product.id <= productCount);\n        //Require that there is enough Ether in the transaction\n        require(msg.value >= _product.price);\n        //Require that the product has not been purchased already\n        require(!_product.purchased);\n        //Require that the buyer is not the _seller\n        require(_seller != msg.sender);\n        //Transfer ownership to the buyer\n        _product.owner = msg.sender;\n        //Mark as purchasedProduct\n        _product.purchased = true;\n        //Pay the seller by sending them Ether\n        _seller.transfer(msg.value);\n        //trigger an event\n        emit ProductPurchased(productCount, _product.name, _product.price, msg.sender, true);\n        //beginAuction\n        beginAuction(_id);\n    }\n\n    /// Start of BlindAuction\n    /// In a real world scenario this function should\n    /// call only the bid function because the nakedBids\n    /// should have been an external input from another\n    /// contract or application.\n    function checkBidding(\n        uint _id,\n        bytes32 _blindedBid,\n        uint _values,\n        bool _fake,\n        string memory _secret\n    )\n    public\n    payable\n    maxValue(_id)\n    {\n        ProductWithBids storage selectedProduct = internalProducts[_id];\n        //onlyBefore biddingEnd\n        require(block.timestamp < selectedProduct.biddingEnd);\n\n        bid(_blindedBid, _id);\n        pushNakedBids(\n            _values,\n            _fake,\n            _secret,\n            _id\n        );\n        selectedProduct.bidsCount++;\n    }\n\n    /// Place a blinded bid with `_blindedBid` =\n    /// keccak256(abi.encodePacked(value, fake, secret)).\n    /// The sent ether is only refunded if the bid is correctly\n    /// revealed in the revealing phase. The bid is valid if the\n    /// ether sent together with the bid is at least \"value\" and\n    /// \"fake\" is not true. Setting \"fake\" to true and sending\n    /// not the exact amount are ways to hide the real bid but\n    /// still make the required deposit. The same address can\n    /// place multiple bids.\n    function bid(\n        bytes32 _blindedBid,\n        uint id\n    )\n    public\n    payable\n    {\n        ProductWithBids storage selectedProduct = internalProducts[id];\n        //onlyBefore biddingEnd\n        //require(block.timestamp < newProduct.biddingEnd);\n\n        selectedProduct.bids[msg.sender].push(Bid({\n        blindedBid : _blindedBid,\n        deposit : msg.value\n        }));\n\n        globalBidsCount++;\n    }\n\n    function pushNakedBids(\n        uint _values,\n        bool _fake,\n        string memory _secret,\n        uint id\n    )\n    public\n    payable\n    {\n        ProductWithBids storage selectedProduct = internalProducts[id];\n\n        selectedProduct.nakedBids[msg.sender].push(SecretBids({\n        values : _values,\n        fake : _fake,\n        secret : _secret\n        }));\n    }\n\n    /// Secret is just the required string for the matching encoding.\n    /// Reveal your blinded bids. You will get a refund for all\n    /// correctly blinded invalid bids and for all bids except for\n    /// the totally highest.\n    function revealInternal(\n        uint[] memory _values,\n        bool[] memory _fake,\n        string[] memory _secret,\n        uint _id\n    )\n    public\n    payable\n    {\n        ProductWithBids storage selectedProduct = internalProducts[_id];\n        //onlyAfter biddingEnd && onlyBefore revealEnd\n        require(block.timestamp > selectedProduct.biddingEnd);\n        require(block.timestamp < selectedProduct.revealEnd);\n\n        uint length = selectedProduct.bids[msg.sender].length;\n        require(_values.length == length);\n        require(_fake.length == length);\n        require(_secret.length == length);\n\n        uint refund;\n        for (uint i = 0; i < length; i++) {\n            Bid storage bidToCheck = selectedProduct.bids[msg.sender][i];\n            (uint value, bool fake, string memory secret) =\n            (_values[i], _fake[i], _secret[i]);\n            if (bidToCheck.blindedBid != keccak256(abi.encodePacked(value, fake, secret))) {\n                // Bid was not actually revealed.\n                // Do not refund deposit.\n                emit NotRevealedYet(msg.sender);\n                continue;\n            }\n            refund += bidToCheck.deposit;\n            if (fake) {\n                emit isTrue(fake);\n            } else {\n                emit isFalse(fake);\n                emit deposit(bidToCheck.deposit);\n                emit depositValue(value);\n            }\n            if (!fake && bidToCheck.deposit >= value) {\n                if (placeBid(msg.sender, value, _id))\n                    refund -= value;\n            }\n            // Make it impossible for the sender to re-claim\n            // the same deposit.\n            bidToCheck.blindedBid = bytes32(0);\n        }\n        msg.sender.transfer(refund);\n        //emit event\n        emit Revealed(msg.sender);\n    }\n\n    /// Withdraw a bid that was overbid.\n    function withdraw(\n        uint _id\n    )\n    public\n    payable\n    {\n        ProductWithBids storage selectedProduct = internalProducts[_id];\n        uint amount = selectedProduct.pendingReturns[msg.sender];\n        if (amount > 0) {\n            // It is important to set this to zero because the recipient\n            // can call this function again as part of the receiving call\n            // before `transfer` returns .\n            selectedProduct.pendingReturns[msg.sender] = 0;\n\n            msg.sender.transfer(amount);\n        }\n    }\n\n    /// End the auction and send the highest bid\n    /// to the beneficiary.\n    function auctionEnd(uint _id) public payable {\n        ProductWithBids storage selectedProduct = internalProducts[_id];\n        //onlyAfter revealEnd\n        require(block.timestamp > selectedProduct.revealEnd);\n\n        require(!selectedProduct.ended);\n        emit AuctionEnded(\n            selectedProduct.lowestBidder,\n            selectedProduct.lowestBid\n        );\n\n        // It is important to place this if because the recipient\n        // can call this function again as part of the receiving call\n        // before `transfer` returns .\n        if (transportDeposit[_id] - selectedProduct.lowestBid >= 0 && !selectedProduct.ended) {\n            selectedProduct.lowestBidder.transfer(selectedProduct.lowestBid + selectedProduct.lowestBid);\n            transportDeposit[_id] -= selectedProduct.lowestBid;\n        }\n\n        refundSeller(\n            selectedProduct.beneficiary,\n            _id\n        );\n        selectedProduct.ended = true;\n    }\n\n    /// The main function responsible for revealing\n    /// the bids. In a real world scenario this\n    /// function should be a separate contract or\n    /// app, because this contract simulates an\n    /// external input.\n    function reveal(uint _id) public payable {\n        ProductWithBids storage selectedProduct = internalProducts[_id];\n        //onlyAfter biddingEnd && onlyBefore revealEnd\n        require(block.timestamp > selectedProduct.biddingEnd, \"onlyAfter biddingEnd\");\n        require(block.timestamp < selectedProduct.revealEnd, \"onlyBefore revealEnd\");\n        uint count = selectedProduct.bidsCount;\n\n        uint[] memory values = new uint[](count);\n        bool[] memory fake = new bool[](count);\n        string[] memory secret = new string[](count);\n\n        for (uint i = 0; i < count; i++) {\n            values[i] = selectedProduct.nakedBids[msg.sender][i].values;\n            fake[i] = selectedProduct.nakedBids[msg.sender][i].fake;\n            secret[i] = selectedProduct.nakedBids[msg.sender][i].secret;\n        }\n\n        revealInternal(\n            values,\n            fake,\n            secret,\n            _id\n        );\n    }\n\n    function beginAuction(uint _id) internal {\n        ProductWithBids storage selectedProduct = internalProducts[_id];\n        AdditionalVars storage extraVars = extraProductVars[_id];\n        //Init Auction Vars\n        extraVars.firstTime = true;\n        selectedProduct.lowestBid = 0;\n        selectedProduct.ended = false;\n        selectedProduct.bidsCount = 0;\n        selectedProduct.biddingEnd = block.timestamp + 40;\n        selectedProduct.revealEnd = selectedProduct.biddingEnd + 60;\n        //trigger an event\n        emit NewAuctionBegins();\n    }\n\n    /// This is an \"internal\" function which means that it\n    /// can only be called from the contract itself (or from\n    /// derived contracts).\n    function placeBid(\n        address payable bidder,\n        uint value,\n        uint id\n    )\n    internal\n    returns (bool success)\n    {\n        ProductWithBids storage selectedProduct = internalProducts[id];\n        AdditionalVars storage extraVars = extraProductVars[id];\n\n        //TODO this is reversed.\n        if (value >= selectedProduct.lowestBid && !extraVars.firstTime)\n            return false;\n        else\n            extraVars.firstTime = false;\n\n        if (selectedProduct.lowestBidder != address(0)) {\n            // Refund the previously highest bidder.\n            selectedProduct.pendingReturns[selectedProduct.lowestBidder] += selectedProduct.lowestBid;\n        }\n        selectedProduct.lowestBid = value;\n        selectedProduct.lowestBidder = bidder;\n        emit IWillReturnTrue();\n        return true;\n    }\n    //End of BlindAuction\n\n    function refundSeller(\n        address payable _seller,\n        uint _id\n    )\n    public\n    payable\n    {\n        uint amount = transportDeposit[_id];\n        if (amount > 0) {\n            _seller.transfer(amount);\n            // It is important to set this to zero because the recipient\n            // can call this function again as part of the receiving call\n            // before `transfer` returns .\n            transportDeposit[_id] = 0;\n        } else if (amount < 0) {\n            //emit event about the state\n            //of transportDeposit[_id].\n        }\n    }\n}\n\n\n\n\n\n\n\n\n\n\n\n\n\n\n\n\n\n\n\n\n\n\n",
  "sourcePath": "/home/flexyusr/workspaces/GeorgePap-719/Blockchain/BlockChainEshop/src/contracts/eShop.sol",
  "compiler": {
    "name": "solc",
    "version": "0.7.4+commit.3f05b770.Emscripten.clang"
  },
  "schemaVersion": "3.3.4",
  "updatedAt": "2021-04-07T11:48:01.300Z",
  "networkType": "ethereum",
  "devdoc": {
    "kind": "dev",
    "methods": {},
    "version": 1
  },
  "userdoc": {
    "kind": "user",
    "methods": {
      "auctionEnd(uint256)": {
        "notice": "End the auction and send the highest bid to the beneficiary."
      },
      "bid(bytes32,uint256)": {
        "notice": "Place a blinded bid with `_blindedBid` = keccak256(abi.encodePacked(value, fake, secret)). The sent ether is only refunded if the bid is correctly revealed in the revealing phase. The bid is valid if the ether sent together with the bid is at least \"value\" and \"fake\" is not true. Setting \"fake\" to true and sending not the exact amount are ways to hide the real bid but still make the required deposit. The same address can place multiple bids."
      },
      "checkBidding(uint256,bytes32,uint256,bool,string)": {
        "notice": "Start of BlindAuction In a real world scenario this function should call only the bid function because the nakedBids should have been an external input from another contract or application."
      },
      "constructor": {
        "notice": "Ensure that `msg.value` is an even number. Division will truncate if it is an odd number. Check via multiplication that it wasn't an odd number"
      },
      "reveal(uint256)": {
        "notice": "The main function responsible for revealing the bids. In a real world scenario this function should be a separate contract or app, because this contract simulates an external input."
      },
      "revealInternal(uint256[],bool[],string[],uint256)": {
        "notice": "Secret is just the required string for the matching encoding. Reveal your blinded bids. You will get a refund for all correctly blinded invalid bids and for all bids except for the totally highest."
      },
      "withdraw(uint256)": {
        "notice": "Withdraw a bid that was overbid."
      }
    },
    "version": 1
  }
}