{
  "contractName": "eShop",
  "abi": [
    {
      "inputs": [],
      "stateMutability": "payable",
      "type": "constructor",
      "payable": true
    },
    {
      "anonymous": false,
      "inputs": [],
      "name": "Aborted",
      "type": "event"
    },
    {
      "anonymous": false,
      "inputs": [
        {
          "indexed": false,
          "internalType": "address",
          "name": "winner",
          "type": "address"
        },
        {
          "indexed": false,
          "internalType": "uint256",
          "name": "highestBid",
          "type": "uint256"
        }
      ],
      "name": "AuctionEnded",
      "type": "event"
    },
    {
      "anonymous": false,
      "inputs": [],
      "name": "ItemReceived",
      "type": "event"
    },
    {
      "anonymous": false,
      "inputs": [],
      "name": "NewAuctionBegins",
      "type": "event"
    },
    {
      "anonymous": false,
      "inputs": [
        {
          "indexed": false,
          "internalType": "address",
          "name": "refunded",
          "type": "address"
        }
      ],
      "name": "NotRevealedYet",
      "type": "event"
    },
    {
      "anonymous": false,
      "inputs": [
        {
          "indexed": false,
          "internalType": "uint256",
          "name": "id",
          "type": "uint256"
        },
        {
          "indexed": false,
          "internalType": "string",
          "name": "name",
          "type": "string"
        },
        {
          "indexed": false,
          "internalType": "uint256",
          "name": "price",
          "type": "uint256"
        },
        {
          "indexed": false,
          "internalType": "address payable",
          "name": "owner",
          "type": "address"
        },
        {
          "indexed": false,
          "internalType": "bool",
          "name": "purchased",
          "type": "bool"
        },
        {
          "indexed": false,
          "internalType": "enum eShop.State",
          "name": "state",
          "type": "uint8"
        }
      ],
      "name": "ProductCreated",
      "type": "event"
    },
    {
      "anonymous": false,
      "inputs": [
        {
          "indexed": false,
          "internalType": "uint256",
          "name": "id",
          "type": "uint256"
        },
        {
          "indexed": false,
          "internalType": "string",
          "name": "name",
          "type": "string"
        },
        {
          "indexed": false,
          "internalType": "uint256",
          "name": "price",
          "type": "uint256"
        },
        {
          "indexed": false,
          "internalType": "address payable",
          "name": "owner",
          "type": "address"
        },
        {
          "indexed": false,
          "internalType": "bool",
          "name": "purchased",
          "type": "bool"
        }
      ],
      "name": "ProductPurchased",
      "type": "event"
    },
    {
      "anonymous": false,
      "inputs": [],
      "name": "PurchaseConfirmed",
      "type": "event"
    },
    {
      "anonymous": false,
      "inputs": [
        {
          "indexed": false,
          "internalType": "address",
          "name": "refunded",
          "type": "address"
        }
      ],
      "name": "Revealed",
      "type": "event"
    },
    {
      "anonymous": false,
      "inputs": [],
      "name": "SellerRefunded",
      "type": "event"
    },
    {
      "inputs": [],
      "name": "beneficiary",
      "outputs": [
        {
          "internalType": "address payable",
          "name": "",
          "type": "address"
        }
      ],
      "stateMutability": "view",
      "type": "function",
      "constant": true
    },
    {
      "inputs": [
        {
          "internalType": "address",
          "name": "",
          "type": "address"
        },
        {
          "internalType": "uint256",
          "name": "",
          "type": "uint256"
        }
      ],
      "name": "bids",
      "outputs": [
        {
          "internalType": "bytes32",
          "name": "blindedBid",
          "type": "bytes32"
        },
        {
          "internalType": "uint256",
          "name": "deposit",
          "type": "uint256"
        }
      ],
      "stateMutability": "view",
      "type": "function",
      "constant": true
    },
    {
      "inputs": [],
      "name": "buyer",
      "outputs": [
        {
          "internalType": "address payable",
          "name": "",
          "type": "address"
        }
      ],
      "stateMutability": "view",
      "type": "function",
      "constant": true
    },
    {
      "inputs": [],
      "name": "globalBidsCount",
      "outputs": [
        {
          "internalType": "uint256",
          "name": "",
          "type": "uint256"
        }
      ],
      "stateMutability": "view",
      "type": "function",
      "constant": true
    },
    {
      "inputs": [],
      "name": "highestBid",
      "outputs": [
        {
          "internalType": "uint256",
          "name": "",
          "type": "uint256"
        }
      ],
      "stateMutability": "view",
      "type": "function",
      "constant": true
    },
    {
      "inputs": [],
      "name": "highestBidder",
      "outputs": [
        {
          "internalType": "address",
          "name": "",
          "type": "address"
        }
      ],
      "stateMutability": "view",
      "type": "function",
      "constant": true
    },
    {
      "inputs": [
        {
          "internalType": "uint256",
          "name": "",
          "type": "uint256"
        }
      ],
      "name": "internalProducts",
      "outputs": [
        {
          "internalType": "uint256",
          "name": "id",
          "type": "uint256"
        },
        {
          "internalType": "string",
          "name": "name",
          "type": "string"
        },
        {
          "internalType": "uint256",
          "name": "price",
          "type": "uint256"
        },
        {
          "internalType": "address payable",
          "name": "owner",
          "type": "address"
        },
        {
          "internalType": "address payable",
          "name": "beneficiary",
          "type": "address"
        },
        {
          "internalType": "bool",
          "name": "purchased",
          "type": "bool"
        },
        {
          "internalType": "uint256",
          "name": "bidsCount",
          "type": "uint256"
        },
        {
          "internalType": "bool",
          "name": "ended",
          "type": "bool"
        },
        {
          "internalType": "bool",
          "name": "biddingTime",
          "type": "bool"
        },
        {
          "internalType": "bool",
          "name": "revealTime",
          "type": "bool"
        },
        {
          "internalType": "uint256",
          "name": "biddingEnd",
          "type": "uint256"
        },
        {
          "internalType": "uint256",
          "name": "revealEnd",
          "type": "uint256"
        }
      ],
      "stateMutability": "view",
      "type": "function",
      "constant": true
    },
    {
      "inputs": [
        {
          "internalType": "address",
          "name": "",
          "type": "address"
        },
        {
          "internalType": "uint256",
          "name": "",
          "type": "uint256"
        }
      ],
      "name": "nakedBids",
      "outputs": [
        {
          "internalType": "uint256",
          "name": "values",
          "type": "uint256"
        },
        {
          "internalType": "bool",
          "name": "fake",
          "type": "bool"
        },
        {
          "internalType": "string",
          "name": "secret",
          "type": "string"
        }
      ],
      "stateMutability": "view",
      "type": "function",
      "constant": true
    },
    {
      "inputs": [],
      "name": "name",
      "outputs": [
        {
          "internalType": "string",
          "name": "",
          "type": "string"
        }
      ],
      "stateMutability": "view",
      "type": "function",
      "constant": true
    },
    {
      "inputs": [],
      "name": "productCount",
      "outputs": [
        {
          "internalType": "uint256",
          "name": "",
          "type": "uint256"
        }
      ],
      "stateMutability": "view",
      "type": "function",
      "constant": true
    },
    {
      "inputs": [],
      "name": "seller",
      "outputs": [
        {
          "internalType": "address payable",
          "name": "",
          "type": "address"
        }
      ],
      "stateMutability": "view",
      "type": "function",
      "constant": true
    },
    {
      "inputs": [],
      "name": "state",
      "outputs": [
        {
          "internalType": "enum eShop.State",
          "name": "",
          "type": "uint8"
        }
      ],
      "stateMutability": "view",
      "type": "function",
      "constant": true
    },
    {
      "inputs": [
        {
          "internalType": "uint256",
          "name": "_id",
          "type": "uint256"
        },
        {
          "internalType": "bytes32",
          "name": "_blindedBid",
          "type": "bytes32"
        },
        {
          "internalType": "uint256",
          "name": "_values",
          "type": "uint256"
        },
        {
          "internalType": "bool",
          "name": "_fake",
          "type": "bool"
        },
        {
          "internalType": "string",
          "name": "_secret",
          "type": "string"
        }
      ],
      "name": "checkBidding",
      "outputs": [],
      "stateMutability": "payable",
      "type": "function",
      "payable": true
    },
    {
      "inputs": [
        {
          "internalType": "bytes32",
          "name": "_blindedBid",
          "type": "bytes32"
        }
      ],
      "name": "bid",
      "outputs": [],
      "stateMutability": "payable",
      "type": "function",
      "payable": true
    },
    {
      "inputs": [
        {
          "internalType": "uint256",
          "name": "_values",
          "type": "uint256"
        },
        {
          "internalType": "bool",
          "name": "_fake",
          "type": "bool"
        },
        {
          "internalType": "string",
          "name": "_secret",
          "type": "string"
        }
      ],
      "name": "pushNakedBids",
      "outputs": [],
      "stateMutability": "payable",
      "type": "function",
      "payable": true
    },
    {
      "inputs": [
        {
          "internalType": "uint256[]",
          "name": "_values",
          "type": "uint256[]"
        },
        {
          "internalType": "bool[]",
          "name": "_fake",
          "type": "bool[]"
        },
        {
          "internalType": "string[]",
          "name": "_secret",
          "type": "string[]"
        }
      ],
      "name": "reveal",
      "outputs": [],
      "stateMutability": "payable",
      "type": "function",
      "payable": true
    },
    {
      "inputs": [],
      "name": "withdraw",
      "outputs": [],
      "stateMutability": "payable",
      "type": "function",
      "payable": true
    },
    {
      "inputs": [
        {
          "internalType": "uint256",
          "name": "_id",
          "type": "uint256"
        }
      ],
      "name": "auctionEnd",
      "outputs": [],
      "stateMutability": "payable",
      "type": "function",
      "payable": true
    },
    {
      "inputs": [
        {
          "internalType": "string",
          "name": "_name",
          "type": "string"
        },
        {
          "internalType": "uint256",
          "name": "_price",
          "type": "uint256"
        }
      ],
      "name": "createProduct",
      "outputs": [],
      "stateMutability": "nonpayable",
      "type": "function"
    },
    {
      "inputs": [
        {
          "internalType": "uint256",
          "name": "_id",
          "type": "uint256"
        }
      ],
      "name": "purchaseProduct",
      "outputs": [],
      "stateMutability": "payable",
      "type": "function",
      "payable": true
    },
    {
      "inputs": [
        {
          "internalType": "uint256",
          "name": "_id",
          "type": "uint256"
        },
        {
          "internalType": "uint256",
          "name": "_biddingEnd",
          "type": "uint256"
        }
      ],
      "name": "updateBiddingEnd",
      "outputs": [],
      "stateMutability": "nonpayable",
      "type": "function"
    }
  ],
  "bytecode": "0x6080604052600060015560006009556040518060400160405280600a81526020017f44617070206553686f7000000000000000000000000000000000000000000000815250600090805190602001906200005b929190620000e4565b5033600360006101000a81548173ffffffffffffffffffffffffffffffffffffffff021916908373ffffffffffffffffffffffffffffffffffffffff16021790555033600560006101000a81548173ffffffffffffffffffffffffffffffffffffffff021916908373ffffffffffffffffffffffffffffffffffffffff1602179055506200019a565b828054600181600116156101000203166002900490600052602060002090601f0160209004810192826200011c576000855562000168565b82601f106200013757805160ff191683800117855562000168565b8280016001018555821562000168579182015b82811115620001675782518255916020019190600101906200014a565b5b5090506200017791906200017b565b5090565b5b80821115620001965760008160009055506001016200017c565b5090565b6120ea80620001aa6000396000f3fe60806040526004361061012a5760003560e01c8063641a4f04116100ab5780639fb42aa71161006f5780639fb42aa71461038a578063c19d93fb146103b5578063d57bde79146103e0578063e0f6ef871461040b578063e9300c6c14610436578063fa50abc61461045f5761012a565b8063641a4f04146102b05780637150d8ae146102ef578063791c82561461031a57806391f9015714610343578063957bb1e01461036e5761012a565b806332246e9f116100f257806332246e9f1461022757806338af3eed1461024357806338e76a031461026e5780633ccfd60b1461028a5780634e6365ea146102945761012a565b806301495c1c1461012f57806306fdde031461016d57806308551a53146101985780631b6b47f8146101c35780631c8ac1cb1461020b575b600080fd5b34801561013b57600080fd5b50610156600480360381019061015191906116a4565b61047b565b604051610164929190611b92565b60405180910390f35b34801561017957600080fd5b506101826104bc565b60405161018f9190611bd6565b60405180910390f35b3480156101a457600080fd5b506101ad61055a565b6040516101ba9190611b4e565b60405180910390f35b3480156101cf57600080fd5b506101ea60048036038101906101e591906117f4565b610580565b6040516102029c9b9a99989796959493929190611c51565b60405180910390f35b610225600480360381019061022091906116e0565b6106ec565b005b610241600480360381019061023c91906117f4565b61095c565b005b34801561024f57600080fd5b50610258610a78565b6040516102659190611b4e565b60405180910390f35b610288600480360381019061028391906117f4565b610a9e565b005b610292610c65565b005b6102ae60048036038101906102a9919061181d565b610d42565b005b3480156102bc57600080fd5b506102d760048036038101906102d291906116a4565b610e15565b6040516102e693929190611c13565b60405180910390f35b3480156102fb57600080fd5b50610304610f01565b6040516103119190611b4e565b60405180910390f35b34801561032657600080fd5b50610341600480360381019061033c9190611913565b610f27565b005b34801561034f57600080fd5b50610358610f2b565b6040516103659190611b18565b60405180910390f35b61038860048036038101906103839190611777565b610f51565b005b34801561039657600080fd5b5061039f610ff9565b6040516103ac9190611bf8565b60405180910390f35b3480156103c157600080fd5b506103ca610fff565b6040516103d79190611bbb565b60405180910390f35b3480156103ec57600080fd5b506103f5611012565b6040516104029190611bf8565b60405180910390f35b34801561041757600080fd5b50610420611018565b60405161042d9190611bf8565b60405180910390f35b34801561044257600080fd5b5061045d600480360381019061045891906117a0565b61101e565b005b61047960048036038101906104749190611884565b61117d565b005b6007602052816000526040600020818154811061049757600080fd5b9060005260206000209060020201600091509150508060000154908060010154905082565b60008054600181600116156101000203166002900480601f0160208091040260200160405190810160405280929190818152602001828054600181600116156101000203166002900480156105525780601f1061052757610100808354040283529160200191610552565b820191906000526020600020905b81548152906001019060200180831161053557829003601f168201915b505050505081565b600360009054906101000a900473ffffffffffffffffffffffffffffffffffffffff1681565b6006602052806000526040600020600091509050806000015490806001018054600181600116156101000203166002900480601f0160208091040260200160405190810160405280929190818152602001828054600181600116156101000203166002900480156106325780601f1061060757610100808354040283529160200191610632565b820191906000526020600020905b81548152906001019060200180831161061557829003601f168201915b5050505050908060020154908060030160009054906101000a900473ffffffffffffffffffffffffffffffffffffffff16908060040160009054906101000a900473ffffffffffffffffffffffffffffffffffffffff16908060040160149054906101000a900460ff16908060060154908060070160009054906101000a900460ff16908060070160019054906101000a900460ff16908060070160029054906101000a900460ff1690806008015490806009015490508c565b6000600760003373ffffffffffffffffffffffffffffffffffffffff1673ffffffffffffffffffffffffffffffffffffffff1681526020019081526020016000208054905090508084511461074057600080fd5b8083511461074d57600080fd5b8082511461075a57600080fd5b600080600090505b828110156108d6576000600760003373ffffffffffffffffffffffffffffffffffffffff1673ffffffffffffffffffffffffffffffffffffffff16815260200190815260200160002082815481106107b657fe5b9060005260206000209060020201905060008060608985815181106107d757fe5b60200260200101518986815181106107eb57fe5b60200260200101518987815181106107ff57fe5b602002602001015192509250925082828260405160200161082293929190611adf565b60405160208183030381529060405280519060200120846000015414610882577fdc55530f366a0bfc087ce251b8843eee7544b992be75e4c32c645d058a1e21a1336040516108719190611b33565b60405180910390a1505050506108c9565b8360010154860195508115801561089d575082846001015410155b156108b8576108ac3384611210565b156108b75782860395505b5b6000801b8460000181905550505050505b8080600101915050610762565b503373ffffffffffffffffffffffffffffffffffffffff166108fc829081150290604051600060405180830381858888f1935050505015801561091d573d6000803e3d6000fd5b507fb43a48f4b5fe1b13780390dc7b039206c4f81535c0fda507c687d7e921eb18bb3360405161094d9190611b33565b60405180910390a15050505050565b60006006600083815260200190815260200160002090508060070160009054906101000a900460ff161561098f57600080fd5b7fdaec4582d5d9595688c8c98545fdd1c696d41c6aeaeb636737e84ed2f5c00eda600a60009054906101000a900473ffffffffffffffffffffffffffffffffffffffff16600b546040516109e4929190611b69565b60405180910390a160018160070160006101000a81548160ff021916908315150217905550600560009054906101000a900473ffffffffffffffffffffffffffffffffffffffff1673ffffffffffffffffffffffffffffffffffffffff166108fc600b549081150290604051600060405180830381858888f19350505050158015610a73573d6000803e3d6000fd5b505050565b600560009054906101000a900473ffffffffffffffffffffffffffffffffffffffff1681565b600060066000838152602001908152602001600020905060008160030160009054906101000a900473ffffffffffffffffffffffffffffffffffffffff16905060008260000154118015610af85750600154826000015411155b610b0157600080fd5b8160020154341015610b1257600080fd5b8160040160149054906101000a900460ff1615610b2e57600080fd5b3373ffffffffffffffffffffffffffffffffffffffff168173ffffffffffffffffffffffffffffffffffffffff161415610b6757600080fd5b338260030160006101000a81548173ffffffffffffffffffffffffffffffffffffffff021916908373ffffffffffffffffffffffffffffffffffffffff16021790555060018260040160146101000a81548160ff0219169083151502179055508073ffffffffffffffffffffffffffffffffffffffff166108fc349081150290604051600060405180830381858888f19350505050158015610c0d573d6000803e3d6000fd5b507f79558d0d7d4d900e2f15c4cc0a665f1acdbe415e44de900ecdd1e5bf12b56f4e600154836001018460020154336001604051610c4f959493929190611d7a565b60405180910390a1610c608261133f565b505050565b6000600c60003373ffffffffffffffffffffffffffffffffffffffff1673ffffffffffffffffffffffffffffffffffffffff1681526020019081526020016000205490506000811115610d3f576000600c60003373ffffffffffffffffffffffffffffffffffffffff1673ffffffffffffffffffffffffffffffffffffffff168152602001908152602001600020819055503373ffffffffffffffffffffffffffffffffffffffff166108fc829081150290604051600060405180830381858888f19350505050158015610d3d573d6000803e3d6000fd5b505b50565b600860003373ffffffffffffffffffffffffffffffffffffffff1673ffffffffffffffffffffffffffffffffffffffff168152602001908152602001600020604051806060016040528085815260200184151581526020018381525090806001815401808255809150506001900390600052602060002090600302016000909190919091506000820151816000015560208201518160010160006101000a81548160ff0219169083151502179055506040820151816002019080519060200190610e0d9291906113d7565b505050505050565b60086020528160005260406000208181548110610e3157600080fd5b9060005260206000209060030201600091509150508060000154908060010160009054906101000a900460ff1690806002018054600181600116156101000203166002900480601f016020809104026020016040519081016040528092919081815260200182805460018160011615610100020316600290048015610ef75780601f10610ecc57610100808354040283529160200191610ef7565b820191906000526020600020905b815481529060010190602001808311610eda57829003601f168201915b5050505050905083565b600460009054906101000a900473ffffffffffffffffffffffffffffffffffffffff1681565b5050565b600a60009054906101000a900473ffffffffffffffffffffffffffffffffffffffff1681565b600760003373ffffffffffffffffffffffffffffffffffffffff1673ffffffffffffffffffffffffffffffffffffffff16815260200190815260200160002060405180604001604052808381526020013481525090806001815401808255809150506001900390600052602060002090600202016000909190919091506000820151816000015560208201518160010155505060096000815480929190600101919050555050565b60095481565b600d60009054906101000a900460ff1681565b600b5481565b60015481565b600082511161102c57600080fd5b6000811161103957600080fd5b600160008154809291906001019190505550600060066000600154815260200190815260200160002090506001548160000181905550828160010190805190602001906110879291906113d7565b50818160020181905550338160030160006101000a81548173ffffffffffffffffffffffffffffffffffffffff021916908373ffffffffffffffffffffffffffffffffffffffff160217905550338160040160006101000a81548173ffffffffffffffffffffffffffffffffffffffff021916908373ffffffffffffffffffffffffffffffffffffffff16021790555060008160040160146101000a81548160ff0219169083151502179055507f181e50d5e9f602d3b5eaa51bec386c6ed248eda88ff15dd9c37c212376b7783860015484843360008060405161117096959493929190611d12565b60405180910390a1505050565b600060066000878152602001908152602001600020905080600801544210156111cd576111a985610f51565b6111b4848484610d42565b8060060160008154809291906001019190505550611208565b60008160070160016101000a81548160ff02191690831515021790555060018160070160026101000a81548160ff0219169083151502179055505b505050505050565b6000600b5482116112245760009050611339565b600073ffffffffffffffffffffffffffffffffffffffff16600a60009054906101000a900473ffffffffffffffffffffffffffffffffffffffff1673ffffffffffffffffffffffffffffffffffffffff16146112ec57600b54600c6000600a60009054906101000a900473ffffffffffffffffffffffffffffffffffffffff1673ffffffffffffffffffffffffffffffffffffffff1673ffffffffffffffffffffffffffffffffffffffff168152602001908152602001600020600082825401925050819055505b81600b8190555082600a60006101000a81548173ffffffffffffffffffffffffffffffffffffffff021916908373ffffffffffffffffffffffffffffffffffffffff160217905550600190505b92915050565b600081905061134d81611351565b5050565b600081905060018160070160016101000a81548160ff02191690831515021790555060008160070160026101000a81548160ff02191690831515021790555060008160070160006101000a81548160ff02191690831515021790555060008160060181905550601e42018160080181905550603c81600801540181600901819055505050565b828054600181600116156101000203166002900490600052602060002090601f01602090048101928261140d5760008555611454565b82601f1061142657805160ff1916838001178555611454565b82800160010185558215611454579182015b82811115611453578251825591602001919060010190611438565b5b5090506114619190611465565b5090565b5b8082111561147e576000816000905550600101611466565b5090565b60008135905061149181612058565b92915050565b600082601f8301126114a857600080fd5b81356114bb6114b682611e05565b611dd4565b915081818352602084019350602081019050838560208402820111156114e057600080fd5b60005b8381101561151057816114f68882611611565b8452602084019350602083019250506001810190506114e3565b5050505092915050565b600082601f83011261152b57600080fd5b813561153e61153982611e31565b611dd4565b9150818183526020840193506020810190508360005b83811015611584578135860161156a888261163b565b845260208401935060208301925050600181019050611554565b5050505092915050565b600082601f83011261159f57600080fd5b81356115b26115ad82611e5d565b611dd4565b915081818352602084019350602081019050838560208402820111156115d757600080fd5b60005b8381101561160757816115ed888261168f565b8452602084019350602083019250506001810190506115da565b5050505092915050565b6000813590506116208161206f565b92915050565b60008135905061163581612086565b92915050565b600082601f83011261164c57600080fd5b813561165f61165a82611e89565b611dd4565b9150808252602083016020830185838301111561167b57600080fd5b611686838284611fb4565b50505092915050565b60008135905061169e8161209d565b92915050565b600080604083850312156116b757600080fd5b60006116c585828601611482565b92505060206116d68582860161168f565b9150509250929050565b6000806000606084860312156116f557600080fd5b600084013567ffffffffffffffff81111561170f57600080fd5b61171b8682870161158e565b935050602084013567ffffffffffffffff81111561173857600080fd5b61174486828701611497565b925050604084013567ffffffffffffffff81111561176157600080fd5b61176d8682870161151a565b9150509250925092565b60006020828403121561178957600080fd5b600061179784828501611626565b91505092915050565b600080604083850312156117b357600080fd5b600083013567ffffffffffffffff8111156117cd57600080fd5b6117d98582860161163b565b92505060206117ea8582860161168f565b9150509250929050565b60006020828403121561180657600080fd5b60006118148482850161168f565b91505092915050565b60008060006060848603121561183257600080fd5b60006118408682870161168f565b935050602061185186828701611611565b925050604084013567ffffffffffffffff81111561186e57600080fd5b61187a8682870161163b565b9150509250925092565b600080600080600060a0868803121561189c57600080fd5b60006118aa8882890161168f565b95505060206118bb88828901611626565b94505060406118cc8882890161168f565b93505060606118dd88828901611611565b925050608086013567ffffffffffffffff8111156118fa57600080fd5b6119068882890161163b565b9150509295509295909350565b6000806040838503121561192657600080fd5b60006119348582860161168f565b92505060206119458582860161168f565b9150509250929050565b61195881611f6c565b82525050565b61196781611f07565b82525050565b61197681611ef5565b82525050565b61198581611f19565b82525050565b61199c61199782611f19565b611ff6565b82525050565b6119ab81611f25565b82525050565b6119ba81611f7e565b82525050565b60006119cb82611ece565b6119d58185611ed9565b93506119e5818560208601611fc3565b6119ee81612026565b840191505092915050565b6000611a0482611ece565b611a0e8185611eea565b9350611a1e818560208601611fc3565b80840191505092915050565b600081546001811660008114611a475760018114611a6d57611ab1565b607f6002830416611a588187611ed9565b955060ff198316865260208601935050611ab1565b60028204611a7b8187611ed9565b9550611a8685611eb9565b60005b82811015611aa857815481890152600182019150602081019050611a89565b80880195505050505b505092915050565b611ac281611f62565b82525050565b611ad9611ad482611f62565b612008565b82525050565b6000611aeb8286611ac8565b602082019150611afb828561198b565b600182019150611b0b82846119f9565b9150819050949350505050565b6000602082019050611b2d600083018461196d565b92915050565b6000602082019050611b48600083018461194f565b92915050565b6000602082019050611b63600083018461195e565b92915050565b6000604082019050611b7e600083018561196d565b611b8b6020830184611ab9565b9392505050565b6000604082019050611ba760008301856119a2565b611bb46020830184611ab9565b9392505050565b6000602082019050611bd060008301846119b1565b92915050565b60006020820190508181036000830152611bf081846119c0565b905092915050565b6000602082019050611c0d6000830184611ab9565b92915050565b6000606082019050611c286000830186611ab9565b611c35602083018561197c565b8181036040830152611c4781846119c0565b9050949350505050565b600061018082019050611c67600083018f611ab9565b8181036020830152611c79818e6119c0565b9050611c88604083018d611ab9565b611c95606083018c61195e565b611ca2608083018b61195e565b611caf60a083018a61197c565b611cbc60c0830189611ab9565b611cc960e083018861197c565b611cd761010083018761197c565b611ce561012083018661197c565b611cf3610140830185611ab9565b611d01610160830184611ab9565b9d9c50505050505050505050505050565b600060c082019050611d276000830189611ab9565b8181036020830152611d3981886119c0565b9050611d486040830187611ab9565b611d55606083018661195e565b611d62608083018561197c565b611d6f60a08301846119b1565b979650505050505050565b600060a082019050611d8f6000830188611ab9565b8181036020830152611da18187611a2a565b9050611db06040830186611ab9565b611dbd606083018561195e565b611dca608083018461197c565b9695505050505050565b6000604051905081810181811067ffffffffffffffff82111715611dfb57611dfa612024565b5b8060405250919050565b600067ffffffffffffffff821115611e2057611e1f612024565b5b602082029050602081019050919050565b600067ffffffffffffffff821115611e4c57611e4b612024565b5b602082029050602081019050919050565b600067ffffffffffffffff821115611e7857611e77612024565b5b602082029050602081019050919050565b600067ffffffffffffffff821115611ea457611ea3612024565b5b601f19601f8301169050602081019050919050565b60008190508160005260206000209050919050565b600081519050919050565b600082825260208201905092915050565b600081905092915050565b6000611f0082611f42565b9050919050565b6000611f1282611f42565b9050919050565b60008115159050919050565b6000819050919050565b6000819050611f3d82612044565b919050565b600073ffffffffffffffffffffffffffffffffffffffff82169050919050565b6000819050919050565b6000611f7782611f90565b9050919050565b6000611f8982611f2f565b9050919050565b6000611f9b82611fa2565b9050919050565b6000611fad82611f42565b9050919050565b82818337600083830152505050565b60005b83811015611fe1578082015181840152602081019050611fc6565b83811115611ff0576000848401525b50505050565b600061200182612012565b9050919050565b6000819050919050565b600061201d82612037565b9050919050565bfe5b6000601f19601f8301169050919050565b60008160f81b9050919050565b6004811061205557612054612024565b5b50565b61206181611ef5565b811461206c57600080fd5b50565b61207881611f19565b811461208357600080fd5b50565b61208f81611f25565b811461209a57600080fd5b50565b6120a681611f62565b81146120b157600080fd5b5056fea26469706673582212208d93a31186ca081173fd04162cfd41ab1fc9d32737f9d89af9f14edce065ac8264736f6c63430007040033",
  "immutableReferences": {},
  "source": "// SPDX-License-Identifier: GL2PS License\npragma solidity 0.7.4;\npragma experimental ABIEncoderV2;\n/*\n * The above statement is mandatory\n * as it enables support for two levels\n * of dynamic arrays .\n */\n\n\ncontract eShop {\n    string public name;\n    uint public productCount = 0;\n    uint value;//value == price\n\n    //Safely Remote\n    address payable public seller;\n    address payable public buyer;\n\n    //BlindAuction\n    address payable public beneficiary;//seller\n\n    mapping(uint => ProductWithBids) public internalProducts;\n\n    mapping(address => Bid[]) public bids;\n    mapping(address => SecretBids[]) public nakedBids;\n    uint public globalBidsCount = 0;\n\n    address public highestBidder;\n    uint public highestBid;\n\n    // Allowed withdrawals of previous bids\n    mapping(address => uint) pendingReturns;\n\n    enum State {Created, Locked, Release, Inactive}\n    // The state variable has a default value of the first member(Created)\n    State public state;\n\n    modifier onlyBefore(uint _time) {require(block.timestamp < _time);\n        _;}\n    modifier onlyAfter(uint _time) {require(block.timestamp > _time);\n        _;}\n    //modified modifiers TODO\n    //    modifier onlyBefore(uint _time) {require(block.timestamp < _time);\n    //        _;}\n    //    modifier onlyAfter(uint _time) {require(block.timestamp > _time);\n    //        _;}\n\n    modifier condition(bool _condition) {\n        require(_condition);\n        _;\n    }\n\n    modifier onlyBuyer() {\n        require(\n            msg.sender == buyer,\n            \"Only buyer can call this.\"\n        );\n        _;\n    }\n\n    modifier onlySeller() {\n        require(\n            msg.sender == seller,\n            \"Only seller can call this.\"\n        );\n        _;\n    }\n\n    modifier inState(State _state) {\n        require(\n            state == _state,\n            \"Invalid state.\"\n        );\n        _;\n    }\n\n    struct Bid {\n        bytes32 blindedBid;\n        uint deposit;\n    }\n\n    struct SecretBids {\n        uint values;\n        bool fake;\n        string secret;\n    }\n\n    struct ProductWithBids {\n        uint id;\n        string name;\n        uint price;\n        address payable owner;\n        address payable beneficiary;\n        bool purchased;\n        // State state;\n        mapping(address => Bid[]) bids;\n        uint bidsCount;\n        bool ended;\n        bool biddingTime;//TODO delete it\n        bool revealTime;//TODO delete it\n\n        uint biddingEnd;\n        uint revealEnd;\n    }\n\n\n    event ProductCreated(\n        uint id,\n        string name,\n        uint price,\n        address payable owner,\n        bool purchased,\n        State state\n    );\n\n    event ProductPurchased(\n        uint id,\n        string name,\n        uint price,\n        address payable owner,\n        bool purchased\n    );\n\n    //Events for enforcing the safety\n    event Aborted();\n    event PurchaseConfirmed();\n    event ItemReceived();\n    event SellerRefunded();\n\n    event NotRevealedYet(address refunded);\n    event AuctionEnded(address winner, uint highestBid);\n    event NewAuctionBegins();\n    event Revealed(address refunded);\n\n    // Ensure that `msg.value` is an even number.\n    // Division will truncate if it is an odd number.\n    // Check via multiplication that it wasn't an odd number\n    constructor() payable {\n        name = \"Dapp eShop\";\n        seller = msg.sender;\n        beneficiary = msg.sender;\n    }\n\n    function checkBidding(\n        uint _id,\n        bytes32 _blindedBid,\n        uint _values,\n        bool _fake,\n        string memory _secret\n    )\n    public\n    payable {\n        ProductWithBids storage newProduct = internalProducts[_id];\n\n        //onlyBefore\n        if (block.timestamp < newProduct.biddingEnd) {\n            bid(_blindedBid);\n            pushNakedBids(\n                _values,\n                _fake,\n                _secret\n            );\n            newProduct.bidsCount++;\n        }\n        else {\n            newProduct.biddingTime = false;\n            newProduct.revealTime = true;\n        }\n\n    }\n\n    function setAuctionVars(ProductWithBids storage product) internal {\n\n        ProductWithBids storage newProduct = product;\n\n        newProduct.biddingTime = true;\n        newProduct.revealTime = false;\n        newProduct.ended = false;\n        newProduct.bidsCount = 0;\n        newProduct.biddingEnd = block.timestamp + 30;\n        newProduct.revealEnd = newProduct.biddingEnd + 60;\n        //        bidsCount = 0;\n    }\n\n    /// Place a blinded bid with `_blindedBid` =\n    /// keccak256(abi.encodePacked(value, fake, secret)).\n    /// The sent ether is only refunded if the bid is correctly\n    /// revealed in the revealing phase. The bid is valid if the\n    /// ether sent together with the bid is at least \"value\" and\n    /// \"fake\" is not true. Setting \"fake\" to true and sending\n    /// not the exact amount are ways to hide the real bid but\n    /// still make the required deposit. The same address can\n    /// place multiple bids.\n    function bid(bytes32 _blindedBid)\n    public\n    payable\n        //onlyBefore(biddingEnd)\n    {\n        bids[msg.sender].push(Bid({\n        blindedBid : _blindedBid,\n        deposit : msg.value\n        }));\n\n        globalBidsCount++;\n        //        bidsCount++;\n    }\n\n    function pushNakedBids(\n        uint _values,\n        bool _fake,\n        string memory _secret\n    )\n    public\n    payable\n    {\n        nakedBids[msg.sender].push(SecretBids({\n        values : _values,\n        fake : _fake,\n        secret : _secret\n        }));\n    }\n\n    ///secret is just the required string for the matching encoding\n    /// Reveal your blinded bids. You will get a refund for all\n    /// correctly blinded invalid bids and for all bids except for\n    /// the totally highest.\n    function reveal(\n        uint[] memory _values,\n        bool[] memory _fake,\n        string[] memory _secret\n    )\n    public\n    payable\n        //onlyAfter(biddingEnd) TODO Uncomment it\n        //onlyBefore(revealEnd) TODO Uncomment it\n    {\n        uint length = bids[msg.sender].length;\n        require(_values.length == length);\n        require(_fake.length == length);\n        require(_secret.length == length);\n\n        uint refund;\n        for (uint i = 0; i < length; i++) {\n            Bid storage bidToCheck = bids[msg.sender][i];\n            (uint value, bool fake, string memory secret) =\n            (_values[i], _fake[i], _secret[i]);\n            if (bidToCheck.blindedBid != keccak256(abi.encodePacked(value, fake, secret))) {\n                // Bid was not actually revealed.\n                // Do not refund deposit.\n                emit NotRevealedYet(msg.sender);\n                continue;\n            }\n            refund += bidToCheck.deposit;\n            if (!fake && bidToCheck.deposit >= value) {\n                if (placeBid(msg.sender, value))\n                    refund -= value;\n            }\n            // Make it impossible for the sender to re-claim\n            // the same deposit.\n            bidToCheck.blindedBid = bytes32(0);\n        }\n        msg.sender.transfer(refund);\n        //emit event\n        emit Revealed(msg.sender);\n    }\n\n    /// Withdraw a bid that was overbid.\n    //This cant be called by js?3\n    function withdraw() public payable {\n        uint amount = pendingReturns[msg.sender];\n        if (amount > 0) {\n            // It is important to set this to zero because the recipient\n            // can call this function again as part of the receiving call\n            // before `transfer` returns (see the remark above about\n            // conditions -> effects -> interaction).\n            pendingReturns[msg.sender] = 0;\n\n            msg.sender.transfer(amount);\n        }\n    }\n\n    /// End the auction and send the highest bid\n    /// to the beneficiary.\n    function auctionEnd(uint _id)\n    public\n    payable\n        //onlyAfter(revealEnd)\n    {\n        ProductWithBids storage currentProduct = internalProducts[_id];\n\n        require(!currentProduct.ended);\n        emit AuctionEnded(highestBidder, highestBid);\n        currentProduct.ended = true;\n        beneficiary.transfer(highestBid);\n    }\n\n    // This is an \"internal\" function which means that it\n    // can only be called from the contract itself (or from\n    // derived contracts).\n    function placeBid(address bidder, uint value) internal\n    returns (bool success)\n    {\n        if (value <= highestBid) {\n            return false;\n        }\n        if (highestBidder != address(0)) {\n            // Refund the previously highest bidder.\n            pendingReturns[highestBidder] += highestBid;\n        }\n        highestBid = value;\n        highestBidder = bidder;\n        return true;\n    }\n    //End of BlindAuction\n\n\n    function createProduct(string memory _name, uint _price) public {\n        //Require a names\n        require(bytes(_name).length > 0);\n        //Require a valid price\n        require(_price > 0);\n        //increase product productCount\n        productCount ++;\n        /*\n         * Note how in all the functions, a struct type is assigned to\n         * a local variable with data location storage. This does not copy\n         * the struct but only stores a reference so that assignments\n         * to members of the local variable actually write to the state.\n        */\n        ProductWithBids storage newProduct = internalProducts[productCount];\n        //create the product\n        newProduct.id = productCount;\n        newProduct.name = _name;\n        newProduct.price = _price;\n        newProduct.owner = msg.sender;\n        newProduct.beneficiary = msg.sender;\n        newProduct.purchased = false;\n        //newProduct.state = State.Created;\n        //trigger an event\n        emit ProductCreated(productCount, _name, _price, msg.sender, false, State.Created);\n    }\n\n    function beginAuction(ProductWithBids storage product) internal {\n        //\n        // We cannot use \"campaigns[campaignID] = Campaign(beneficiary, goal, 0, 0)\"\n        // because the RHS creates a memory-struct \"Campaign\" that contains a mapping.\n        // productWithBidsCount++;\n        ProductWithBids storage newProduct = product;\n\n        //TODO modify it so it can support multiple auctions at the same time.\n\n        setAuctionVars(newProduct);\n    }\n\n    function purchaseProduct(uint _id) public payable {\n        //Fetch the Product\n        ProductWithBids storage _product = internalProducts[_id];\n        //Fetch the owner\n        address payable _seller = _product.owner;\n        //Make sure the product has valid id\n        require(_product.id > 0 && _product.id <= productCount);\n        //Require that there is enough Ether in the transaction\n        require(msg.value >= _product.price);\n        //Require that the product has not been purchased already\n        require(!_product.purchased);\n        //Require that the buyer is not the _seller\n        require(_seller != msg.sender);\n        //Transfer ownership to the buyer\n        _product.owner = msg.sender;\n        //Mark as purchasedProduct\n        _product.purchased = true;\n        //update the product maybe we dont need it anymore cause of storage type\n        //internalProducts[_id] = _product;\n        //Pay the seller by sending them Ether\n        _seller.transfer(msg.value);\n        //trigger an event\n        emit ProductPurchased(productCount, _product.name, _product.price, msg.sender, true);\n        //..beginAuction\n        beginAuction(_product);\n    }\n\n    //Public setter\n    function updateBiddingEnd(uint _id, uint _biddingEnd) public {\n        //Fetch the Product\n        //ProductWithBids storage product = internalProducts[_id];\n        //updateTheBidding\n        // product.biddingEnd = _biddingEnd;\n    }\n}\n\n// TODO eshop\n",
  "sourcePath": "/home/flexyusr/workspaces/GeorgePap-719/Blockchain/BlockChainEshop/src/contracts/eShop.sol",
  "compiler": {
    "name": "solc",
    "version": "0.7.4+commit.3f05b770.Emscripten.clang"
  },
  "schemaVersion": "3.3.4",
  "updatedAt": "2021-03-16T14:18:14.407Z",
  "networkType": "ethereum",
  "devdoc": {
    "kind": "dev",
    "methods": {},
    "version": 1
  },
  "userdoc": {
    "kind": "user",
    "methods": {
      "auctionEnd(uint256)": {
        "notice": "End the auction and send the highest bid to the beneficiary."
      },
      "bid(bytes32)": {
        "notice": "Place a blinded bid with `_blindedBid` = keccak256(abi.encodePacked(value, fake, secret)). The sent ether is only refunded if the bid is correctly revealed in the revealing phase. The bid is valid if the ether sent together with the bid is at least \"value\" and \"fake\" is not true. Setting \"fake\" to true and sending not the exact amount are ways to hide the real bid but still make the required deposit. The same address can place multiple bids."
      },
      "reveal(uint256[],bool[],string[])": {
        "notice": "secret is just the required string for the matching encoding Reveal your blinded bids. You will get a refund for all correctly blinded invalid bids and for all bids except for the totally highest."
      },
      "withdraw()": {
        "notice": "Withdraw a bid that was overbid."
      }
    },
    "version": 1
  }
}