{
  "contractName": "eShop",
  "abi": [
    {
      "constant": true,
      "inputs": [],
      "name": "name",
      "outputs": [
        {
          "name": "",
          "type": "string"
        }
      ],
      "payable": false,
      "stateMutability": "view",
      "type": "function"
    },
    {
      "constant": true,
      "inputs": [],
      "name": "seller",
      "outputs": [
        {
          "name": "",
          "type": "address"
        }
      ],
      "payable": false,
      "stateMutability": "view",
      "type": "function"
    },
    {
      "constant": true,
      "inputs": [],
      "name": "buyer",
      "outputs": [
        {
          "name": "",
          "type": "address"
        }
      ],
      "payable": false,
      "stateMutability": "view",
      "type": "function"
    },
    {
      "constant": true,
      "inputs": [
        {
          "name": "",
          "type": "uint256"
        }
      ],
      "name": "products",
      "outputs": [
        {
          "name": "id",
          "type": "uint256"
        },
        {
          "name": "name",
          "type": "string"
        },
        {
          "name": "price",
          "type": "uint256"
        },
        {
          "name": "owner",
          "type": "address"
        },
        {
          "name": "purchased",
          "type": "bool"
        },
        {
          "name": "state",
          "type": "uint8"
        }
      ],
      "payable": false,
      "stateMutability": "view",
      "type": "function"
    },
    {
      "constant": true,
      "inputs": [],
      "name": "state",
      "outputs": [
        {
          "name": "",
          "type": "uint8"
        }
      ],
      "payable": false,
      "stateMutability": "view",
      "type": "function"
    },
    {
      "constant": true,
      "inputs": [],
      "name": "productCount",
      "outputs": [
        {
          "name": "",
          "type": "uint256"
        }
      ],
      "payable": false,
      "stateMutability": "view",
      "type": "function"
    },
    {
      "inputs": [],
      "payable": true,
      "stateMutability": "payable",
      "type": "constructor"
    },
    {
      "anonymous": false,
      "inputs": [
        {
          "indexed": false,
          "name": "id",
          "type": "uint256"
        },
        {
          "indexed": false,
          "name": "name",
          "type": "string"
        },
        {
          "indexed": false,
          "name": "price",
          "type": "uint256"
        },
        {
          "indexed": false,
          "name": "owner",
          "type": "address"
        },
        {
          "indexed": false,
          "name": "purchased",
          "type": "bool"
        },
        {
          "indexed": false,
          "name": "state",
          "type": "uint8"
        }
      ],
      "name": "ProductCreated",
      "type": "event"
    },
    {
      "anonymous": false,
      "inputs": [
        {
          "indexed": false,
          "name": "id",
          "type": "uint256"
        },
        {
          "indexed": false,
          "name": "name",
          "type": "string"
        },
        {
          "indexed": false,
          "name": "price",
          "type": "uint256"
        },
        {
          "indexed": false,
          "name": "owner",
          "type": "address"
        },
        {
          "indexed": false,
          "name": "purchased",
          "type": "bool"
        }
      ],
      "name": "ProductPurchased",
      "type": "event"
    },
    {
      "anonymous": false,
      "inputs": [],
      "name": "Aborted",
      "type": "event"
    },
    {
      "anonymous": false,
      "inputs": [],
      "name": "PurchaseConfirmed",
      "type": "event"
    },
    {
      "anonymous": false,
      "inputs": [],
      "name": "ItemReceived",
      "type": "event"
    },
    {
      "anonymous": false,
      "inputs": [],
      "name": "SellerRefunded",
      "type": "event"
    },
    {
      "constant": false,
      "inputs": [],
      "name": "abort",
      "outputs": [],
      "payable": false,
      "stateMutability": "nonpayable",
      "type": "function"
    },
    {
      "constant": false,
      "inputs": [
        {
          "name": "_id",
          "type": "uint256"
        }
      ],
      "name": "confirmPurchase",
      "outputs": [],
      "payable": true,
      "stateMutability": "payable",
      "type": "function"
    },
    {
      "constant": false,
      "inputs": [],
      "name": "confirmReceived",
      "outputs": [],
      "payable": false,
      "stateMutability": "nonpayable",
      "type": "function"
    },
    {
      "constant": false,
      "inputs": [],
      "name": "refundSeller",
      "outputs": [],
      "payable": false,
      "stateMutability": "nonpayable",
      "type": "function"
    },
    {
      "constant": false,
      "inputs": [
        {
          "name": "_name",
          "type": "string"
        },
        {
          "name": "_price",
          "type": "uint256"
        }
      ],
      "name": "createProduct",
      "outputs": [],
      "payable": false,
      "stateMutability": "nonpayable",
      "type": "function"
    },
    {
      "constant": false,
      "inputs": [
        {
          "name": "_id",
          "type": "uint256"
        }
      ],
      "name": "purchaseProduct",
      "outputs": [],
      "payable": true,
      "stateMutability": "payable",
      "type": "function"
    },
    {
      "constant": false,
      "inputs": [
        {
          "name": "_id",
          "type": "uint256"
        }
      ],
      "name": "purchaseProductPhase1",
      "outputs": [],
      "payable": true,
      "stateMutability": "payable",
      "type": "function"
    }
  ],
  "bytecode": "0x608060405260006001556040518060400160405280600a81526020017f44617070206553686f700000000000000000000000000000000000000000000081525060009080519060200190620000569291906200012b565b5033600460006101000a81548173ffffffffffffffffffffffffffffffffffffffff021916908373ffffffffffffffffffffffffffffffffffffffff16021790555060023481620000a357fe5b04600381905550346003546002021462000125576040517f08c379a00000000000000000000000000000000000000000000000000000000081526004018080602001828103825260158152602001807f56616c75652068617320746f206265206576656e2e000000000000000000000081525060200191505060405180910390fd5b620001da565b828054600181600116156101000203166002900490600052602060002090601f016020900481019282601f106200016e57805160ff19168380011785556200019f565b828001600101855582156200019f579182015b828111156200019e57825182559160200191906001019062000181565b5b509050620001ae9190620001b2565b5090565b620001d791905b80821115620001d3576000816000905550600101620001b9565b5090565b90565b6116d880620001ea6000396000f3fe6080604052600436106100c25760003560e01c806373fac6f01161007f578063c7981b1b11610059578063c7981b1b146103dd578063e0f6ef87146103f4578063e9300c6c1461041f578063eca5f28e146104f1576100c2565b806373fac6f0146102785780637acc0b201461028f578063c19d93fb146103a4576100c2565b806306fdde03146100c757806308551a531461015757806335a063b4146101ae57806338e76a03146101c55780634d24e902146101f35780637150d8ae14610221575b600080fd5b3480156100d357600080fd5b506100dc61051f565b6040518080602001828103825283818151815260200191508051906020019080838360005b8381101561011c578082015181840152602081019050610101565b50505050905090810190601f1680156101495780820380516001836020036101000a031916815260200191505b509250505060405180910390f35b34801561016357600080fd5b5061016c6105bd565b604051808273ffffffffffffffffffffffffffffffffffffffff1673ffffffffffffffffffffffffffffffffffffffff16815260200191505060405180910390f35b3480156101ba57600080fd5b506101c36105e3565b005b6101f1600480360360208110156101db57600080fd5b8101908080359060200190929190505050610815565b005b61021f6004803603602081101561020957600080fd5b8101908080359060200190929190505050610c7a565b005b34801561022d57600080fd5b50610236610dbe565b604051808273ffffffffffffffffffffffffffffffffffffffff1673ffffffffffffffffffffffffffffffffffffffff16815260200191505060405180910390f35b34801561028457600080fd5b5061028d610de4565b005b34801561029b57600080fd5b506102c8600480360360208110156102b257600080fd5b8101908080359060200190929190505050611001565b60405180878152602001806020018681526020018573ffffffffffffffffffffffffffffffffffffffff1673ffffffffffffffffffffffffffffffffffffffff1681526020018415151515815260200183600381111561032457fe5b60ff168152602001828103825287818151815260200191508051906020019080838360005b83811015610364578082015181840152602081019050610349565b50505050905090810190601f1680156103915780820380516001836020036101000a031916815260200191505b5097505050505050505060405180910390f35b3480156103b057600080fd5b506103b961110f565b604051808260038111156103c957fe5b60ff16815260200191505060405180910390f35b3480156103e957600080fd5b506103f2611122565b005b34801561040057600080fd5b50610409611342565b6040518082815260200191505060405180910390f35b34801561042b57600080fd5b506104ef6004803603604081101561044257600080fd5b810190808035906020019064010000000081111561045f57600080fd5b82018360208201111561047157600080fd5b8035906020019184600183028401116401000000008311171561049357600080fd5b91908080601f016020809104026020016040519081016040528093929190818152602001838380828437600081840152601f19601f82011690508083019250505050505050919291929080359060200190929190505050611348565b005b61051d6004803603602081101561050757600080fd5b81019080803590602001909291905050506115ab565b005b60008054600181600116156101000203166002900480601f0160208091040260200160405190810160405280929190818152602001828054600181600116156101000203166002900480156105b55780601f1061058a576101008083540402835291602001916105b5565b820191906000526020600020905b81548152906001019060200180831161059857829003601f168201915b505050505081565b600460009054906101000a900473ffffffffffffffffffffffffffffffffffffffff1681565b600460009054906101000a900473ffffffffffffffffffffffffffffffffffffffff1673ffffffffffffffffffffffffffffffffffffffff163373ffffffffffffffffffffffffffffffffffffffff16146106a6576040517f08c379a000000000000000000000000000000000000000000000000000000000815260040180806020018281038252601a8152602001807f4f6e6c792073656c6c65722063616e2063616c6c20746869732e00000000000081525060200191505060405180910390fd5b60008060038111156106b457fe5b600560149054906101000a900460ff1660038111156106cf57fe5b14610742576040517f08c379a000000000000000000000000000000000000000000000000000000000815260040180806020018281038252600e8152602001807f496e76616c69642073746174652e00000000000000000000000000000000000081525060200191505060405180910390fd5b7f72c874aeff0b183a56e2b79c71b46e1aed4dee5e09862134b8821ba2fddbf8bf60405160405180910390a16003600560146101000a81548160ff0219169083600381111561078d57fe5b0217905550600460009054906101000a900473ffffffffffffffffffffffffffffffffffffffff1673ffffffffffffffffffffffffffffffffffffffff166108fc3073ffffffffffffffffffffffffffffffffffffffff16319081150290604051600060405180830381858888f19350505050158015610811573d6000803e3d6000fd5b5050565b61081d6115ae565b600260008381526020019081526020016000206040518060c001604052908160008201548152602001600182018054600181600116156101000203166002900480601f0160208091040260200160405190810160405280929190818152602001828054600181600116156101000203166002900480156108de5780601f106108b3576101008083540402835291602001916108de565b820191906000526020600020905b8154815290600101906020018083116108c157829003601f168201915b50505050508152602001600282015481526020016003820160009054906101000a900473ffffffffffffffffffffffffffffffffffffffff1673ffffffffffffffffffffffffffffffffffffffff1673ffffffffffffffffffffffffffffffffffffffff1681526020016003820160149054906101000a900460ff161515151581526020016003820160159054906101000a900460ff16600381111561098057fe5b600381111561098b57fe5b815250509050600081606001519050600082600001511180156109b45750600154826000015111155b6109bd57600080fd5b81604001513410156109ce57600080fd5b8160800151156109dd57600080fd5b3373ffffffffffffffffffffffffffffffffffffffff168173ffffffffffffffffffffffffffffffffffffffff161415610a1657600080fd5b33826060019073ffffffffffffffffffffffffffffffffffffffff16908173ffffffffffffffffffffffffffffffffffffffff168152505060018260800190151590811515815250508160026000858152602001908152602001600020600082015181600001556020820151816001019080519060200190610a99929190611607565b506040820151816002015560608201518160030160006101000a81548173ffffffffffffffffffffffffffffffffffffffff021916908373ffffffffffffffffffffffffffffffffffffffff16021790555060808201518160030160146101000a81548160ff02191690831515021790555060a08201518160030160156101000a81548160ff02191690836003811115610b2f57fe5b02179055509050508073ffffffffffffffffffffffffffffffffffffffff166108fc349081150290604051600060405180830381858888f19350505050158015610b7d573d6000803e3d6000fd5b507f79558d0d7d4d900e2f15c4cc0a665f1acdbe415e44de900ecdd1e5bf12b56f4e6001548360200151846040015133600160405180868152602001806020018581526020018473ffffffffffffffffffffffffffffffffffffffff1673ffffffffffffffffffffffffffffffffffffffff16815260200183151515158152602001828103825286818151815260200191508051906020019080838360005b83811015610c37578082015181840152602081019050610c1c565b50505050905090810190601f168015610c645780820380516001836020036101000a031916815260200191505b50965050505050505060405180910390a1505050565b6000806003811115610c8857fe5b600560149054906101000a900460ff166003811115610ca357fe5b14610d16576040517f08c379a000000000000000000000000000000000000000000000000000000000815260040180806020018281038252600e8152602001807f496e76616c69642073746174652e00000000000000000000000000000000000081525060200191505060405180910390fd5b600354600202341480610d2857600080fd5b7fd5d55c8a68912e9a110618df8d5e2e83b8d83211c57a8ddd1203df92885dc88160405160405180910390a133600560006101000a81548173ffffffffffffffffffffffffffffffffffffffff021916908373ffffffffffffffffffffffffffffffffffffffff1602179055506001600560146101000a81548160ff02191690836003811115610db457fe5b0217905550505050565b600560009054906101000a900473ffffffffffffffffffffffffffffffffffffffff1681565b600560009054906101000a900473ffffffffffffffffffffffffffffffffffffffff1673ffffffffffffffffffffffffffffffffffffffff163373ffffffffffffffffffffffffffffffffffffffff1614610ea7576040517f08c379a00000000000000000000000000000000000000000000000000000000081526004018080602001828103825260198152602001807f4f6e6c792062757965722063616e2063616c6c20746869732e0000000000000081525060200191505060405180910390fd5b6001806003811115610eb557fe5b600560149054906101000a900460ff166003811115610ed057fe5b14610f43576040517f08c379a000000000000000000000000000000000000000000000000000000000815260040180806020018281038252600e8152602001807f496e76616c69642073746174652e00000000000000000000000000000000000081525060200191505060405180910390fd5b7fe89152acd703c9d8c7d28829d443260b411454d45394e7995815140c8cbcbcf760405160405180910390a16002600560146101000a81548160ff02191690836003811115610f8e57fe5b0217905550600560009054906101000a900473ffffffffffffffffffffffffffffffffffffffff1673ffffffffffffffffffffffffffffffffffffffff166108fc6003549081150290604051600060405180830381858888f19350505050158015610ffd573d6000803e3d6000fd5b5050565b6002602052806000526040600020600091509050806000015490806001018054600181600116156101000203166002900480601f0160208091040260200160405190810160405280929190818152602001828054600181600116156101000203166002900480156110b35780601f10611088576101008083540402835291602001916110b3565b820191906000526020600020905b81548152906001019060200180831161109657829003601f168201915b5050505050908060020154908060030160009054906101000a900473ffffffffffffffffffffffffffffffffffffffff16908060030160149054906101000a900460ff16908060030160159054906101000a900460ff16905086565b600560149054906101000a900460ff1681565b600460009054906101000a900473ffffffffffffffffffffffffffffffffffffffff1673ffffffffffffffffffffffffffffffffffffffff163373ffffffffffffffffffffffffffffffffffffffff16146111e5576040517f08c379a000000000000000000000000000000000000000000000000000000000815260040180806020018281038252601a8152602001807f4f6e6c792073656c6c65722063616e2063616c6c20746869732e00000000000081525060200191505060405180910390fd5b60028060038111156111f357fe5b600560149054906101000a900460ff16600381111561120e57fe5b14611281576040517f08c379a000000000000000000000000000000000000000000000000000000000815260040180806020018281038252600e8152602001807f496e76616c69642073746174652e00000000000000000000000000000000000081525060200191505060405180910390fd5b7ffda69c32bcfdba840a167777906b173b607eb8b4d8853b97a80d26e613d858db60405160405180910390a16003600560146101000a81548160ff021916908360038111156112cc57fe5b0217905550600460009054906101000a900473ffffffffffffffffffffffffffffffffffffffff1673ffffffffffffffffffffffffffffffffffffffff166108fc6003546003029081150290604051600060405180830381858888f1935050505015801561133e573d6000803e3d6000fd5b5050565b60015481565b600082511161135657600080fd5b6000811161136357600080fd5b6001600081548092919060010191905055506040518060c0016040528060015481526020018381526020018281526020013373ffffffffffffffffffffffffffffffffffffffff168152602001600015158152602001600060038111156113c657fe5b815250600260006001548152602001908152602001600020600082015181600001556020820151816001019080519060200190611404929190611607565b506040820151816002015560608201518160030160006101000a81548173ffffffffffffffffffffffffffffffffffffffff021916908373ffffffffffffffffffffffffffffffffffffffff16021790555060808201518160030160146101000a81548160ff02191690831515021790555060a08201518160030160156101000a81548160ff0219169083600381111561149a57fe5b02179055509050507f181e50d5e9f602d3b5eaa51bec386c6ed248eda88ff15dd9c37c212376b7783860015483833360008060405180878152602001806020018681526020018573ffffffffffffffffffffffffffffffffffffffff1673ffffffffffffffffffffffffffffffffffffffff1681526020018415151515815260200183600381111561152857fe5b60ff168152602001828103825287818151815260200191508051906020019080838360005b8381101561156857808201518184015260208101905061154d565b50505050905090810190601f1680156115955780820380516001836020036101000a031916815260200191505b5097505050505050505060405180910390a15050565b50565b6040518060c00160405280600081526020016060815260200160008152602001600073ffffffffffffffffffffffffffffffffffffffff1681526020016000151581526020016000600381111561160157fe5b81525090565b828054600181600116156101000203166002900490600052602060002090601f016020900481019282601f1061164857805160ff1916838001178555611676565b82800160010185558215611676579182015b8281111561167557825182559160200191906001019061165a565b5b5090506116839190611687565b5090565b6116a991905b808211156116a557600081600090555060010161168d565b5090565b9056fea165627a7a723058208e3ce12552b849fa16b2abde6238370feb2e06be6a34a0b786cc61a466b81b9a0029",
  "source": "pragma solidity ^0.5.0;\n\ncontract eShop {\n    string public name;\n    uint public productCount = 0;\n    mapping(uint => Product) public products;\n    uint value;//value == price\n\n    //Safely Remote\n    address payable public seller;\n    address payable public buyer;\n    //Check if its preferable to transfer\n    //the safety mechanism in another contract TODO\n\n    enum State {Created, Locked, Release, Inactive}\n    // The state variable has a default value of the first member(Created)\n    State public state;\n\n  modifier condition(bool _condition) {\n       require(_condition);\n       _;\n   }\n\n  modifier onlyBuyer() {\n        require(\n            msg.sender == buyer,\n            \"Only buyer can call this.\"\n        );\n        _;\n    }\n\n  modifier onlySeller() {\n        require(\n            msg.sender == seller,\n            \"Only seller can call this.\"\n        );\n        _;\n    }\n\n  modifier inState(State _state) {\n        require(\n            state == _state,\n            \"Invalid state.\"\n        );\n        _;\n    }\n\n\n    struct Product {\n        uint id;\n        string name;\n        uint price;\n        address payable owner;\n        bool purchased;\n        State state;\n    }\n\nevent ProductCreated(\n    uint id,\n    string name,\n    uint price,\n    address payable owner,\n    bool purchased,\n    State state\n);\n\nevent ProductPurchased(\n  uint id,\n  string name,\n  uint price,\n  address payable owner,\n  bool purchased\n);\n\n    //Events for enforcing the safety\n    event Aborted();\n    event PurchaseConfirmed();\n    event ItemReceived();\n    event SellerRefunded();\n\n  // Ensure that `msg.value` is an even number.\n  // Division will truncate if it is an odd number.\n  // Check via multiplication that it wasn't an odd number\n    constructor() public payable {\n        name = \"Dapp eShop\";\n        seller = msg.sender;\n        value = msg.value / 2;\n        require((2 * value) == msg.value, \"Value has to be even.\");\n    }\n\n  /// Abort the purchase and reclaim the ether.\n  /// Can only be called by the seller before\n /// the contract is locked.\n   function abort()\n      public\n      onlySeller\n      inState(State.Created)\n  {\n    emit Aborted();\n    state = State.Inactive;\n    // We use transfer here directly. It is\n      // reentrancy-safe, because it is the\n      // last call in this function and we\n      // already changed the state.\n      seller.transfer(address(this).balance);\n  }\n\n    /// Confirm the purchase as buyer.\n    /// Transaction has to include `2 * value` ether.\n    /// The ether will be locked until confirmReceived\n    /// is called.\n    //Note: i will change this , to be able to be called\n    //by both parties , so the buyer can have some avtual\n    //time to change his time and abort the transaction\n    function confirmPurchase(uint _id)\n    public\n    inState(State.Created)\n    condition(msg.value == (2 * value))\n    payable\n    {\n        emit PurchaseConfirmed();\n        buyer = msg.sender;\n        state = State.Locked;\n    }\n\n   /// Confirm that you (the buyer) received the item.\n   /// This will release the locked ether.\n   function confirmReceived()\n       public\n       onlyBuyer\n       inState(State.Locked)\n   {\n       emit ItemReceived();\n       // It is important to change the state first because\n       // otherwise, the contracts called using `send` below\n       // can call in again here.\n       state = State.Release;\n\n       buyer.transfer(value);\n   }\n\n   /// This function refunds the seller, i.e.\n   /// pays back the locked funds of the seller.\n   function refundSeller()\n       public\n       onlySeller\n       inState(State.Release)\n   {\n       emit SellerRefunded();\n       // It is important to change the state first because\n       // otherwise, the contracts called using `send` below\n       // can call in again here.\n       state = State.Inactive;\n\n       seller.transfer(3 * value);\n   }\n\n  function createProduct(string memory _name, uint _price) public {\n      //Require a names\n      require(bytes(_name).length > 0);\n      //Require a valid price\n      require(_price > 0);\n      //increase product productCount\n      productCount ++;\n      //create the product\n      products[productCount] = Product(\n          productCount,\n          _name,\n          _price,\n          msg.sender,\n          false,\n          State.Created);\n      //trigger an event\n      emit ProductCreated(productCount, _name, _price, msg.sender, false, State.Created);\n\n\n      //Seller must also pay 2*value of the product he lists. TODO\n\n  }\n\nfunction purchaseProduct(uint _id) public payable {\n  //Fetch the Product\n  Product memory _product = products[_id];\n  //Fetch the owner\n  address payable _seller = _product.owner;\n  //Make sure the product has valid id\n  require(_product.id > 0 && _product.id <= productCount);\n  //Require that there is enough Ether in the transaction\n  require(msg.value >= _product.price);\n  //Require that the product has not been purchased already\n  require(!_product.purchased);\n  //Require that the buyer is not the _seller\n  require(_seller != msg.sender);\n  //Transfer ownership to the buyer\n  _product.owner = msg.sender;\n    //Mark as purchasedProduct\n    _product.purchased = true;\n    //update the product\n    products[_id] = _product;\n    //Pay the seller by sending them Ether\n    address(_seller).transfer(msg.value);\n    //trigger an event\n    emit ProductPurchased(productCount, _product.name, _product.price, msg.sender, true);\n}\n\n    function purchaseProductPhase1(uint _id) public payable {\n        //Function to lock the ether first\n        //then we will get to the secondphase which will be\n        //either confirm or Abort\n\n    }\n\n\n}\n// TODO eshop\n",
  "sourcePath": "/home/geopapadopoulos/BlockChainTestsAndProjects/eshopBlockchain/src/contracts/eShop.sol",
  "compiler": {
    "name": "solc",
    "version": "0.5.8+commit.23d335f2.Emscripten.clang"
  },
  "schemaVersion": "3.0.16",
  "updatedAt": "2020-10-21T10:19:08.931Z",
  "devdoc": {
    "methods": {}
  },
  "userdoc": {
    "methods": {
      "abort()": {
        "notice": "Abort the purchase and reclaim the ether. Can only be called by the seller before the contract is locked."
      },
      "confirmPurchase(uint256)": {
        "notice": "Confirm the purchase as buyer. Transaction has to include `2 * value` ether. The ether will be locked until confirmReceived is called."
      },
      "confirmReceived()": {
        "notice": "Confirm that you (the buyer) received the item. This will release the locked ether."
      },
      "refundSeller()": {
        "notice": "This function refunds the seller, i.e. pays back the locked funds of the seller."
      }
    }
  }
}