{
  "contractName": "eShop",
  "abi": [
    {
      "inputs": [],
      "stateMutability": "payable",
      "type": "constructor",
      "payable": true
    },
    {
      "anonymous": false,
      "inputs": [
        {
          "indexed": false,
          "internalType": "address",
          "name": "winner",
          "type": "address"
        },
        {
          "indexed": false,
          "internalType": "uint256",
          "name": "highestBid",
          "type": "uint256"
        }
      ],
      "name": "AuctionEnded",
      "type": "event"
    },
    {
      "anonymous": false,
      "inputs": [],
      "name": "DidNotMeetRequireYet",
      "type": "event"
    },
    {
      "anonymous": false,
      "inputs": [],
      "name": "IWillReturnTrue",
      "type": "event"
    },
    {
      "anonymous": false,
      "inputs": [],
      "name": "NewAuctionBegins",
      "type": "event"
    },
    {
      "anonymous": false,
      "inputs": [
        {
          "indexed": false,
          "internalType": "address",
          "name": "refunded",
          "type": "address"
        }
      ],
      "name": "NotRevealedYet",
      "type": "event"
    },
    {
      "anonymous": false,
      "inputs": [
        {
          "indexed": false,
          "internalType": "uint256",
          "name": "id",
          "type": "uint256"
        },
        {
          "indexed": false,
          "internalType": "string",
          "name": "name",
          "type": "string"
        },
        {
          "indexed": false,
          "internalType": "uint256",
          "name": "price",
          "type": "uint256"
        },
        {
          "indexed": false,
          "internalType": "address payable",
          "name": "owner",
          "type": "address"
        },
        {
          "indexed": false,
          "internalType": "bool",
          "name": "purchased",
          "type": "bool"
        }
      ],
      "name": "ProductCreated",
      "type": "event"
    },
    {
      "anonymous": false,
      "inputs": [
        {
          "indexed": false,
          "internalType": "uint256",
          "name": "id",
          "type": "uint256"
        },
        {
          "indexed": false,
          "internalType": "string",
          "name": "name",
          "type": "string"
        },
        {
          "indexed": false,
          "internalType": "uint256",
          "name": "price",
          "type": "uint256"
        },
        {
          "indexed": false,
          "internalType": "address payable",
          "name": "owner",
          "type": "address"
        },
        {
          "indexed": false,
          "internalType": "bool",
          "name": "purchased",
          "type": "bool"
        }
      ],
      "name": "ProductPurchased",
      "type": "event"
    },
    {
      "anonymous": false,
      "inputs": [
        {
          "indexed": false,
          "internalType": "address",
          "name": "refunded",
          "type": "address"
        }
      ],
      "name": "Revealed",
      "type": "event"
    },
    {
      "anonymous": false,
      "inputs": [
        {
          "indexed": false,
          "internalType": "uint256",
          "name": "value",
          "type": "uint256"
        }
      ],
      "name": "deposit",
      "type": "event"
    },
    {
      "anonymous": false,
      "inputs": [
        {
          "indexed": false,
          "internalType": "uint256",
          "name": "value",
          "type": "uint256"
        }
      ],
      "name": "depositValue",
      "type": "event"
    },
    {
      "anonymous": false,
      "inputs": [
        {
          "indexed": false,
          "internalType": "bool",
          "name": "flag",
          "type": "bool"
        }
      ],
      "name": "isFalse",
      "type": "event"
    },
    {
      "anonymous": false,
      "inputs": [
        {
          "indexed": false,
          "internalType": "bool",
          "name": "flag",
          "type": "bool"
        }
      ],
      "name": "isTrue",
      "type": "event"
    },
    {
      "inputs": [],
      "name": "beneficiary",
      "outputs": [
        {
          "internalType": "address payable",
          "name": "",
          "type": "address"
        }
      ],
      "stateMutability": "view",
      "type": "function",
      "constant": true
    },
    {
      "inputs": [],
      "name": "globalBidsCount",
      "outputs": [
        {
          "internalType": "uint256",
          "name": "",
          "type": "uint256"
        }
      ],
      "stateMutability": "view",
      "type": "function",
      "constant": true
    },
    {
      "inputs": [
        {
          "internalType": "uint256",
          "name": "",
          "type": "uint256"
        }
      ],
      "name": "internalProducts",
      "outputs": [
        {
          "internalType": "uint256",
          "name": "id",
          "type": "uint256"
        },
        {
          "internalType": "string",
          "name": "name",
          "type": "string"
        },
        {
          "internalType": "uint256",
          "name": "price",
          "type": "uint256"
        },
        {
          "internalType": "address payable",
          "name": "owner",
          "type": "address"
        },
        {
          "internalType": "address payable",
          "name": "beneficiary",
          "type": "address"
        },
        {
          "internalType": "bool",
          "name": "purchased",
          "type": "bool"
        },
        {
          "internalType": "bool",
          "name": "ended",
          "type": "bool"
        },
        {
          "internalType": "uint256",
          "name": "biddingEnd",
          "type": "uint256"
        },
        {
          "internalType": "uint256",
          "name": "revealEnd",
          "type": "uint256"
        },
        {
          "internalType": "address payable",
          "name": "lowestBidder",
          "type": "address"
        },
        {
          "internalType": "uint256",
          "name": "lowestBid",
          "type": "uint256"
        }
      ],
      "stateMutability": "view",
      "type": "function",
      "constant": true
    },
    {
      "inputs": [],
      "name": "name",
      "outputs": [
        {
          "internalType": "string",
          "name": "",
          "type": "string"
        }
      ],
      "stateMutability": "view",
      "type": "function",
      "constant": true
    },
    {
      "inputs": [],
      "name": "productCount",
      "outputs": [
        {
          "internalType": "uint256",
          "name": "",
          "type": "uint256"
        }
      ],
      "stateMutability": "view",
      "type": "function",
      "constant": true
    },
    {
      "inputs": [],
      "name": "taxCounter",
      "outputs": [
        {
          "internalType": "uint256",
          "name": "",
          "type": "uint256"
        }
      ],
      "stateMutability": "view",
      "type": "function",
      "constant": true
    },
    {
      "inputs": [
        {
          "internalType": "address",
          "name": "",
          "type": "address"
        }
      ],
      "name": "taxes",
      "outputs": [
        {
          "internalType": "uint256",
          "name": "",
          "type": "uint256"
        }
      ],
      "stateMutability": "view",
      "type": "function",
      "constant": true
    },
    {
      "inputs": [
        {
          "internalType": "uint256",
          "name": "",
          "type": "uint256"
        }
      ],
      "name": "transportDeposit",
      "outputs": [
        {
          "internalType": "uint256",
          "name": "",
          "type": "uint256"
        }
      ],
      "stateMutability": "view",
      "type": "function",
      "constant": true
    },
    {
      "inputs": [
        {
          "internalType": "string",
          "name": "_name",
          "type": "string"
        },
        {
          "internalType": "uint256",
          "name": "_price",
          "type": "uint256"
        }
      ],
      "name": "createProduct",
      "outputs": [],
      "stateMutability": "payable",
      "type": "function",
      "payable": true
    },
    {
      "inputs": [
        {
          "internalType": "uint256",
          "name": "_id",
          "type": "uint256"
        }
      ],
      "name": "purchaseProduct",
      "outputs": [],
      "stateMutability": "payable",
      "type": "function",
      "payable": true
    },
    {
      "inputs": [
        {
          "internalType": "uint256",
          "name": "_id",
          "type": "uint256"
        },
        {
          "internalType": "bytes32",
          "name": "_blindedBid",
          "type": "bytes32"
        },
        {
          "internalType": "uint256",
          "name": "_values",
          "type": "uint256"
        },
        {
          "internalType": "bool",
          "name": "_fake",
          "type": "bool"
        },
        {
          "internalType": "string",
          "name": "_secret",
          "type": "string"
        }
      ],
      "name": "checkBidding",
      "outputs": [],
      "stateMutability": "payable",
      "type": "function",
      "payable": true
    },
    {
      "inputs": [
        {
          "internalType": "bytes32",
          "name": "_blindedBid",
          "type": "bytes32"
        },
        {
          "internalType": "uint256",
          "name": "id",
          "type": "uint256"
        }
      ],
      "name": "bid",
      "outputs": [],
      "stateMutability": "payable",
      "type": "function",
      "payable": true
    },
    {
      "inputs": [
        {
          "internalType": "uint256",
          "name": "_values",
          "type": "uint256"
        },
        {
          "internalType": "bool",
          "name": "_fake",
          "type": "bool"
        },
        {
          "internalType": "string",
          "name": "_secret",
          "type": "string"
        },
        {
          "internalType": "uint256",
          "name": "id",
          "type": "uint256"
        }
      ],
      "name": "pushNakedBids",
      "outputs": [],
      "stateMutability": "payable",
      "type": "function",
      "payable": true
    },
    {
      "inputs": [
        {
          "internalType": "uint256[]",
          "name": "_values",
          "type": "uint256[]"
        },
        {
          "internalType": "bool[]",
          "name": "_fake",
          "type": "bool[]"
        },
        {
          "internalType": "string[]",
          "name": "_secret",
          "type": "string[]"
        },
        {
          "internalType": "uint256",
          "name": "_id",
          "type": "uint256"
        }
      ],
      "name": "revealInternal",
      "outputs": [],
      "stateMutability": "payable",
      "type": "function",
      "payable": true
    },
    {
      "inputs": [
        {
          "internalType": "uint256",
          "name": "_id",
          "type": "uint256"
        }
      ],
      "name": "withdraw",
      "outputs": [],
      "stateMutability": "payable",
      "type": "function",
      "payable": true
    },
    {
      "inputs": [
        {
          "internalType": "uint256",
          "name": "_id",
          "type": "uint256"
        }
      ],
      "name": "auctionEnd",
      "outputs": [],
      "stateMutability": "payable",
      "type": "function",
      "payable": true
    },
    {
      "inputs": [
        {
          "internalType": "uint256",
          "name": "_id",
          "type": "uint256"
        }
      ],
      "name": "reveal",
      "outputs": [],
      "stateMutability": "payable",
      "type": "function",
      "payable": true
    },
    {
      "inputs": [
        {
          "internalType": "address payable",
          "name": "_seller",
          "type": "address"
        },
        {
          "internalType": "uint256",
          "name": "_id",
          "type": "uint256"
        }
      ],
      "name": "refundSeller",
      "outputs": [],
      "stateMutability": "payable",
      "type": "function",
      "payable": true
    },
    {
      "inputs": [
        {
          "internalType": "uint256",
          "name": "amount",
          "type": "uint256"
        },
        {
          "internalType": "address payable",
          "name": "buyer",
          "type": "address"
        }
      ],
      "name": "chargeTax",
      "outputs": [
        {
          "internalType": "uint256",
          "name": "tax",
          "type": "uint256"
        }
      ],
      "stateMutability": "payable",
      "type": "function",
      "payable": true
    }
  ],
  "bytecode": "0x608060405260006001556078600555603c60065560006008556000600a556040518060400160405280600a81526020017f44617070206553686f7000000000000000000000000000000000000000000000815250600090805190602001906200006a92919062000071565b5062000127565b828054600181600116156101000203166002900490600052602060002090601f016020900481019282620000a95760008555620000f5565b82601f10620000c457805160ff1916838001178555620000f5565b82800160010185558215620000f5579182015b82811115620000f4578251825591602001919060010190620000d7565b5b50905062000104919062000108565b5090565b5b808211156200012357600081600090555060010162000109565b5090565b61310e80620001376000396000f3fe6080604052600436106101145760003560e01c806398262d3b116100a0578063cd772f5c11610064578063cd772f5c1461035e578063e0f6ef871461037a578063e5e336b8146103a5578063e9300c6c146103c1578063fa50abc6146103dd57610114565b806398262d3b146102815780639fb42aa7146102be578063b63204bc146102e9578063c2ca0ac514610305578063c53144191461032157610114565b806332246e9f116100e757806332246e9f146101c357806338af3eed146101df57806338e76a031461020a5780634c39a15c1461022657806363ee714a1461025657610114565b806306fdde03146101195780631b6b47f8146101445780632e1a7d4d1461018b5780632e7d821d146101a7575b600080fd5b34801561012557600080fd5b5061012e6103f9565b60405161013b9190612a97565b60405180910390f35b34801561015057600080fd5b5061016b60048036038101906101669190612294565b610497565b6040516101829b9a99989796959493929190612cb4565b60405180910390f35b6101a560048036038101906101a09190612294565b610603565b005b6101c160048036038101906101bc919061211d565b6106fd565b005b6101dd60048036038101906101d89190612294565b610793565b005b3480156101eb57600080fd5b506101f4610a0a565b6040516102019190612a38565b60405180910390f35b610224600480360381019061021f9190612294565b610a30565b005b610240600480360381019061023b91906122bd565b610caa565b60405161024d9190612c99565b60405180910390f35b34801561026257600080fd5b5061026b610d6a565b6040516102789190612c99565b60405180910390f35b34801561028d57600080fd5b506102a860048036038101906102a39190612294565b610d70565b6040516102b59190612c99565b60405180910390f35b3480156102ca57600080fd5b506102d3610d88565b6040516102e09190612c99565b60405180910390f35b61030360048036038101906102fe91906122f9565b610d8e565b005b61031f600480360381019061031a9190612294565b610e7c565b005b34801561032d57600080fd5b50610348600480360381019061034391906120f4565b611284565b6040516103559190612c99565b60405180910390f35b61037860048036038101906103739190612204565b61129c565b005b34801561038657600080fd5b5061038f61135f565b60405161039c9190612c99565b60405180910390f35b6103bf60048036038101906103ba9190612159565b611365565b005b6103db60048036038101906103d69190612240565b61180d565b005b6103f760048036038101906103f29190612374565b611a58565b005b60008054600181600116156101000203166002900480601f01602080910402602001604051908101604052809291908181526020018280546001816001161561010002031660029004801561048f5780601f106104645761010080835404028352916020019161048f565b820191906000526020600020905b81548152906001019060200180831161047257829003601f168201915b505050505081565b6004602052806000526040600020600091509050806000015490806001018054600181600116156101000203166002900480601f0160208091040260200160405190810160405280929190818152602001828054600181600116156101000203166002900480156105495780601f1061051e57610100808354040283529160200191610549565b820191906000526020600020905b81548152906001019060200180831161052c57829003601f168201915b5050505050908060020154908060030160009054906101000a900473ffffffffffffffffffffffffffffffffffffffff16908060040160009054906101000a900473ffffffffffffffffffffffffffffffffffffffff16908060040160149054906101000a900460ff16908060090160009054906101000a900460ff169080600a01549080600b01549080600c0160009054906101000a900473ffffffffffffffffffffffffffffffffffffffff169080600d015490508b565b600060046000838152602001908152602001600020905060008160070160003373ffffffffffffffffffffffffffffffffffffffff1673ffffffffffffffffffffffffffffffffffffffff16815260200190815260200160002054905060008111156106f85760008260070160003373ffffffffffffffffffffffffffffffffffffffff1673ffffffffffffffffffffffffffffffffffffffff168152602001908152602001600020819055503373ffffffffffffffffffffffffffffffffffffffff166108fc829081150290604051600060405180830381858888f193505050501580156106f6573d6000803e3d6000fd5b505b505050565b600060036000838152602001908152602001600020549050600081111561078d57600081111561076f578273ffffffffffffffffffffffffffffffffffffffff166108fc829081150290604051600060405180830381858888f1935050505015801561076d573d6000803e3d6000fd5b505b6000600360008481526020019081526020016000208190555061078e565b5b505050565b600060046000838152602001908152602001600020905080600b015442116107f0576040517f08c379a00000000000000000000000000000000000000000000000000000000081526004016107e790612c59565b60405180910390fd5b8060090160009054906101000a900460ff1615610842576040517f08c379a000000000000000000000000000000000000000000000000000000000815260040161083990612b99565b60405180910390fd5b7fdaec4582d5d9595688c8c98545fdd1c696d41c6aeaeb636737e84ed2f5c00eda81600c0160009054906101000a900473ffffffffffffffffffffffffffffffffffffffff1682600d015460405161089b929190612a53565b60405180910390a1600081600d0154600360008581526020019081526020016000205403101580156108dc57508060090160009054906101000a900460ff16155b156109bb5780600c0160009054906101000a900473ffffffffffffffffffffffffffffffffffffffff1673ffffffffffffffffffffffffffffffffffffffff166108fc82600d015483600d0154019081150290604051600060405180830381858888f19350505050158015610955573d6000803e3d6000fd5b50600061098a82600d01548360040160009054906101000a900473ffffffffffffffffffffffffffffffffffffffff16610caa565b905060008183600d015401905080600360008681526020019081526020016000206000828254039250508190555050505b6109e98160040160009054906101000a900473ffffffffffffffffffffffffffffffffffffffff16836106fd565b60018160090160006101000a81548160ff0219169083151502179055505050565b600260009054906101000a900473ffffffffffffffffffffffffffffffffffffffff1681565b600060046000838152602001908152602001600020905060008160030160009054906101000a900473ffffffffffffffffffffffffffffffffffffffff16905060008260000154118015610a8a5750600154826000015411155b610a9357600080fd5b8160020154341015610ada576040517f08c379a0000000000000000000000000000000000000000000000000000000008152600401610ad190612c19565b60405180910390fd5b8160040160149054906101000a900460ff1615610b2c576040517f08c379a0000000000000000000000000000000000000000000000000000000008152600401610b2390612b79565b60405180910390fd5b3373ffffffffffffffffffffffffffffffffffffffff168173ffffffffffffffffffffffffffffffffffffffff161415610b9b576040517f08c379a0000000000000000000000000000000000000000000000000000000008152600401610b9290612bb9565b60405180910390fd5b338260030160006101000a81548173ffffffffffffffffffffffffffffffffffffffff021916908373ffffffffffffffffffffffffffffffffffffffff16021790555060018260040160146101000a81548160ff0219169083151502179055506000610c073433610caa565b90508173ffffffffffffffffffffffffffffffffffffffff166108fc8234039081150290604051600060405180830381858888f19350505050158015610c51573d6000803e3d6000fd5b507f79558d0d7d4d900e2f15c4cc0a665f1acdbe415e44de900ecdd1e5bf12b56f4e600154846001018560020154336001604051610c93959493929190612dc0565b60405180910390a1610ca484611b7c565b50505050565b600060646018840281610cb957fe5b0490506000600960008473ffffffffffffffffffffffffffffffffffffffff1673ffffffffffffffffffffffffffffffffffffffff168152602001908152602001600020541415610d1757600a600081548092919060010191905055505b80600960008473ffffffffffffffffffffffffffffffffffffffff1673ffffffffffffffffffffffffffffffffffffffff1681526020019081526020016000206000828254019250508190555092915050565b600a5481565b60036020528060005260406000206000915090505481565b60085481565b60006004600083815260200190815260200160002090508060060160003373ffffffffffffffffffffffffffffffffffffffff1673ffffffffffffffffffffffffffffffffffffffff168152602001908152602001600020604051806060016040528087815260200186151581526020018581525090806001815401808255809150506001900390600052602060002090600302016000909190919091506000820151816000015560208201518160010160006101000a81548160ff0219169083151502179055506040820151816002019080519060200190610e72929190611e12565b5050505050505050565b600060046000838152602001908152602001600020905080600a01544211610ed9576040517f08c379a0000000000000000000000000000000000000000000000000000000008152600401610ed090612c79565b60405180910390fd5b80600b01544210610f1f576040517f08c379a0000000000000000000000000000000000000000000000000000000008152600401610f1690612ab9565b60405180910390fd5b60008160080160003373ffffffffffffffffffffffffffffffffffffffff1673ffffffffffffffffffffffffffffffffffffffff16815260200190815260200160002054905060608167ffffffffffffffff81118015610f7e57600080fd5b50604051908082528060200260200182016040528015610fad5781602001602082028036833780820191505090505b50905060608267ffffffffffffffff81118015610fc957600080fd5b50604051908082528060200260200182016040528015610ff85781602001602082028036833780820191505090505b50905060608367ffffffffffffffff8111801561101457600080fd5b5060405190808252806020026020018201604052801561104857816020015b60608152602001906001900390816110335790505b50905060005b8481101561126f578560060160003373ffffffffffffffffffffffffffffffffffffffff1673ffffffffffffffffffffffffffffffffffffffff16815260200190815260200160002081815481106110a257fe5b9060005260206000209060030201600001548482815181106110c057fe5b6020026020010181815250508560060160003373ffffffffffffffffffffffffffffffffffffffff1673ffffffffffffffffffffffffffffffffffffffff168152602001908152602001600020818154811061111857fe5b906000526020600020906003020160010160009054906101000a900460ff1683828151811061114357fe5b6020026020010190151590811515815250508560060160003373ffffffffffffffffffffffffffffffffffffffff1673ffffffffffffffffffffffffffffffffffffffff16815260200190815260200160002081815481106111a157fe5b90600052602060002090600302016002018054600181600116156101000203166002900480601f0160208091040260200160405190810160405280929190818152602001828054600181600116156101000203166002900480156112465780601f1061121b57610100808354040283529160200191611246565b820191906000526020600020905b81548152906001019060200180831161122957829003601f168201915b505050505082828151811061125757fe5b6020026020010181905250808060010191505061104e565b5061127c83838389611365565b505050505050565b60096020528060005260406000206000915090505481565b60006004600083815260200190815260200160002090508060050160003373ffffffffffffffffffffffffffffffffffffffff1673ffffffffffffffffffffffffffffffffffffffff168152602001908152602001600020604051806040016040528085815260200134815250908060018154018082558091505060019003906000526020600020906002020160009091909190915060008201518160000155602082015181600101555050600860008154809291906001019190505550505050565b60015481565b600060046000838152602001908152602001600020905080600a015442116113c2576040517f08c379a00000000000000000000000000000000000000000000000000000000081526004016113b990612c79565b60405180910390fd5b80600b01544210611408576040517f08c379a00000000000000000000000000000000000000000000000000000000081526004016113ff90612ab9565b60405180910390fd5b60008160050160003373ffffffffffffffffffffffffffffffffffffffff1673ffffffffffffffffffffffffffffffffffffffff16815260200190815260200160002080549050905080865114611494576040517f08c379a000000000000000000000000000000000000000000000000000000000815260040161148b90612af9565b60405180910390fd5b808551146114d7576040517f08c379a00000000000000000000000000000000000000000000000000000000081526004016114ce90612b19565b60405180910390fd5b8084511461151a576040517f08c379a000000000000000000000000000000000000000000000000000000000815260040161151190612b59565b60405180910390fd5b600080600090505b828110156117855760008460050160003373ffffffffffffffffffffffffffffffffffffffff1673ffffffffffffffffffffffffffffffffffffffff168152602001908152602001600020828154811061157857fe5b9060005260206000209060020201905060008060608b858151811061159957fe5b60200260200101518b86815181106115ad57fe5b60200260200101518b87815181106115c157fe5b60200260200101519250925092508282826040516020016115e4939291906129e4565b60405160208183030381529060405280519060200120846000015414611644577fdc55530f366a0bfc087ce251b8843eee7544b992be75e4c32c645d058a1e21a1336040516116339190612a1d565b60405180910390a150505050611778565b836001015486019550811561168f577f74f13070e50416a85df7e6bfe7f48888d7c026a9cf531e4f13b84555a81441e0826040516116829190612a7c565b60405180910390a1611739565b7f410dbb8b54fa191201458b3e13b2d5743fbe5036056cd0f228131db2c12500bd826040516116be9190612a7c565b60405180910390a17fb6b55f256c3eb337f96418d59e773db6e805074f5e574a2bebb7d7139404361984600101546040516116f99190612c99565b60405180910390a17fe396c2fbbfcfe7f0e7a1f8d391c3c9f1b689c22f2227255be527e20b9404c130836040516117309190612c99565b60405180910390a15b8115801561174b575082846001015410155b156117675761175b33848b611c3d565b156117665782860395505b5b6000801b8460000181905550505050505b8080600101915050611522565b503373ffffffffffffffffffffffffffffffffffffffff166108fc829081150290604051600060405180830381858888f193505050501580156117cc573d6000803e3d6000fd5b507fb43a48f4b5fe1b13780390dc7b039206c4f81535c0fda507c687d7e921eb18bb336040516117fc9190612a1d565b60405180910390a150505050505050565b6000825111611851576040517f08c379a000000000000000000000000000000000000000000000000000000000815260040161184890612bd9565b60405180910390fd5b60008111611894576040517f08c379a000000000000000000000000000000000000000000000000000000000815260040161188b90612ad9565b60405180910390fd5b803410156118d7576040517f08c379a00000000000000000000000000000000000000000000000000000000081526004016118ce90612c39565b60405180910390fd5b60016000815480929190600101919050555060006004600060015481526020019081526020016000209050600060076000600154815260200190815260200160002090506001548160000181905550600154826000018190555083826001019080519060200190611949929190611e12565b50828260020181905550338260030160006101000a81548173ffffffffffffffffffffffffffffffffffffffff021916908373ffffffffffffffffffffffffffffffffffffffff160217905550338260040160006101000a81548173ffffffffffffffffffffffffffffffffffffffff021916908373ffffffffffffffffffffffffffffffffffffffff16021790555060008260040160146101000a81548160ff02191690831515021790555034600360006001548152602001908152602001600020819055507fbc59c0c8165864dcceb377dd07d8f431d4303f8e501cb0a0374a10cc68d718366001548585336000604051611a4a959493929190612d66565b60405180910390a150505050565b846003600082815260200190815260200160002054341115611aaf576040517f08c379a0000000000000000000000000000000000000000000000000000000008152600401611aa690612bf9565b60405180910390fd5b600060046000888152602001908152602001600020905080600a01544210611b0c576040517f08c379a0000000000000000000000000000000000000000000000000000000008152600401611b0390612b39565b60405180910390fd5b611b16868861129c565b611b228585858a610d8e565b8060080160003373ffffffffffffffffffffffffffffffffffffffff1673ffffffffffffffffffffffffffffffffffffffff1681526020019081526020016000206000815480929190600101919050555050505050505050565b6000600460008381526020019081526020016000209050600060076000848152602001908152602001600020905060018160010160006101000a81548160ff021916908315150217905550600082600d018190555060008260090160006101000a81548160ff021916908315150217905550600554420182600a018190555060065482600a01540182600b01819055507f01abca8b1fa21a00a7628a46e1e2c7bd9929c014a47741d62554e4e0088eb5be60405160405180910390a1505050565b600080600460008481526020019081526020016000209050600060076000858152602001908152602001600020905081600d01548510158015611c8f57508060010160009054906101000a900460ff16155b15611c9f57600092505050611e0b565b60008160010160006101000a81548160ff021916908315150217905550600073ffffffffffffffffffffffffffffffffffffffff1682600c0160009054906101000a900473ffffffffffffffffffffffffffffffffffffffff1673ffffffffffffffffffffffffffffffffffffffff1614611d8c5781600d015482600701600084600c0160009054906101000a900473ffffffffffffffffffffffffffffffffffffffff1673ffffffffffffffffffffffffffffffffffffffff1673ffffffffffffffffffffffffffffffffffffffff168152602001908152602001600020600082825401925050819055505b8482600d01819055508582600c0160006101000a81548173ffffffffffffffffffffffffffffffffffffffff021916908373ffffffffffffffffffffffffffffffffffffffff1602179055507f94674a4ea63aea74100725e775ace66ffec6cfe9af2cd1da16a431ba5ce6860a60405160405180910390a16001925050505b9392505050565b828054600181600116156101000203166002900490600052602060002090601f016020900481019282611e485760008555611e8f565b82601f10611e6157805160ff1916838001178555611e8f565b82800160010185558215611e8f579182015b82811115611e8e578251825591602001919060010190611e73565b5b509050611e9c9190611ea0565b5090565b5b80821115611eb9576000816000905550600101611ea1565b5090565b600081359050611ecc81613065565b92915050565b600081359050611ee18161307c565b92915050565b600082601f830112611ef857600080fd5b8135611f0b611f0682612e4b565b612e1a565b91508181835260208401935060208101905083856020840282011115611f3057600080fd5b60005b83811015611f605781611f468882612061565b845260208401935060208301925050600181019050611f33565b5050505092915050565b600082601f830112611f7b57600080fd5b8135611f8e611f8982612e77565b612e1a565b9150818183526020840193506020810190508360005b83811015611fd45781358601611fba888261208b565b845260208401935060208301925050600181019050611fa4565b5050505092915050565b600082601f830112611fef57600080fd5b8135612002611ffd82612ea3565b612e1a565b9150818183526020840193506020810190508385602084028201111561202757600080fd5b60005b83811015612057578161203d88826120df565b84526020840193506020830192505060018101905061202a565b5050505092915050565b60008135905061207081613093565b92915050565b600081359050612085816130aa565b92915050565b600082601f83011261209c57600080fd5b81356120af6120aa82612ecf565b612e1a565b915080825260208301602083018583830111156120cb57600080fd5b6120d6838284612fd5565b50505092915050565b6000813590506120ee816130c1565b92915050565b60006020828403121561210657600080fd5b600061211484828501611ebd565b91505092915050565b6000806040838503121561213057600080fd5b600061213e85828601611ed2565b925050602061214f858286016120df565b9150509250929050565b6000806000806080858703121561216f57600080fd5b600085013567ffffffffffffffff81111561218957600080fd5b61219587828801611fde565b945050602085013567ffffffffffffffff8111156121b257600080fd5b6121be87828801611ee7565b935050604085013567ffffffffffffffff8111156121db57600080fd5b6121e787828801611f6a565b92505060606121f8878288016120df565b91505092959194509250565b6000806040838503121561221757600080fd5b600061222585828601612076565b9250506020612236858286016120df565b9150509250929050565b6000806040838503121561225357600080fd5b600083013567ffffffffffffffff81111561226d57600080fd5b6122798582860161208b565b925050602061228a858286016120df565b9150509250929050565b6000602082840312156122a657600080fd5b60006122b4848285016120df565b91505092915050565b600080604083850312156122d057600080fd5b60006122de858286016120df565b92505060206122ef85828601611ed2565b9150509250929050565b6000806000806080858703121561230f57600080fd5b600061231d878288016120df565b945050602061232e87828801612061565b935050604085013567ffffffffffffffff81111561234b57600080fd5b6123578782880161208b565b9250506060612368878288016120df565b91505092959194509250565b600080600080600060a0868803121561238c57600080fd5b600061239a888289016120df565b95505060206123ab88828901612076565b94505060406123bc888289016120df565b93505060606123cd88828901612061565b925050608086013567ffffffffffffffff8111156123ea57600080fd5b6123f68882890161208b565b9150509295509295909350565b61240c81612f9f565b82525050565b61241b81612f4d565b82525050565b61242a81612f5f565b82525050565b61244161243c82612f5f565b613017565b82525050565b600061245282612f14565b61245c8185612f1f565b935061246c818560208601612fe4565b61247581613047565b840191505092915050565b600061248b82612f14565b6124958185612f30565b93506124a5818560208601612fe4565b80840191505092915050565b6000815460018116600081146124ce57600181146124f457612538565b607f60028304166124df8187612f1f565b955060ff198316865260208601935050612538565b600282046125028187612f1f565b955061250d85612eff565b60005b8281101561252f57815481890152600182019150602081019050612510565b80880195505050505b505092915050565b600061254d601a83612f1f565b91507f5468652072657665616c2070686173652068617320656e6465640000000000006000830152602082019050919050565b600061258d601383612f1f565b91507f5072696365206d7573742062652076616c6964000000000000000000000000006000830152602082019050919050565b60006125cd601483612f1f565b91507f696e76616c6964206c656e6774682076616c75650000000000000000000000006000830152602082019050919050565b600061260d601383612f1f565b91507f696e76616c6964206c656e6774682066616b65000000000000000000000000006000830152602082019050919050565b600061264d601683612f1f565b91507f5468652062696464696e672068617320636c6f736564000000000000000000006000830152602082019050919050565b600061268d601583612f1f565b91507f696e76616c6964206c656e6774682073656372657400000000000000000000006000830152602082019050919050565b60006126cd602083612f1f565b91507f5468652070726f6475637420697320616c7265616479207075726368617365646000830152602082019050919050565b600061270d601d83612f1f565b91507f5468652061756374696f6e2068617320656e64656420616c72656164790000006000830152602082019050919050565b600061274d601f83612f1f565b91507f5468652062757965722063616e206e6f74206265207468652073656c6c6572006000830152602082019050919050565b600061278d601583612f1f565b91507f4974656d206d75737420686176652061206e616d6500000000000000000000006000830152602082019050919050565b60006127cd602583612f1f565b91507f4269642063616e206e6f74206265206d6f7265207468616e206974656d27732060008301527f70726963650000000000000000000000000000000000000000000000000000006020830152604082019050919050565b6000612833601083612f1f565b91507f4e6f7420656e6f756768204574686572000000000000000000000000000000006000830152602082019050919050565b6000612873604a83612f1f565b91507f54686520636f6c6c61746572616c206d73672e76616c7565206d75737420617460008301527f206c656173742062652074776f2074696d657320677261746572207468616e2060208301527f746865206974656d2773000000000000000000000000000000000000000000006040830152606082019050919050565b60006128ff602583612f1f565b91507f4f6e6c79206166746572207468652072657665616c207068617365206861732060008301527f656e6465640000000000000000000000000000000000000000000000000000006020830152604082019050919050565b6000612965602183612f1f565b91507f4f6e6c79206166746572207468652062696464696e672068617320636c6f736560008301527f64000000000000000000000000000000000000000000000000000000000000006020830152604082019050919050565b6129c781612f95565b82525050565b6129de6129d982612f95565b613029565b82525050565b60006129f082866129cd565b602082019150612a008285612430565b600182019150612a108284612480565b9150819050949350505050565b6000602082019050612a326000830184612403565b92915050565b6000602082019050612a4d6000830184612412565b92915050565b6000604082019050612a686000830185612403565b612a7560208301846129be565b9392505050565b6000602082019050612a916000830184612421565b92915050565b60006020820190508181036000830152612ab18184612447565b905092915050565b60006020820190508181036000830152612ad281612540565b9050919050565b60006020820190508181036000830152612af281612580565b9050919050565b60006020820190508181036000830152612b12816125c0565b9050919050565b60006020820190508181036000830152612b3281612600565b9050919050565b60006020820190508181036000830152612b5281612640565b9050919050565b60006020820190508181036000830152612b7281612680565b9050919050565b60006020820190508181036000830152612b92816126c0565b9050919050565b60006020820190508181036000830152612bb281612700565b9050919050565b60006020820190508181036000830152612bd281612740565b9050919050565b60006020820190508181036000830152612bf281612780565b9050919050565b60006020820190508181036000830152612c12816127c0565b9050919050565b60006020820190508181036000830152612c3281612826565b9050919050565b60006020820190508181036000830152612c5281612866565b9050919050565b60006020820190508181036000830152612c72816128f2565b9050919050565b60006020820190508181036000830152612c9281612958565b9050919050565b6000602082019050612cae60008301846129be565b92915050565b600061016082019050612cca600083018e6129be565b8181036020830152612cdc818d612447565b9050612ceb604083018c6129be565b612cf8606083018b612412565b612d05608083018a612412565b612d1260a0830189612421565b612d1f60c0830188612421565b612d2c60e08301876129be565b612d3a6101008301866129be565b612d48610120830185612412565b612d566101408301846129be565b9c9b505050505050505050505050565b600060a082019050612d7b60008301886129be565b8181036020830152612d8d8187612447565b9050612d9c60408301866129be565b612da96060830185612412565b612db66080830184612421565b9695505050505050565b600060a082019050612dd560008301886129be565b8181036020830152612de781876124b1565b9050612df660408301866129be565b612e036060830185612412565b612e106080830184612421565b9695505050505050565b6000604051905081810181811067ffffffffffffffff82111715612e4157612e40613045565b5b8060405250919050565b600067ffffffffffffffff821115612e6657612e65613045565b5b602082029050602081019050919050565b600067ffffffffffffffff821115612e9257612e91613045565b5b602082029050602081019050919050565b600067ffffffffffffffff821115612ebe57612ebd613045565b5b602082029050602081019050919050565b600067ffffffffffffffff821115612eea57612ee9613045565b5b601f19601f8301169050602081019050919050565b60008190508160005260206000209050919050565b600081519050919050565b600082825260208201905092915050565b600081905092915050565b6000612f4682612f75565b9050919050565b6000612f5882612f75565b9050919050565b60008115159050919050565b6000819050919050565b600073ffffffffffffffffffffffffffffffffffffffff82169050919050565b6000819050919050565b6000612faa82612fb1565b9050919050565b6000612fbc82612fc3565b9050919050565b6000612fce82612f75565b9050919050565b82818337600083830152505050565b60005b83811015613002578082015181840152602081019050612fe7565b83811115613011576000848401525b50505050565b600061302282613033565b9050919050565b6000819050919050565b600061303e82613058565b9050919050565bfe5b6000601f19601f8301169050919050565b60008160f81b9050919050565b61306e81612f3b565b811461307957600080fd5b50565b61308581612f4d565b811461309057600080fd5b50565b61309c81612f5f565b81146130a757600080fd5b50565b6130b381612f6b565b81146130be57600080fd5b50565b6130ca81612f95565b81146130d557600080fd5b5056fea2646970667358221220b4892a0bbc475984bf0a20c1d34a2ecd5feffc05c39a3042bb38508a951db5d764736f6c63430007040033",
  "immutableReferences": {},
  "source": "// SPDX-License-Identifier: GL2PS License\npragma solidity 0.7.4;\npragma experimental ABIEncoderV2;\n/*\n * The above statement is mandatory\n * as it enables support for two levels\n * of dynamic arrays .\n */\n/*\n * 1) TODO charge taxes on every transaction and keep\n *    them on a public map. Also display them on a\n *    separate tab.\n *\n * 2) TODO Create separate tabs for every section.\n * 3) TODO make the User set the upper limit for transporting fee.\n*/\ncontract eShop {\n    string public name;\n    uint public productCount = 0;\n    //BlindAuction\n    address payable public beneficiary;//seller\n    //Money for paying the transporter(winner of the auction),\n    //can not be more than the item's price.\n    mapping(uint => uint) public transportDeposit;\n    //main mapping for products\n    mapping(uint => ProductWithBids) public internalProducts;\n    uint biddingTime = 120;\n    uint revealTime = 60;\n    /*\n     * this struct serves only for storing extra\n     * variables since solidity structs can not handle\n     * more than 16 entries in the struct otherwise we\n     * will get error:\n     * Stack too deep when compiling inline assembly.\n     */\n    mapping(uint => AdditionalVars) private extraProductVars;\n    uint public globalBidsCount = 0;\n    //Taxes\n    mapping(address => uint) public taxes;\n    uint public taxCounter = 0;\n\n    modifier maxValue(uint id) {\n        require(\n            msg.value <= transportDeposit[id],\n            \"Bid can not be more than item's price\"\n        );\n        _;\n    }\n\n    // Not used at the moment.\n    //    modifier onlyBefore(uint _time) {require(block.timestamp < _time);\n    //        _;}\n    //    modifier onlyAfter(uint _time) {require(block.timestamp > _time);\n    //    _;}\n\n    struct ProductWithBids {\n        uint id;\n        string name;\n        uint price;\n        address payable owner;\n        address payable beneficiary;\n        bool purchased;\n\n        mapping(address => Bid[]) bids;\n        mapping(address => SecretBids[]) nakedBids;\n        // Allowed withdrawals of previous bids\n        mapping(address => uint) pendingReturns;\n\n        mapping(address => uint) bidsCount;\n        bool ended;\n        uint biddingEnd;\n        uint revealEnd;\n        address payable lowestBidder;\n        uint lowestBid;\n    }\n\n    struct AdditionalVars {\n        uint id;\n        bool firstTime;\n    }\n\n    struct SecretBids {\n        uint values;\n        bool fake;\n        string secret;\n    }\n\n    struct Bid {\n        bytes32 blindedBid;\n        uint deposit;\n    }\n\n    event ProductCreated(\n        uint id,\n        string name,\n        uint price,\n        address payable owner,\n        bool purchased\n    );\n\n    event ProductPurchased(\n        uint id,\n        string name,\n        uint price,\n        address payable owner,\n        bool purchased\n    );\n\n    //Delete them after merge with master\n    //these events are meant only for DEVs\n    event isTrue(bool flag);\n    event isFalse(bool flag);\n    event deposit(uint value);\n    event depositValue(uint value);\n    event IWillReturnTrue();\n    event DidNotMeetRequireYet();\n    event NotRevealedYet(address refunded);\n    //End event DEVs\n\n    event NewAuctionBegins();\n    event AuctionEnded(address winner, uint highestBid);\n    event Revealed(address refunded);\n\n    /// Ensure that `msg.value` is an even number.\n    /// Division will truncate if it is an odd number.\n    /// Check via multiplication that it wasn't an odd number\n    constructor() payable {\n        name = \"Dapp eShop\";\n    }\n\n    //noinspection UnprotectedFunction\n    function createProduct(\n        string memory _name,\n        uint _price\n    )\n    public\n    payable\n    {\n        //Require a name\n        require(bytes(_name).length > 0, \"Item must have a name\");\n        //Require a valid price\n        require(_price > 0, \"Price must be valid\");\n        //Require x2 msg.value of item's price\n        require(msg.value >= _price, \"The collateral msg.value must at least be two times grater than the item's\");\n        //increase product productCount\n        productCount ++;\n        /*\n         * Note how in all the functions, a struct type is assigned to\n         * a local variable with data location storage. This does not copy\n         * the struct but only stores a reference so that assignments\n         * to members of the local variable actually write to the state.\n         *\n         * Also We cannot use \"internalProducts[productCount] = ProductWithBids(id, name, price , etc)\"\n         * because the RHS creates a memory-struct \"ProductWithBids\" that contains a mapping.\n         */\n        //create the product\n        ProductWithBids storage newProduct = internalProducts[productCount];\n        AdditionalVars storage extraVars = extraProductVars[productCount];\n\n        extraVars.id = productCount;\n        newProduct.id = productCount;\n        newProduct.name = _name;\n        newProduct.price = _price;\n        newProduct.owner = msg.sender;\n        newProduct.beneficiary = msg.sender;\n        newProduct.purchased = false;\n        transportDeposit[productCount] = msg.value;\n        //trigger an event\n        emit ProductCreated(productCount, _name, _price, msg.sender, false);\n    }\n\n    function purchaseProduct(uint _id) public payable {\n        //Fetch the Product\n        ProductWithBids storage _product = internalProducts[_id];\n        //Fetch the owner\n        address payable _seller = _product.owner;\n        //Make sure the product has valid id\n        require(_product.id > 0 && _product.id <= productCount);\n        //Require that there is enough Ether in the transaction\n        require(msg.value >= _product.price, \"Not enough Ether\");\n        //Require that the product has not been purchased already\n        require(!_product.purchased, \"The product is already purchased\");\n        //Require that the buyer is not the _seller\n        require(_seller != msg.sender, \"The buyer can not be the seller\");\n        //Transfer ownership to the buyer\n        _product.owner = msg.sender;\n        //Mark as purchasedProduct\n        _product.purchased = true;\n        //Charge tax\n        uint tax = chargeTax(msg.value, msg.sender);\n        //Pay the seller by sending them Ether\n        _seller.transfer(msg.value - tax);\n        //trigger an event\n        emit ProductPurchased(productCount, _product.name, _product.price, msg.sender, true);\n        //beginAuction\n        beginAuction(_id);\n    }\n\n    /// Start of BlindAuction\n    /// In a real world scenario this function should\n    /// call only the bid function because the nakedBids\n    /// should have been an external input from another\n    /// contract or application.\n    function checkBidding(\n        uint _id,\n        bytes32 _blindedBid,\n        uint _values,\n        bool _fake,\n        string memory _secret\n    )\n    public\n    payable\n    maxValue(_id)\n    {\n        ProductWithBids storage selectedProduct = internalProducts[_id];\n        //onlyBefore biddingEnd\n        require(block.timestamp < selectedProduct.biddingEnd, \"The bidding has closed\");\n\n        bid(_blindedBid, _id);\n        pushNakedBids(\n            _values,\n            _fake,\n            _secret,\n            _id\n        );\n        selectedProduct.bidsCount[msg.sender]++;\n    }\n\n    /// Place a blinded bid with `_blindedBid` =\n    /// keccak256(abi.encodePacked(value, fake, secret)).\n    /// The sent ether is only refunded if the bid is correctly\n    /// revealed in the revealing phase. The bid is valid if the\n    /// ether sent together with the bid is at least \"value\" and\n    /// \"fake\" is not true. Setting \"fake\" to true and sending\n    /// not the exact amount are ways to hide the real bid but\n    /// still make the required deposit. The same address can\n    /// place multiple bids.\n    function bid(\n        bytes32 _blindedBid,\n        uint id\n    )\n    public\n    payable\n    {\n        ProductWithBids storage selectedProduct = internalProducts[id];\n        //onlyBefore biddingEnd\n        //require(block.timestamp < newProduct.biddingEnd);\n\n        selectedProduct.bids[msg.sender].push(Bid({\n        blindedBid : _blindedBid,\n        deposit : msg.value\n        }));\n\n        globalBidsCount++;\n    }\n\n    function pushNakedBids(\n        uint _values,\n        bool _fake,\n        string memory _secret,\n        uint id\n    )\n    public\n    payable\n    {\n        ProductWithBids storage selectedProduct = internalProducts[id];\n\n        selectedProduct.nakedBids[msg.sender].push(SecretBids({\n        values : _values,\n        fake : _fake,\n        secret : _secret\n        }));\n    }\n\n    /// Secret is just the required string for the matching encoding.\n    /// Reveal your blinded bids. You will get a refund for all\n    /// correctly blinded invalid bids and for all bids except for\n    /// the totally highest.\n    function revealInternal(\n        uint[] memory _values,\n        bool[] memory _fake,\n        string[] memory _secret,\n        uint _id\n    )\n    public\n    payable\n    {\n        ProductWithBids storage selectedProduct = internalProducts[_id];\n        //onlyAfter biddingEnd && onlyBefore revealEnd\n        require(block.timestamp > selectedProduct.biddingEnd, \"Only after the bidding has closed\");\n        require(block.timestamp < selectedProduct.revealEnd, \"The reveal phase has ended\");\n\n        uint length = selectedProduct.bids[msg.sender].length;\n        require(_values.length == length, \"invalid length value\");\n        require(_fake.length == length, \"invalid length fake\");\n        require(_secret.length == length, \"invalid length secret\");\n\n        uint refund;\n        for (uint i = 0; i < length; i++) {\n            Bid storage bidToCheck = selectedProduct.bids[msg.sender][i];\n            (uint value, bool fake, string memory secret) =\n            (_values[i], _fake[i], _secret[i]);\n            if (bidToCheck.blindedBid != keccak256(abi.encodePacked(value, fake, secret))) {\n                // Bid was not actually revealed.\n                // Do not refund deposit.\n                emit NotRevealedYet(msg.sender);\n                continue;\n            }\n            refund += bidToCheck.deposit;\n            if (fake) {\n                emit isTrue(fake);\n            } else {\n                emit isFalse(fake);\n                emit deposit(bidToCheck.deposit);\n                emit depositValue(value);\n            }\n            if (!fake && bidToCheck.deposit >= value) {\n                if (placeBid(msg.sender, value, _id))\n                    refund -= value;\n            }\n            // Make it impossible for the sender to re-claim\n            // the same deposit.\n            bidToCheck.blindedBid = bytes32(0);\n        }\n        msg.sender.transfer(refund);\n        //emit event\n        emit Revealed(msg.sender);\n    }\n\n    /// Withdraw a bid that was overbid.\n    function withdraw(\n        uint _id\n    )\n    public\n    payable\n    {\n        ProductWithBids storage selectedProduct = internalProducts[_id];\n        uint amount = selectedProduct.pendingReturns[msg.sender];\n        if (amount > 0) {\n            // It is important to set this to zero because the recipient\n            // can call this function again as part of the receiving call\n            // before `transfer` returns .\n            selectedProduct.pendingReturns[msg.sender] = 0;\n\n            msg.sender.transfer(amount);\n        }\n    }\n\n    /// End the auction and send the highest bid\n    /// to the beneficiary.\n    function auctionEnd(uint _id) public payable {\n        ProductWithBids storage selectedProduct = internalProducts[_id];\n        //onlyAfter revealEnd\n        require(block.timestamp > selectedProduct.revealEnd, \"Only after the reveal phase has ended\");\n\n        require(!selectedProduct.ended, \"The auction has ended already\");\n        emit AuctionEnded(\n            selectedProduct.lowestBidder,\n            selectedProduct.lowestBid\n        );\n\n        // It is important to place this if because the recipient\n        // can call this function again as part of the receiving call\n        // before `transfer` returns .\n        if (transportDeposit[_id] - selectedProduct.lowestBid >= 0 && !selectedProduct.ended) {\n            selectedProduct.lowestBidder.transfer(selectedProduct.lowestBid + selectedProduct.lowestBid);\n            uint tax = chargeTax(selectedProduct.lowestBid, selectedProduct.beneficiary);\n            uint sub = selectedProduct.lowestBid + tax;\n            transportDeposit[_id] -= sub;\n        }\n\n        refundSeller(\n            selectedProduct.beneficiary,\n            _id\n        );\n        selectedProduct.ended = true;\n    }\n\n    /// The main function responsible for revealing\n    /// the bids. In a real world scenario this\n    /// function should be a separate contract or\n    /// app, because this contract simulates an\n    /// external input.\n    function reveal(uint _id) public payable {\n        ProductWithBids storage selectedProduct = internalProducts[_id];\n        //onlyAfter biddingEnd && onlyBefore revealEnd\n        require(block.timestamp > selectedProduct.biddingEnd, \"Only after the bidding has closed\");\n        require(block.timestamp < selectedProduct.revealEnd, \"The reveal phase has ended\");\n        uint count = selectedProduct.bidsCount[msg.sender];\n\n        uint[] memory values = new uint[](count);\n        bool[] memory fake = new bool[](count);\n        string[] memory secret = new string[](count);\n\n        for (uint i = 0; i < count; i++) {\n            values[i] = selectedProduct.nakedBids[msg.sender][i].values;\n            fake[i] = selectedProduct.nakedBids[msg.sender][i].fake;\n            secret[i] = selectedProduct.nakedBids[msg.sender][i].secret;\n        }\n\n        revealInternal(\n            values,\n            fake,\n            secret,\n            _id\n        );\n    }\n\n    function refundSeller(\n        address payable _seller,\n        uint _id\n    )\n    public\n    payable\n    {\n        uint amount = transportDeposit[_id];\n        if (amount > 0) {\n            if (amount > 0)\n                _seller.transfer(amount);\n            // It is important to set this to zero because the recipient\n            // can call this function again as part of the receiving call\n            // before `transfer` returns .\n            transportDeposit[_id] = 0;\n        } else if (amount < 0) {\n            //emit event about the state\n            //of transportDeposit[_id].\n        }\n    }\n\n    function chargeTax(\n        uint amount,\n        address payable buyer\n    )\n    public\n    payable\n    returns (uint tax)\n    {\n        tax = amount * 24 / 100;\n        if (taxes[buyer] == 0)\n            taxCounter++;\n        taxes[buyer] += tax;\n        return tax;\n    }\n\n    function beginAuction(uint _id) internal {\n        ProductWithBids storage selectedProduct = internalProducts[_id];\n        AdditionalVars storage extraVars = extraProductVars[_id];\n        //Init Auction Vars\n        extraVars.firstTime = true;\n        selectedProduct.lowestBid = 0;\n        selectedProduct.ended = false;\n        //selectedProduct.bidsCount = 0;\n        selectedProduct.biddingEnd = block.timestamp + biddingTime;\n        selectedProduct.revealEnd = selectedProduct.biddingEnd + revealTime;\n        //trigger an event\n        emit NewAuctionBegins();\n    }\n\n    /// This is an \"internal\" function which means that it\n    /// can only be called from the contract itself (or from\n    /// derived contracts).\n    function placeBid(\n        address payable bidder,\n        uint value,\n        uint id\n    )\n    internal\n    returns (bool success)\n    {\n        ProductWithBids storage selectedProduct = internalProducts[id];\n        AdditionalVars storage extraVars = extraProductVars[id];\n\n        //TODO this is reversed.\n        if (value >= selectedProduct.lowestBid && !extraVars.firstTime)\n            return false;\n        else\n            extraVars.firstTime = false;\n\n        if (selectedProduct.lowestBidder != address(0)) {\n            // Refund the previously highest bidder.\n            selectedProduct.pendingReturns[selectedProduct.lowestBidder] += selectedProduct.lowestBid;\n        }\n        selectedProduct.lowestBid = value;\n        selectedProduct.lowestBidder = bidder;\n        emit IWillReturnTrue();\n        return true;\n    }\n    //End of BlindAuction\n\n}\n\n\n\n\n\n\n\n\n\n\n\n\n\n\n\n\n\n\n\n\n\n\n",
  "sourcePath": "/home/flexyusr/workspaces/GeorgePap-719/Blockchain/BlockChainEshop/src/contracts/eShop.sol",
  "compiler": {
    "name": "solc",
    "version": "0.7.4+commit.3f05b770.Emscripten.clang"
  },
  "schemaVersion": "3.3.4",
  "updatedAt": "2021-04-16T13:28:50.036Z",
  "networkType": "ethereum",
  "devdoc": {
    "kind": "dev",
    "methods": {},
    "version": 1
  },
  "userdoc": {
    "kind": "user",
    "methods": {
      "auctionEnd(uint256)": {
        "notice": "End the auction and send the highest bid to the beneficiary."
      },
      "bid(bytes32,uint256)": {
        "notice": "Place a blinded bid with `_blindedBid` = keccak256(abi.encodePacked(value, fake, secret)). The sent ether is only refunded if the bid is correctly revealed in the revealing phase. The bid is valid if the ether sent together with the bid is at least \"value\" and \"fake\" is not true. Setting \"fake\" to true and sending not the exact amount are ways to hide the real bid but still make the required deposit. The same address can place multiple bids."
      },
      "checkBidding(uint256,bytes32,uint256,bool,string)": {
        "notice": "Start of BlindAuction In a real world scenario this function should call only the bid function because the nakedBids should have been an external input from another contract or application."
      },
      "constructor": {
        "notice": "Ensure that `msg.value` is an even number. Division will truncate if it is an odd number. Check via multiplication that it wasn't an odd number"
      },
      "reveal(uint256)": {
        "notice": "The main function responsible for revealing the bids. In a real world scenario this function should be a separate contract or app, because this contract simulates an external input."
      },
      "revealInternal(uint256[],bool[],string[],uint256)": {
        "notice": "Secret is just the required string for the matching encoding. Reveal your blinded bids. You will get a refund for all correctly blinded invalid bids and for all bids except for the totally highest."
      },
      "withdraw(uint256)": {
        "notice": "Withdraw a bid that was overbid."
      }
    },
    "version": 1
  }
}